{"bytecode":"608060405234801561001057600080fd5b50604051610a71380380610a7183398101604081905261002f91610062565b60008054336001600160a01b031991821617909155600180549091166001600160a01b0392909216919091179055610092565b60006020828403121561007457600080fd5b81516001600160a01b038116811461008b57600080fd5b9392505050565b6109d0806100a16000396000f3fe6080604052600436106100f75760003560e01c8063924764d41161008a578063f177081f11610059578063f177081f146102af578063f5ef33c3146102cf578063f851a440146102ef578063fbf23fe81461030f57600080fd5b8063924764d41461022557806398d5fdca14610245578063c73358de1461026f578063d3703a161461028f57600080fd5b806342f6fb29116100c657806342f6fb29146101b057806346cb0860146101d05780635fd8c710146101f05780636138dd071461020557600080fd5b80631ded8844146101035780633087cbe314610140578063381502e3146101605780633be0dcb81461018257600080fd5b366100fe57005b600080fd5b34801561010f57600080fd5b50600354610123906001600160a01b031681565b6040516001600160a01b0390911681526020015b60405180910390f35b34801561014c57600080fd5b50600254610123906001600160a01b031681565b34801561016c57600080fd5b5061018061017b366004610747565b61032f565b005b34801561018e57600080fd5b506101a261019d366004610747565b6103c4565b604051908152602001610137565b3480156101bc57600080fd5b50600154610123906001600160a01b031681565b3480156101dc57600080fd5b50600454610123906001600160a01b031681565b3480156101fc57600080fd5b50610180610401565b34801561021157600080fd5b50610180610220366004610747565b610468565b34801561023157600080fd5b50610180610240366004610760565b6104c3565b34801561025157600080fd5b5061025a61050f565b60408051928352602083019190915201610137565b34801561027b57600080fd5b5061018061028a366004610760565b61060a565b34801561029b57600080fd5b506101806102aa366004610747565b610656565b3480156102bb57600080fd5b50600554610123906001600160a01b031681565b3480156102db57600080fd5b506101806102ea366004610760565b6106af565b3480156102fb57600080fd5b50600054610123906001600160a01b031681565b34801561031b57600080fd5b5061018061032a366004610760565b6106fb565b6000546001600160a01b031633146103625760405162461bcd60e51b815260040161035990610790565b60405180910390fd5b60035460405163e09b858d60e01b8152600481018390526001600160a01b039091169063e09b858d906024015b600060405180830381600087803b1580156103a957600080fd5b505af11580156103bd573d6000803e3d6000fd5b5050505050565b60008060006103d161050f565b90925090506000826103e483600a6108c3565b6103ee90876108cf565b6103f891906108e6565b95945050505050565b6000546001600160a01b0316331461042b5760405162461bcd60e51b815260040161035990610790565b600080546040516001600160a01b03909116914780156108fc02929091818181858888f19350505050158015610465573d6000803e3d6000fd5b50565b6000546001600160a01b031633146104925760405162461bcd60e51b815260040161035990610790565b600254604051636a1db1bf60e01b8152600481018390526001600160a01b0390911690636a1db1bf9060240161038f565b6000546001600160a01b031633146104ed5760405162461bcd60e51b815260040161035990610790565b600380546001600160a01b0319166001600160a01b0392909216919091179055565b6000806000600160009054906101000a90046001600160a01b031690506000816001600160a01b031663feaf968c6040518163ffffffff1660e01b815260040160a060405180830381865afa15801561056c573d6000803e3d6000fd5b505050506040513d601f19601f820116820180604052508101906105909190610927565b5050509150506000826001600160a01b031663313ce5676040518163ffffffff1660e01b8152600401602060405180830381865afa1580156105d6573d6000803e3d6000fd5b505050506040513d601f19601f820116820180604052508101906105fa9190610977565b919560ff90921694509092505050565b6000546001600160a01b031633146106345760405162461bcd60e51b815260040161035990610790565b600280546001600160a01b0319166001600160a01b0392909216919091179055565b6000546001600160a01b031633146106805760405162461bcd60e51b815260040161035990610790565b60048054604051636a1db1bf60e01b81529182018390526001600160a01b031690636a1db1bf9060240161038f565b6000546001600160a01b031633146106d95760405162461bcd60e51b815260040161035990610790565b600480546001600160a01b0319166001600160a01b0392909216919091179055565b6000546001600160a01b031633146107255760405162461bcd60e51b815260040161035990610790565b600580546001600160a01b0319166001600160a01b0392909216919091179055565b60006020828403121561075957600080fd5b5035919050565b60006020828403121561077257600080fd5b81356001600160a01b038116811461078957600080fd5b9392505050565b60208082526018908201527f6f6e6c792061646d696e2063616e2063616c6c20746869730000000000000000604082015260600190565b634e487b7160e01b600052601160045260246000fd5b600181815b808511156108185781600019048211156107fe576107fe6107c7565b8085161561080b57918102915b93841c93908002906107e2565b509250929050565b60008261082f575060016108bd565b8161083c575060006108bd565b8160018114610852576002811461085c57610878565b60019150506108bd565b60ff84111561086d5761086d6107c7565b50506001821b6108bd565b5060208310610133831016604e8410600b841016171561089b575081810a6108bd565b6108a583836107dd565b80600019048211156108b9576108b96107c7565b0290505b92915050565b60006107898383610820565b80820281158282048414176108bd576108bd6107c7565b60008261090357634e487b7160e01b600052601260045260246000fd5b500490565b805169ffffffffffffffffffff8116811461092257600080fd5b919050565b600080600080600060a0868803121561093f57600080fd5b61094886610908565b945060208601519350604086015192506060860151915061096b60808701610908565b90509295509295909350565b60006020828403121561098957600080fd5b815160ff8116811461078957600080fdfea2646970667358221220ab225bb4e61b3390a4c5c9adb35af9feb263d5e823b6b5dae87e8bcd407fc9e964736f6c63430008110033","bytecodeSha1":"23563258bca7c4968c462fdcd3547c1aaa859c2e","type":"contract","abi":[{"inputs":[{"internalType":"address","name":"_ethUsdPriceFeed","type":"address"}],"stateMutability":"nonpayable","type":"constructor","name":"constructor"},{"inputs":[],"name":"admin","outputs":[{"internalType":"address payable","name":"","type":"address"}],"stateMutability":"view","type":"function"},{"inputs":[],"name":"auctionMarketContractAddress","outputs":[{"internalType":"address","name":"","type":"address"}],"stateMutability":"view","type":"function"},{"inputs":[{"internalType":"uint256","name":"_newFee","type":"uint256"}],"name":"changeAuctionFee","outputs":[],"stateMutability":"nonpayable","type":"function"},{"inputs":[{"internalType":"uint256","name":"_newFee","type":"uint256"}],"name":"changeMarketFee","outputs":[],"stateMutability":"nonpayable","type":"function"},{"inputs":[{"internalType":"uint256","name":"_newFee","type":"uint256"}],"name":"changeStoreFee","outputs":[],"stateMutability":"nonpayable","type":"function"},{"inputs":[{"internalType":"uint256","name":"amountInUSD","type":"uint256"}],"name":"convertUSDToETH","outputs":[{"internalType":"uint256","name":"","type":"uint256"}],"stateMutability":"nonpayable","type":"function"},{"inputs":[],"name":"ethUsdPriceFeed","outputs":[{"internalType":"address","name":"","type":"address"}],"stateMutability":"view","type":"function"},{"inputs":[],"name":"getPrice","outputs":[{"internalType":"uint256","name":"","type":"uint256"},{"internalType":"uint256","name":"","type":"uint256"}],"stateMutability":"nonpayable","type":"function"},{"inputs":[],"name":"marketContractAddress","outputs":[{"internalType":"address","name":"","type":"address"}],"stateMutability":"view","type":"function"},{"inputs":[{"internalType":"address","name":"_auctionsContractAddress","type":"address"}],"name":"setAuctionMarketContractAddress","outputs":[],"stateMutability":"nonpayable","type":"function"},{"inputs":[{"internalType":"address","name":"_mainMarketAddress","type":"address"}],"name":"setMarketContractAddress","outputs":[],"stateMutability":"nonpayable","type":"function"},{"inputs":[{"internalType":"address","name":"_storeFactoryAddress","type":"address"}],"name":"setStoreFactoryAddress","outputs":[],"stateMutability":"nonpayable","type":"function"},{"inputs":[{"internalType":"address","name":"_tendersContractAddress","type":"address"}],"name":"setTenderMarketContractAddress","outputs":[],"stateMutability":"nonpayable","type":"function"},{"inputs":[],"name":"storeFactoryAddress","outputs":[{"internalType":"address","name":"","type":"address"}],"stateMutability":"view","type":"function"},{"inputs":[],"name":"tenderMarketContractAddress","outputs":[{"internalType":"address","name":"","type":"address"}],"stateMutability":"view","type":"function"},{"inputs":[],"name":"withdrawBalance","outputs":[],"stateMutability":"nonpayable","type":"function"},{"stateMutability":"payable","type":"receive"}],"compiler":{"version":"0.8.17+commit.8df45f5f","evm_version":"istanbul","optimizer":{"enabled":true,"runs":200}},"contractName":"Administration","language":"Solidity","natspec":{"methods":{"getPrice()":{"details":"Get current ETH/USD price using ChainLink price feed","returns":{"_0":"the ETH/USD price , the number of decimals used for this price"}}},"kind":"dev","version":1},"opcodes":"PUSH1 0x80 PUSH1 0x40 MSTORE PUSH1 0x4 CALLDATASIZE LT PUSH2 0xF7 JUMPI PUSH1 0x0 CALLDATALOAD PUSH1 0xE0 SHR DUP1 PUSH4 0x924764D4 GT PUSH2 0x8A JUMPI DUP1 PUSH4 0xF177081F GT PUSH2 0x59 JUMPI DUP1 PUSH4 0xF177081F EQ PUSH2 0x2AF JUMPI DUP1 PUSH4 0xF5EF33C3 EQ PUSH2 0x2CF JUMPI DUP1 PUSH4 0xF851A440 EQ PUSH2 0x2EF JUMPI DUP1 PUSH4 0xFBF23FE8 EQ PUSH2 0x30F JUMPI PUSH1 0x0 DUP1 REVERT JUMPDEST DUP1 PUSH4 0x924764D4 EQ PUSH2 0x225 JUMPI DUP1 PUSH4 0x98D5FDCA EQ PUSH2 0x245 JUMPI DUP1 PUSH4 0xC73358DE EQ PUSH2 0x26F JUMPI DUP1 PUSH4 0xD3703A16 EQ PUSH2 0x28F JUMPI PUSH1 0x0 DUP1 REVERT JUMPDEST DUP1 PUSH4 0x42F6FB29 GT PUSH2 0xC6 JUMPI DUP1 PUSH4 0x42F6FB29 EQ PUSH2 0x1B0 JUMPI DUP1 PUSH4 0x46CB0860 EQ PUSH2 0x1D0 JUMPI DUP1 PUSH4 0x5FD8C710 EQ PUSH2 0x1F0 JUMPI DUP1 PUSH4 0x6138DD07 EQ PUSH2 0x205 JUMPI PUSH1 0x0 DUP1 REVERT JUMPDEST DUP1 PUSH4 0x1DED8844 EQ PUSH2 0x103 JUMPI DUP1 PUSH4 0x3087CBE3 EQ PUSH2 0x140 JUMPI DUP1 PUSH4 0x381502E3 EQ PUSH2 0x160 JUMPI DUP1 PUSH4 0x3BE0DCB8 EQ PUSH2 0x182 JUMPI PUSH1 0x0 DUP1 REVERT JUMPDEST CALLDATASIZE PUSH2 0xFE JUMPI STOP JUMPDEST PUSH1 0x0 DUP1 REVERT JUMPDEST CALLVALUE DUP1 ISZERO PUSH2 0x10F JUMPI PUSH1 0x0 DUP1 REVERT JUMPDEST POP PUSH1 0x3 SLOAD PUSH2 0x123 SWAP1 PUSH1 0x1 PUSH1 0x1 PUSH1 0xA0 SHL SUB AND DUP2 JUMP JUMPDEST PUSH1 0x40 MLOAD PUSH1 0x1 PUSH1 0x1 PUSH1 0xA0 SHL SUB SWAP1 SWAP2 AND DUP2 MSTORE PUSH1 0x20 ADD JUMPDEST PUSH1 0x40 MLOAD DUP1 SWAP2 SUB SWAP1 RETURN JUMPDEST CALLVALUE DUP1 ISZERO PUSH2 0x14C JUMPI PUSH1 0x0 DUP1 REVERT JUMPDEST POP PUSH1 0x2 SLOAD PUSH2 0x123 SWAP1 PUSH1 0x1 PUSH1 0x1 PUSH1 0xA0 SHL SUB AND DUP2 JUMP JUMPDEST CALLVALUE DUP1 ISZERO PUSH2 0x16C JUMPI PUSH1 0x0 DUP1 REVERT JUMPDEST POP PUSH2 0x180 PUSH2 0x17B CALLDATASIZE PUSH1 0x4 PUSH2 0x747 JUMP JUMPDEST PUSH2 0x32F JUMP JUMPDEST STOP JUMPDEST CALLVALUE DUP1 ISZERO PUSH2 0x18E JUMPI PUSH1 0x0 DUP1 REVERT JUMPDEST POP PUSH2 0x1A2 PUSH2 0x19D CALLDATASIZE PUSH1 0x4 PUSH2 0x747 JUMP JUMPDEST PUSH2 0x3C4 JUMP JUMPDEST PUSH1 0x40 MLOAD SWAP1 DUP2 MSTORE PUSH1 0x20 ADD PUSH2 0x137 JUMP JUMPDEST CALLVALUE DUP1 ISZERO PUSH2 0x1BC JUMPI PUSH1 0x0 DUP1 REVERT JUMPDEST POP PUSH1 0x1 SLOAD PUSH2 0x123 SWAP1 PUSH1 0x1 PUSH1 0x1 PUSH1 0xA0 SHL SUB AND DUP2 JUMP JUMPDEST CALLVALUE DUP1 ISZERO PUSH2 0x1DC JUMPI PUSH1 0x0 DUP1 REVERT JUMPDEST POP PUSH1 0x4 SLOAD PUSH2 0x123 SWAP1 PUSH1 0x1 PUSH1 0x1 PUSH1 0xA0 SHL SUB AND DUP2 JUMP JUMPDEST CALLVALUE DUP1 ISZERO PUSH2 0x1FC JUMPI PUSH1 0x0 DUP1 REVERT JUMPDEST POP PUSH2 0x180 PUSH2 0x401 JUMP JUMPDEST CALLVALUE DUP1 ISZERO PUSH2 0x211 JUMPI PUSH1 0x0 DUP1 REVERT JUMPDEST POP PUSH2 0x180 PUSH2 0x220 CALLDATASIZE PUSH1 0x4 PUSH2 0x747 JUMP JUMPDEST PUSH2 0x468 JUMP JUMPDEST CALLVALUE DUP1 ISZERO PUSH2 0x231 JUMPI PUSH1 0x0 DUP1 REVERT JUMPDEST POP PUSH2 0x180 PUSH2 0x240 CALLDATASIZE PUSH1 0x4 PUSH2 0x760 JUMP JUMPDEST PUSH2 0x4C3 JUMP JUMPDEST CALLVALUE DUP1 ISZERO PUSH2 0x251 JUMPI PUSH1 0x0 DUP1 REVERT JUMPDEST POP PUSH2 0x25A PUSH2 0x50F JUMP JUMPDEST PUSH1 0x40 DUP1 MLOAD SWAP3 DUP4 MSTORE PUSH1 0x20 DUP4 ADD SWAP2 SWAP1 SWAP2 MSTORE ADD PUSH2 0x137 JUMP JUMPDEST CALLVALUE DUP1 ISZERO PUSH2 0x27B JUMPI PUSH1 0x0 DUP1 REVERT JUMPDEST POP PUSH2 0x180 PUSH2 0x28A CALLDATASIZE PUSH1 0x4 PUSH2 0x760 JUMP JUMPDEST PUSH2 0x60A JUMP JUMPDEST CALLVALUE DUP1 ISZERO PUSH2 0x29B JUMPI PUSH1 0x0 DUP1 REVERT JUMPDEST POP PUSH2 0x180 PUSH2 0x2AA CALLDATASIZE PUSH1 0x4 PUSH2 0x747 JUMP JUMPDEST PUSH2 0x656 JUMP JUMPDEST CALLVALUE DUP1 ISZERO PUSH2 0x2BB JUMPI PUSH1 0x0 DUP1 REVERT JUMPDEST POP PUSH1 0x5 SLOAD PUSH2 0x123 SWAP1 PUSH1 0x1 PUSH1 0x1 PUSH1 0xA0 SHL SUB AND DUP2 JUMP JUMPDEST CALLVALUE DUP1 ISZERO PUSH2 0x2DB JUMPI PUSH1 0x0 DUP1 REVERT JUMPDEST POP PUSH2 0x180 PUSH2 0x2EA CALLDATASIZE PUSH1 0x4 PUSH2 0x760 JUMP JUMPDEST PUSH2 0x6AF JUMP JUMPDEST CALLVALUE DUP1 ISZERO PUSH2 0x2FB JUMPI PUSH1 0x0 DUP1 REVERT JUMPDEST POP PUSH1 0x0 SLOAD PUSH2 0x123 SWAP1 PUSH1 0x1 PUSH1 0x1 PUSH1 0xA0 SHL SUB AND DUP2 JUMP JUMPDEST CALLVALUE DUP1 ISZERO PUSH2 0x31B JUMPI PUSH1 0x0 DUP1 REVERT JUMPDEST POP PUSH2 0x180 PUSH2 0x32A CALLDATASIZE PUSH1 0x4 PUSH2 0x760 JUMP JUMPDEST PUSH2 0x6FB JUMP JUMPDEST PUSH1 0x0 SLOAD PUSH1 0x1 PUSH1 0x1 PUSH1 0xA0 SHL SUB AND CALLER EQ PUSH2 0x362 JUMPI PUSH1 0x40 MLOAD PUSH3 0x461BCD PUSH1 0xE5 SHL DUP2 MSTORE PUSH1 0x4 ADD PUSH2 0x359 SWAP1 PUSH2 0x790 JUMP JUMPDEST PUSH1 0x40 MLOAD DUP1 SWAP2 SUB SWAP1 REVERT JUMPDEST PUSH1 0x3 SLOAD PUSH1 0x40 MLOAD PUSH4 0xE09B858D PUSH1 0xE0 SHL DUP2 MSTORE PUSH1 0x4 DUP2 ADD DUP4 SWAP1 MSTORE PUSH1 0x1 PUSH1 0x1 PUSH1 0xA0 SHL SUB SWAP1 SWAP2 AND SWAP1 PUSH4 0xE09B858D SWAP1 PUSH1 0x24 ADD JUMPDEST PUSH1 0x0 PUSH1 0x40 MLOAD DUP1 DUP4 SUB DUP2 PUSH1 0x0 DUP8 DUP1 EXTCODESIZE ISZERO DUP1 ISZERO PUSH2 0x3A9 JUMPI PUSH1 0x0 DUP1 REVERT JUMPDEST POP GAS CALL ISZERO DUP1 ISZERO PUSH2 0x3BD JUMPI RETURNDATASIZE PUSH1 0x0 DUP1 RETURNDATACOPY RETURNDATASIZE PUSH1 0x0 REVERT JUMPDEST POP POP POP POP POP JUMP JUMPDEST PUSH1 0x0 DUP1 PUSH1 0x0 PUSH2 0x3D1 PUSH2 0x50F JUMP JUMPDEST SWAP1 SWAP3 POP SWAP1 POP PUSH1 0x0 DUP3 PUSH2 0x3E4 DUP4 PUSH1 0xA PUSH2 0x8C3 JUMP JUMPDEST PUSH2 0x3EE SWAP1 DUP8 PUSH2 0x8CF JUMP JUMPDEST PUSH2 0x3F8 SWAP2 SWAP1 PUSH2 0x8E6 JUMP JUMPDEST SWAP6 SWAP5 POP POP POP POP POP JUMP JUMPDEST PUSH1 0x0 SLOAD PUSH1 0x1 PUSH1 0x1 PUSH1 0xA0 SHL SUB AND CALLER EQ PUSH2 0x42B JUMPI PUSH1 0x40 MLOAD PUSH3 0x461BCD PUSH1 0xE5 SHL DUP2 MSTORE PUSH1 0x4 ADD PUSH2 0x359 SWAP1 PUSH2 0x790 JUMP JUMPDEST PUSH1 0x0 DUP1 SLOAD PUSH1 0x40 MLOAD PUSH1 0x1 PUSH1 0x1 PUSH1 0xA0 SHL SUB SWAP1 SWAP2 AND SWAP2 SELFBALANCE DUP1 ISZERO PUSH2 0x8FC MUL SWAP3 SWAP1 SWAP2 DUP2 DUP2 DUP2 DUP6 DUP9 DUP9 CALL SWAP4 POP POP POP POP ISZERO DUP1 ISZERO PUSH2 0x465 JUMPI RETURNDATASIZE PUSH1 0x0 DUP1 RETURNDATACOPY RETURNDATASIZE PUSH1 0x0 REVERT JUMPDEST POP JUMP JUMPDEST PUSH1 0x0 SLOAD PUSH1 0x1 PUSH1 0x1 PUSH1 0xA0 SHL SUB AND CALLER EQ PUSH2 0x492 JUMPI PUSH1 0x40 MLOAD PUSH3 0x461BCD PUSH1 0xE5 SHL DUP2 MSTORE PUSH1 0x4 ADD PUSH2 0x359 SWAP1 PUSH2 0x790 JUMP JUMPDEST PUSH1 0x2 SLOAD PUSH1 0x40 MLOAD PUSH4 0x6A1DB1BF PUSH1 0xE0 SHL DUP2 MSTORE PUSH1 0x4 DUP2 ADD DUP4 SWAP1 MSTORE PUSH1 0x1 PUSH1 0x1 PUSH1 0xA0 SHL SUB SWAP1 SWAP2 AND SWAP1 PUSH4 0x6A1DB1BF SWAP1 PUSH1 0x24 ADD PUSH2 0x38F JUMP JUMPDEST PUSH1 0x0 SLOAD PUSH1 0x1 PUSH1 0x1 PUSH1 0xA0 SHL SUB AND CALLER EQ PUSH2 0x4ED JUMPI PUSH1 0x40 MLOAD PUSH3 0x461BCD PUSH1 0xE5 SHL DUP2 MSTORE PUSH1 0x4 ADD PUSH2 0x359 SWAP1 PUSH2 0x790 JUMP JUMPDEST PUSH1 0x3 DUP1 SLOAD PUSH1 0x1 PUSH1 0x1 PUSH1 0xA0 SHL SUB NOT AND PUSH1 0x1 PUSH1 0x1 PUSH1 0xA0 SHL SUB SWAP3 SWAP1 SWAP3 AND SWAP2 SWAP1 SWAP2 OR SWAP1 SSTORE JUMP JUMPDEST PUSH1 0x0 DUP1 PUSH1 0x0 PUSH1 0x1 PUSH1 0x0 SWAP1 SLOAD SWAP1 PUSH2 0x100 EXP SWAP1 DIV PUSH1 0x1 PUSH1 0x1 PUSH1 0xA0 SHL SUB AND SWAP1 POP PUSH1 0x0 DUP2 PUSH1 0x1 PUSH1 0x1 PUSH1 0xA0 SHL SUB AND PUSH4 0xFEAF968C PUSH1 0x40 MLOAD DUP2 PUSH4 0xFFFFFFFF AND PUSH1 0xE0 SHL DUP2 MSTORE PUSH1 0x4 ADD PUSH1 0xA0 PUSH1 0x40 MLOAD DUP1 DUP4 SUB DUP2 DUP7 GAS STATICCALL ISZERO DUP1 ISZERO PUSH2 0x56C JUMPI RETURNDATASIZE PUSH1 0x0 DUP1 RETURNDATACOPY RETURNDATASIZE PUSH1 0x0 REVERT JUMPDEST POP POP POP POP PUSH1 0x40 MLOAD RETURNDATASIZE PUSH1 0x1F NOT PUSH1 0x1F DUP3 ADD AND DUP3 ADD DUP1 PUSH1 0x40 MSTORE POP DUP2 ADD SWAP1 PUSH2 0x590 SWAP2 SWAP1 PUSH2 0x927 JUMP JUMPDEST POP POP POP SWAP2 POP POP PUSH1 0x0 DUP3 PUSH1 0x1 PUSH1 0x1 PUSH1 0xA0 SHL SUB AND PUSH4 0x313CE567 PUSH1 0x40 MLOAD DUP2 PUSH4 0xFFFFFFFF AND PUSH1 0xE0 SHL DUP2 MSTORE PUSH1 0x4 ADD PUSH1 0x20 PUSH1 0x40 MLOAD DUP1 DUP4 SUB DUP2 DUP7 GAS STATICCALL ISZERO DUP1 ISZERO PUSH2 0x5D6 JUMPI RETURNDATASIZE PUSH1 0x0 DUP1 RETURNDATACOPY RETURNDATASIZE PUSH1 0x0 REVERT JUMPDEST POP POP POP POP PUSH1 0x40 MLOAD RETURNDATASIZE PUSH1 0x1F NOT PUSH1 0x1F DUP3 ADD AND DUP3 ADD DUP1 PUSH1 0x40 MSTORE POP DUP2 ADD SWAP1 PUSH2 0x5FA SWAP2 SWAP1 PUSH2 0x977 JUMP JUMPDEST SWAP2 SWAP6 PUSH1 0xFF SWAP1 SWAP3 AND SWAP5 POP SWAP1 SWAP3 POP POP POP JUMP JUMPDEST PUSH1 0x0 SLOAD PUSH1 0x1 PUSH1 0x1 PUSH1 0xA0 SHL SUB AND CALLER EQ PUSH2 0x634 JUMPI PUSH1 0x40 MLOAD PUSH3 0x461BCD PUSH1 0xE5 SHL DUP2 MSTORE PUSH1 0x4 ADD PUSH2 0x359 SWAP1 PUSH2 0x790 JUMP JUMPDEST PUSH1 0x2 DUP1 SLOAD PUSH1 0x1 PUSH1 0x1 PUSH1 0xA0 SHL SUB NOT AND PUSH1 0x1 PUSH1 0x1 PUSH1 0xA0 SHL SUB SWAP3 SWAP1 SWAP3 AND SWAP2 SWAP1 SWAP2 OR SWAP1 SSTORE JUMP JUMPDEST PUSH1 0x0 SLOAD PUSH1 0x1 PUSH1 0x1 PUSH1 0xA0 SHL SUB AND CALLER EQ PUSH2 0x680 JUMPI PUSH1 0x40 MLOAD PUSH3 0x461BCD PUSH1 0xE5 SHL DUP2 MSTORE PUSH1 0x4 ADD PUSH2 0x359 SWAP1 PUSH2 0x790 JUMP JUMPDEST PUSH1 0x4 DUP1 SLOAD PUSH1 0x40 MLOAD PUSH4 0x6A1DB1BF PUSH1 0xE0 SHL DUP2 MSTORE SWAP2 DUP3 ADD DUP4 SWAP1 MSTORE PUSH1 0x1 PUSH1 0x1 PUSH1 0xA0 SHL SUB AND SWAP1 PUSH4 0x6A1DB1BF SWAP1 PUSH1 0x24 ADD PUSH2 0x38F JUMP JUMPDEST PUSH1 0x0 SLOAD PUSH1 0x1 PUSH1 0x1 PUSH1 0xA0 SHL SUB AND CALLER EQ PUSH2 0x6D9 JUMPI PUSH1 0x40 MLOAD PUSH3 0x461BCD PUSH1 0xE5 SHL DUP2 MSTORE PUSH1 0x4 ADD PUSH2 0x359 SWAP1 PUSH2 0x790 JUMP JUMPDEST PUSH1 0x4 DUP1 SLOAD PUSH1 0x1 PUSH1 0x1 PUSH1 0xA0 SHL SUB NOT AND PUSH1 0x1 PUSH1 0x1 PUSH1 0xA0 SHL SUB SWAP3 SWAP1 SWAP3 AND SWAP2 SWAP1 SWAP2 OR SWAP1 SSTORE JUMP JUMPDEST PUSH1 0x0 SLOAD PUSH1 0x1 PUSH1 0x1 PUSH1 0xA0 SHL SUB AND CALLER EQ PUSH2 0x725 JUMPI PUSH1 0x40 MLOAD PUSH3 0x461BCD PUSH1 0xE5 SHL DUP2 MSTORE PUSH1 0x4 ADD PUSH2 0x359 SWAP1 PUSH2 0x790 JUMP JUMPDEST PUSH1 0x5 DUP1 SLOAD PUSH1 0x1 PUSH1 0x1 PUSH1 0xA0 SHL SUB NOT AND PUSH1 0x1 PUSH1 0x1 PUSH1 0xA0 SHL SUB SWAP3 SWAP1 SWAP3 AND SWAP2 SWAP1 SWAP2 OR SWAP1 SSTORE JUMP JUMPDEST PUSH1 0x0 PUSH1 0x20 DUP3 DUP5 SUB SLT ISZERO PUSH2 0x759 JUMPI PUSH1 0x0 DUP1 REVERT JUMPDEST POP CALLDATALOAD SWAP2 SWAP1 POP JUMP JUMPDEST PUSH1 0x0 PUSH1 0x20 DUP3 DUP5 SUB SLT ISZERO PUSH2 0x772 JUMPI PUSH1 0x0 DUP1 REVERT JUMPDEST DUP2 CALLDATALOAD PUSH1 0x1 PUSH1 0x1 PUSH1 0xA0 SHL SUB DUP2 AND DUP2 EQ PUSH2 0x789 JUMPI PUSH1 0x0 DUP1 REVERT JUMPDEST SWAP4 SWAP3 POP POP POP JUMP JUMPDEST PUSH1 0x20 DUP1 DUP3 MSTORE PUSH1 0x18 SWAP1 DUP3 ADD MSTORE PUSH32 0x6F6E6C792061646D696E2063616E2063616C6C20746869730000000000000000 PUSH1 0x40 DUP3 ADD MSTORE PUSH1 0x60 ADD SWAP1 JUMP JUMPDEST PUSH4 0x4E487B71 PUSH1 0xE0 SHL PUSH1 0x0 MSTORE PUSH1 0x11 PUSH1 0x4 MSTORE PUSH1 0x24 PUSH1 0x0 REVERT JUMPDEST PUSH1 0x1 DUP2 DUP2 JUMPDEST DUP1 DUP6 GT ISZERO PUSH2 0x818 JUMPI DUP2 PUSH1 0x0 NOT DIV DUP3 GT ISZERO PUSH2 0x7FE JUMPI PUSH2 0x7FE PUSH2 0x7C7 JUMP JUMPDEST DUP1 DUP6 AND ISZERO PUSH2 0x80B JUMPI SWAP2 DUP2 MUL SWAP2 JUMPDEST SWAP4 DUP5 SHR SWAP4 SWAP1 DUP1 MUL SWAP1 PUSH2 0x7E2 JUMP JUMPDEST POP SWAP3 POP SWAP3 SWAP1 POP JUMP JUMPDEST PUSH1 0x0 DUP3 PUSH2 0x82F JUMPI POP PUSH1 0x1 PUSH2 0x8BD JUMP JUMPDEST DUP2 PUSH2 0x83C JUMPI POP PUSH1 0x0 PUSH2 0x8BD JUMP JUMPDEST DUP2 PUSH1 0x1 DUP2 EQ PUSH2 0x852 JUMPI PUSH1 0x2 DUP2 EQ PUSH2 0x85C JUMPI PUSH2 0x878 JUMP JUMPDEST PUSH1 0x1 SWAP2 POP POP PUSH2 0x8BD JUMP JUMPDEST PUSH1 0xFF DUP5 GT ISZERO PUSH2 0x86D JUMPI PUSH2 0x86D PUSH2 0x7C7 JUMP JUMPDEST POP POP PUSH1 0x1 DUP3 SHL PUSH2 0x8BD JUMP JUMPDEST POP PUSH1 0x20 DUP4 LT PUSH2 0x133 DUP4 LT AND PUSH1 0x4E DUP5 LT PUSH1 0xB DUP5 LT AND OR ISZERO PUSH2 0x89B JUMPI POP DUP2 DUP2 EXP PUSH2 0x8BD JUMP JUMPDEST PUSH2 0x8A5 DUP4 DUP4 PUSH2 0x7DD JUMP JUMPDEST DUP1 PUSH1 0x0 NOT DIV DUP3 GT ISZERO PUSH2 0x8B9 JUMPI PUSH2 0x8B9 PUSH2 0x7C7 JUMP JUMPDEST MUL SWAP1 POP JUMPDEST SWAP3 SWAP2 POP POP JUMP JUMPDEST PUSH1 0x0 PUSH2 0x789 DUP4 DUP4 PUSH2 0x820 JUMP JUMPDEST DUP1 DUP3 MUL DUP2 ISZERO DUP3 DUP3 DIV DUP5 EQ OR PUSH2 0x8BD JUMPI PUSH2 0x8BD PUSH2 0x7C7 JUMP JUMPDEST PUSH1 0x0 DUP3 PUSH2 0x903 JUMPI PUSH4 0x4E487B71 PUSH1 0xE0 SHL PUSH1 0x0 MSTORE PUSH1 0x12 PUSH1 0x4 MSTORE PUSH1 0x24 PUSH1 0x0 REVERT JUMPDEST POP DIV SWAP1 JUMP JUMPDEST DUP1 MLOAD PUSH10 0xFFFFFFFFFFFFFFFFFFFF DUP2 AND DUP2 EQ PUSH2 0x922 JUMPI PUSH1 0x0 DUP1 REVERT JUMPDEST SWAP2 SWAP1 POP JUMP JUMPDEST PUSH1 0x0 DUP1 PUSH1 0x0 DUP1 PUSH1 0x0 PUSH1 0xA0 DUP7 DUP9 SUB SLT ISZERO PUSH2 0x93F JUMPI PUSH1 0x0 DUP1 REVERT JUMPDEST PUSH2 0x948 DUP7 PUSH2 0x908 JUMP JUMPDEST SWAP5 POP PUSH1 0x20 DUP7 ADD MLOAD SWAP4 POP PUSH1 0x40 DUP7 ADD MLOAD SWAP3 POP PUSH1 0x60 DUP7 ADD MLOAD SWAP2 POP PUSH2 0x96B PUSH1 0x80 DUP8 ADD PUSH2 0x908 JUMP JUMPDEST SWAP1 POP SWAP3 SWAP6 POP SWAP3 SWAP6 SWAP1 SWAP4 POP JUMP JUMPDEST PUSH1 0x0 PUSH1 0x20 DUP3 DUP5 SUB SLT ISZERO PUSH2 0x989 JUMPI PUSH1 0x0 DUP1 REVERT JUMPDEST DUP2 MLOAD PUSH1 0xFF DUP2 AND DUP2 EQ PUSH2 0x789 JUMPI PUSH1 0x0 DUP1 REVERT INVALID LOG2 PUSH5 0x6970667358 0x22 SLT KECCAK256 0xAB 0x22 JUMPDEST 0xB4 0xE6 SHL CALLER SWAP1 LOG4 0xC5 0xC9 0xAD 0xB3 GAS 0xF9 INVALID 0xB2 PUSH4 0xD5E823B6 0xB5 0xDA 0xE8 PUSH31 0x8BCD407FC9E964736F6C634300081100330000000000000000000000000000 ","sha1":"e73266cf6a766363fe9cd082c05efd05ee152280","source":"// SPDX-License-Identifier: MIT\n\npragma solidity ^0.8.0;\n\nimport \"@chainlink/contracts/src/v0.8/interfaces/AggregatorV3Interface.sol\";\nimport \"./IMarket.sol\";\n\ncontract Administration {\n    //--------------------------------------------------------------------\n    // VARIABLES\n\n    address payable public admin;\n    address public ethUsdPriceFeed;\n\n    address public marketContractAddress;\n    address public storeFactoryAddress;\n    address public auctionMarketContractAddress;\n    address public tenderMarketContractAddress;\n\n    //--------------------------------------------------------------------\n    // MODIFIERS\n\n    modifier onlyAdmin() {\n        require(msg.sender == admin, \"only admin can call this\");\n        _;\n    }\n\n    //--------------------------------------------------------------------\n    // CONSTRUCTOR\n\n    constructor(address _ethUsdPriceFeed) {\n        admin = payable(msg.sender);\n        ethUsdPriceFeed = _ethUsdPriceFeed;\n    }\n\n    // Allow factory contract to recieve ether\n    receive() external payable {}\n\n    //--------------------------------------------------------------------\n    // FUNCTIONS\n\n    function setMarketContractAddress(address _mainMarketAddress)\n        external\n        onlyAdmin\n    {\n        marketContractAddress = _mainMarketAddress;\n    }\n    \n\n    function setStoreFactoryAddress(address _storeFactoryAddress)\n        external\n        onlyAdmin\n    {\n        storeFactoryAddress = _storeFactoryAddress;\n    }\n\n    function setAuctionMarketContractAddress(address _auctionsContractAddress)\n        external\n        onlyAdmin\n    {\n        auctionMarketContractAddress = _auctionsContractAddress;\n    }\n    function setTenderMarketContractAddress(address _tendersContractAddress)\n        external\n        onlyAdmin\n    {\n        tenderMarketContractAddress = _tendersContractAddress;\n    }\n\n    function changeMarketFee(uint256 _newFee) external onlyAdmin {\n        IMarket(marketContractAddress).changeFee(_newFee);\n    }\n\n    function changeAuctionFee(uint256 _newFee) external onlyAdmin {\n        IMarket(auctionMarketContractAddress).changeFee(_newFee);\n    }\n\n    function changeStoreFee(uint256 _newFee) external onlyAdmin {\n        IStoreFactory(storeFactoryAddress).changeCreateStoreFee(_newFee);\n    }\n\n    function withdrawBalance() public onlyAdmin {\n        admin.transfer(address(this).balance);\n    }\n\n    /**\n     * @dev Get current ETH/USD price using ChainLink price feed\n     * @return the ETH/USD price , the number of decimals used for this price\n     */\n\n    function getPrice() public returns (uint256, uint256) {\n        AggregatorV3Interface priceFeed = AggregatorV3Interface(\n            ethUsdPriceFeed\n        );\n        (, int256 price, , , ) = priceFeed.latestRoundData();\n        uint256 decimals = priceFeed.decimals();\n        return (uint256(price), decimals);\n    }\n\n    function convertUSDToETH(uint256 amountInUSD) public returns (uint256) {\n        (uint256 price, uint256 decimals) = getPrice();\n        uint256 convertedPrice = (amountInUSD * 10**decimals) / price;\n        return convertedPrice;\n    }\n}\n","sourcePath":"contracts/Administration.sol","deployment":{"address":"0x93BB803a8361031A590C4502a7d44540d4764fa4","chainid":"5777","blockHeight":304}}