{
  "abi": [
    {
      "inputs": [
        {
          "internalType": "address",
          "name": "_factory",
          "type": "address"
        },
        {
          "internalType": "address",
          "name": "_owner",
          "type": "address"
        },
        {
          "internalType": "string",
          "name": "_storeMetaData",
          "type": "string"
        }
      ],
      "stateMutability": "nonpayable",
      "type": "constructor"
    },
    {
      "inputs": [
        {
          "internalType": "uint256",
          "name": "amountInUSD",
          "type": "uint256"
        }
      ],
      "name": "_convertUSDToETH",
      "outputs": [
        {
          "internalType": "uint256",
          "name": "",
          "type": "uint256"
        }
      ],
      "stateMutability": "nonpayable",
      "type": "function"
    },
    {
      "inputs": [
        {
          "internalType": "string",
          "name": "_name",
          "type": "string"
        },
        {
          "internalType": "string",
          "name": "_description",
          "type": "string"
        },
        {
          "internalType": "string",
          "name": "_image",
          "type": "string"
        },
        {
          "internalType": "uint256",
          "name": "_price",
          "type": "uint256"
        },
        {
          "internalType": "uint256",
          "name": "_quantity",
          "type": "uint256"
        },
        {
          "internalType": "enum Store.Type",
          "name": "_type",
          "type": "uint8"
        }
      ],
      "name": "addProduct",
      "outputs": [],
      "stateMutability": "nonpayable",
      "type": "function"
    },
    {
      "inputs": [
        {
          "internalType": "uint256",
          "name": "_orderId",
          "type": "uint256"
        }
      ],
      "name": "cancelOrder",
      "outputs": [],
      "stateMutability": "nonpayable",
      "type": "function"
    },
    {
      "inputs": [
        {
          "internalType": "uint256",
          "name": "_orderId",
          "type": "uint256"
        }
      ],
      "name": "confirmRecieved",
      "outputs": [],
      "stateMutability": "nonpayable",
      "type": "function"
    },
    {
      "inputs": [
        {
          "internalType": "uint256",
          "name": "_productId",
          "type": "uint256"
        },
        {
          "internalType": "uint256",
          "name": "_quantity",
          "type": "uint256"
        }
      ],
      "name": "createBuyOrder",
      "outputs": [],
      "stateMutability": "payable",
      "type": "function"
    },
    {
      "inputs": [],
      "name": "factory",
      "outputs": [
        {
          "internalType": "address",
          "name": "",
          "type": "address"
        }
      ],
      "stateMutability": "view",
      "type": "function"
    },
    {
      "inputs": [
        {
          "internalType": "uint256",
          "name": "_orderId",
          "type": "uint256"
        }
      ],
      "name": "fillOrder",
      "outputs": [],
      "stateMutability": "nonpayable",
      "type": "function"
    },
    {
      "inputs": [
        {
          "internalType": "uint256",
          "name": "_orderId",
          "type": "uint256"
        },
        {
          "internalType": "string",
          "name": "_rating",
          "type": "string"
        },
        {
          "internalType": "string",
          "name": "_review",
          "type": "string"
        }
      ],
      "name": "leaveReview",
      "outputs": [],
      "stateMutability": "nonpayable",
      "type": "function"
    },
    {
      "inputs": [
        {
          "internalType": "uint256",
          "name": "_productId",
          "type": "uint256"
        }
      ],
      "name": "listProductReviews",
      "outputs": [
        {
          "components": [
            {
              "internalType": "address",
              "name": "buyer",
              "type": "address"
            },
            {
              "internalType": "string",
              "name": "rating",
              "type": "string"
            },
            {
              "internalType": "string",
              "name": "review",
              "type": "string"
            }
          ],
          "internalType": "struct Store.ProductReview[]",
          "name": "",
          "type": "tuple[]"
        }
      ],
      "stateMutability": "view",
      "type": "function"
    },
    {
      "inputs": [],
      "name": "listStoreOrders",
      "outputs": [
        {
          "components": [
            {
              "internalType": "uint256",
              "name": "orderId",
              "type": "uint256"
            },
            {
              "internalType": "uint256",
              "name": "productId",
              "type": "uint256"
            },
            {
              "internalType": "address payable",
              "name": "buyer",
              "type": "address"
            },
            {
              "internalType": "uint256",
              "name": "orderQuantity",
              "type": "uint256"
            },
            {
              "internalType": "uint256",
              "name": "orderTotalBuyPriceInETH",
              "type": "uint256"
            },
            {
              "internalType": "bool",
              "name": "hasBeenReviewed",
              "type": "bool"
            },
            {
              "internalType": "enum Store.Status",
              "name": "orderStatus",
              "type": "uint8"
            }
          ],
          "internalType": "struct Store.ProductOrder[]",
          "name": "",
          "type": "tuple[]"
        }
      ],
      "stateMutability": "view",
      "type": "function"
    },
    {
      "inputs": [],
      "name": "listStoreProducts",
      "outputs": [
        {
          "components": [
            {
              "internalType": "uint256",
              "name": "productId",
              "type": "uint256"
            },
            {
              "internalType": "string",
              "name": "name",
              "type": "string"
            },
            {
              "internalType": "string",
              "name": "description",
              "type": "string"
            },
            {
              "internalType": "string",
              "name": "image",
              "type": "string"
            },
            {
              "internalType": "uint256",
              "name": "priceInUSD",
              "type": "uint256"
            },
            {
              "internalType": "uint256",
              "name": "quantity",
              "type": "uint256"
            },
            {
              "internalType": "uint256",
              "name": "activeOrders",
              "type": "uint256"
            },
            {
              "internalType": "enum Store.Type",
              "name": "productType",
              "type": "uint8"
            },
            {
              "internalType": "uint256",
              "name": "listed_on",
              "type": "uint256"
            }
          ],
          "internalType": "struct Store.StoreProduct[]",
          "name": "",
          "type": "tuple[]"
        }
      ],
      "stateMutability": "view",
      "type": "function"
    },
    {
      "inputs": [],
      "name": "orderIds",
      "outputs": [
        {
          "internalType": "uint256",
          "name": "",
          "type": "uint256"
        }
      ],
      "stateMutability": "view",
      "type": "function"
    },
    {
      "inputs": [],
      "name": "owner",
      "outputs": [
        {
          "internalType": "address payable",
          "name": "",
          "type": "address"
        }
      ],
      "stateMutability": "view",
      "type": "function"
    },
    {
      "inputs": [],
      "name": "productIds",
      "outputs": [
        {
          "internalType": "uint256",
          "name": "",
          "type": "uint256"
        }
      ],
      "stateMutability": "view",
      "type": "function"
    },
    {
      "inputs": [
        {
          "internalType": "uint256",
          "name": "_productId",
          "type": "uint256"
        }
      ],
      "name": "removeProduct",
      "outputs": [],
      "stateMutability": "nonpayable",
      "type": "function"
    },
    {
      "inputs": [],
      "name": "storeMetaData",
      "outputs": [
        {
          "internalType": "string",
          "name": "",
          "type": "string"
        }
      ],
      "stateMutability": "view",
      "type": "function"
    },
    {
      "inputs": [
        {
          "internalType": "uint256",
          "name": "",
          "type": "uint256"
        }
      ],
      "name": "storeOrders",
      "outputs": [
        {
          "internalType": "uint256",
          "name": "orderId",
          "type": "uint256"
        },
        {
          "internalType": "uint256",
          "name": "productId",
          "type": "uint256"
        },
        {
          "internalType": "address payable",
          "name": "buyer",
          "type": "address"
        },
        {
          "internalType": "uint256",
          "name": "orderQuantity",
          "type": "uint256"
        },
        {
          "internalType": "uint256",
          "name": "orderTotalBuyPriceInETH",
          "type": "uint256"
        },
        {
          "internalType": "bool",
          "name": "hasBeenReviewed",
          "type": "bool"
        },
        {
          "internalType": "enum Store.Status",
          "name": "orderStatus",
          "type": "uint8"
        }
      ],
      "stateMutability": "view",
      "type": "function"
    },
    {
      "inputs": [
        {
          "internalType": "uint256",
          "name": "",
          "type": "uint256"
        }
      ],
      "name": "storeProducts",
      "outputs": [
        {
          "internalType": "uint256",
          "name": "productId",
          "type": "uint256"
        },
        {
          "internalType": "string",
          "name": "name",
          "type": "string"
        },
        {
          "internalType": "string",
          "name": "description",
          "type": "string"
        },
        {
          "internalType": "string",
          "name": "image",
          "type": "string"
        },
        {
          "internalType": "uint256",
          "name": "priceInUSD",
          "type": "uint256"
        },
        {
          "internalType": "uint256",
          "name": "quantity",
          "type": "uint256"
        },
        {
          "internalType": "uint256",
          "name": "activeOrders",
          "type": "uint256"
        },
        {
          "internalType": "enum Store.Type",
          "name": "productType",
          "type": "uint8"
        },
        {
          "internalType": "uint256",
          "name": "listed_on",
          "type": "uint256"
        }
      ],
      "stateMutability": "view",
      "type": "function"
    }
  ],
  "bytecode": "60806040523480156200001157600080fd5b50604051620031a1380380620031a18339810160408190526200003491620000ba565b600180546001600160a01b0319166001600160a01b03841617905560026200005d828262000243565b5050600080546001600160a01b0319166001600160a01b039390931692909217909155506200030f565b80516001600160a01b03811681146200009f57600080fd5b919050565b634e487b7160e01b600052604160045260246000fd5b600080600060608486031215620000d057600080fd5b620000db8462000087565b92506020620000ec81860162000087565b60408601519093506001600160401b03808211156200010a57600080fd5b818701915087601f8301126200011f57600080fd5b815181811115620001345762000134620000a4565b604051601f8201601f19908116603f011681019083821181831017156200015f576200015f620000a4565b816040528281528a868487010111156200017857600080fd5b600093505b828410156200019c57848401860151818501870152928501926200017d565b60008684830101528096505050505050509250925092565b600181811c90821680620001c957607f821691505b602082108103620001ea57634e487b7160e01b600052602260045260246000fd5b50919050565b601f8211156200023e57600081815260208120601f850160051c81016020861015620002195750805b601f850160051c820191505b818110156200023a5782815560010162000225565b5050505b505050565b81516001600160401b038111156200025f576200025f620000a4565b6200027781620002708454620001b4565b84620001f0565b602080601f831160018114620002af5760008415620002965750858301515b600019600386901b1c1916600185901b1785556200023a565b600085815260208120601f198616915b82811015620002e057888601518255948401946001909101908401620002bf565b5085821015620002ff5787850151600019600388901b60f8161c191681555b5050505050600190811b01905550565b612e82806200031f6000396000f3fe6080604052600436106101095760003560e01c8063aa57511d11610095578063cad7340611610064578063cad73406146102e0578063d30e1c9c14610302578063d83ed88114610322578063e36fe83014610342578063e9b319a21461037757600080fd5b8063aa57511d14610257578063befd2faa1461026d578063c45a01551461028d578063c4aaf762146102ad57600080fd5b806362dd4b48116100dc57806362dd4b481461019957806367b830ad146101bd57806376ab814f146101dd5780638da5cb5b146101fd578063a2d948721461023557600080fd5b80632cb4f4b71461010e5780633c2a919114610123578063514fcac7146101595780635ee95cae14610179575b600080fd5b61012161011c366004612647565b610399565b005b34801561012f57600080fd5b5061014361013e366004612669565b610b5c565b60405161015091906126c8565b60405180910390f35b34801561016557600080fd5b50610121610174366004612669565b610d08565b34801561018557600080fd5b50610121610194366004612669565b610eec565b3480156101a557600080fd5b506101af60045481565b604051908152602001610150565b3480156101c957600080fd5b506101216101d8366004612669565b611231565b3480156101e957600080fd5b506101216101f8366004612807565b61175b565b34801561020957600080fd5b5060015461021d906001600160a01b031681565b6040516001600160a01b039091168152602001610150565b34801561024157600080fd5b5061024a6119ff565b604051610150919061289e565b34801561026357600080fd5b506101af60035481565b34801561027957600080fd5b5061012161028836600461297e565b611c7a565b34801561029957600080fd5b5060005461021d906001600160a01b031681565b3480156102b957600080fd5b506102cd6102c8366004612669565b611eee565b6040516101509796959493929190612a41565b3480156102ec57600080fd5b506102f5611f4a565b6040516101509190612a8d565b34801561030e57600080fd5b506101af61031d366004612669565b612020565b34801561032e57600080fd5b5061012161033d366004612669565b612096565b34801561034e57600080fd5b5061036261035d366004612669565b61236c565b60405161015099989796959493929190612b26565b34801561038357600080fd5b5061038c612563565b6040516101509190612b9f565b6000600583815481106103ae576103ae612bb9565b906000526020600020906009020160405180610120016040529081600082015481526020016001820180546103e290612bcf565b80601f016020809104026020016040519081016040528092919081815260200182805461040e90612bcf565b801561045b5780601f106104305761010080835404028352916020019161045b565b820191906000526020600020905b81548152906001019060200180831161043e57829003601f168201915b5050505050815260200160028201805461047490612bcf565b80601f01602080910402602001604051908101604052809291908181526020018280546104a090612bcf565b80156104ed5780601f106104c2576101008083540402835291602001916104ed565b820191906000526020600020905b8154815290600101906020018083116104d057829003601f168201915b5050505050815260200160038201805461050690612bcf565b80601f016020809104026020016040519081016040528092919081815260200182805461053290612bcf565b801561057f5780601f106105545761010080835404028352916020019161057f565b820191906000526020600020905b81548152906001019060200180831161056257829003601f168201915b5050509183525050600482015460208201526005820154604082015260068201546060820152600782015460809091019060ff1660018111156105c4576105c4612874565b60018111156105d5576105d5612874565b8152602001600882015481525050905060006105f48260800151612020565b905060008260e00151600181111561060e5761060e612874565b0361086b578160a001518311156106635760405162461bcd60e51b8152602060048201526014602482015273756e737566666973616e74207175616e7469747960601b60448201526064015b60405180910390fd5b61066d8382612c1f565b34146106b05760405162461bcd60e51b81526020600482015260126024820152711d5b9cdd59999a5cd85b9d08185b5bdd5b9d60721b604482015260640161065a565b60006040518060e001604052806004548152602001868152602001336001600160a01b0316815260200185815260200185846106ec9190612c1f565b8152600060208201819052604090910152600680546001810182556000829052825191027ff652222313e28459528d920b65115c16c04f3efc82aaedc97be59f3f377c0d3f810191825560208301517ff652222313e28459528d920b65115c16c04f3efc82aaedc97be59f3f377c0d4082015560408301517ff652222313e28459528d920b65115c16c04f3efc82aaedc97be59f3f377c0d41820180546001600160a01b039092166001600160a01b031990921691909117905560608301517ff652222313e28459528d920b65115c16c04f3efc82aaedc97be59f3f377c0d4282015560808301517ff652222313e28459528d920b65115c16c04f3efc82aaedc97be59f3f377c0d4382015560a08301517ff652222313e28459528d920b65115c16c04f3efc82aaedc97be59f3f377c0d44909101805491151560ff1983168117825560c085015194955085949261ff001990911661ffff199091161761010083600281111561085e5761085e612874565b0217905550505050610a6e565b8034146108af5760405162461bcd60e51b81526020600482015260126024820152711d5b9cdd59999a5cd85b9d08185b5bdd5b9d60721b604482015260640161065a565b60006040518060e001604052806004548152602001868152602001336001600160a01b03168152602001600081526020018381526020016000151581526020016000600281111561090257610902612874565b9052600680546001810182556000829052825191027ff652222313e28459528d920b65115c16c04f3efc82aaedc97be59f3f377c0d3f810191825560208301517ff652222313e28459528d920b65115c16c04f3efc82aaedc97be59f3f377c0d4082015560408301517ff652222313e28459528d920b65115c16c04f3efc82aaedc97be59f3f377c0d41820180546001600160a01b039092166001600160a01b031990921691909117905560608301517ff652222313e28459528d920b65115c16c04f3efc82aaedc97be59f3f377c0d4282015560808301517ff652222313e28459528d920b65115c16c04f3efc82aaedc97be59f3f377c0d4382015560a08301517ff652222313e28459528d920b65115c16c04f3efc82aaedc97be59f3f377c0d44909101805491151560ff1983168117825560c085015194955085949261ff001990911661ffff1990911617610100836002811115610a6557610a65612874565b02179055505050505b60c08201805190610a7e82612c36565b815250508160058581548110610a9657610a96612bb9565b9060005260206000209060090201600082015181600001556020820151816001019081610ac39190612c9a565b5060408201516002820190610ad89082612c9a565b5060608201516003820190610aed9082612c9a565b506080820151600482015560a0820151600582015560c0820151600682015560e082015160078201805460ff191660018381811115610b2e57610b2e612874565b0217905550610100919091015160089091015560048054906000610b5183612c36565b919050555050505050565b606060076000838152602001908152602001600020805480602002602001604051908101604052809291908181526020016000905b82821015610cfd57600084815260209081902060408051606081019091526003850290910180546001600160a01b031682526001810180549293919291840191610bda90612bcf565b80601f0160208091040260200160405190810160405280929190818152602001828054610c0690612bcf565b8015610c535780601f10610c2857610100808354040283529160200191610c53565b820191906000526020600020905b815481529060010190602001808311610c3657829003601f168201915b50505050508152602001600282018054610c6c90612bcf565b80601f0160208091040260200160405190810160405280929190818152602001828054610c9890612bcf565b8015610ce55780601f10610cba57610100808354040283529160200191610ce5565b820191906000526020600020905b815481529060010190602001808311610cc857829003601f168201915b50505050508152505081526020019060010190610b91565b505050509050919050565b600060068281548110610d1d57610d1d612bb9565b60009182526020918290206040805160e0810182526006909302909101805483526001810154938301939093526002808401546001600160a01b0316918301919091526003830154606083015260048301546080830152600583015460ff808216151560a085015292939260c08501926101009092041690811115610da457610da4612874565b6002811115610db557610db5612874565b81525050905080604001516001600160a01b0316336001600160a01b0316148015610df5575060008160c001516002811115610df357610df3612874565b145b610e115760405162461bcd60e51b815260040161065a90612d5a565b608081015160408083015190516001600160a01b039091169082156108fc029083906000818181858888f19350505050158015610e52573d6000803e3d6000fd5b5060068381548110610e6657610e66612bb9565b600091825260208083206006909202909101828155600181018390556002810180546001600160a01b03191690556003810183905560048101929092556005918201805461ffff1916905583015181548110610ec457610ec4612bb9565b600091825260208220600660099092020101805491610ee283612d88565b9190505550505050565b6001546001600160a01b03163314610f165760405162461bcd60e51b815260040161065a90612d9f565b600354811115610f5b5760405162461bcd60e51b815260206004820152601060248201526f1ddc9bdb99c81c1c9bd91d58dd081a5960821b604482015260640161065a565b600060058281548110610f7057610f70612bb9565b90600052602060002090600902016040518061012001604052908160008201548152602001600182018054610fa490612bcf565b80601f0160208091040260200160405190810160405280929190818152602001828054610fd090612bcf565b801561101d5780601f10610ff25761010080835404028352916020019161101d565b820191906000526020600020905b81548152906001019060200180831161100057829003601f168201915b5050505050815260200160028201805461103690612bcf565b80601f016020809104026020016040519081016040528092919081815260200182805461106290612bcf565b80156110af5780601f10611084576101008083540402835291602001916110af565b820191906000526020600020905b81548152906001019060200180831161109257829003601f168201915b505050505081526020016003820180546110c890612bcf565b80601f01602080910402602001604051908101604052809291908181526020018280546110f490612bcf565b80156111415780601f1061111657610100808354040283529160200191611141565b820191906000526020600020905b81548152906001019060200180831161112457829003601f168201915b5050509183525050600482015460208201526005820154604082015260068201546060820152600782015460809091019060ff16600181111561118657611186612874565b600181111561119757611197612874565b815260200160088201548152505090508060c0015160000361122d57600582815481106111c6576111c6612bb9565b600091825260208220600990910201818155906111e660018301826125f1565b6111f46002830160006125f1565b6112026003830160006125f1565b50600060048201819055600582018190556006820181905560078201805460ff191690556008909101555b5050565b6001546001600160a01b0316331461125b5760405162461bcd60e51b815260040161065a90612d9f565b600454811061127c5760405162461bcd60e51b815260040161065a90612dd6565b60006006828154811061129157611291612bb9565b60009182526020918290206040805160e0810182526006909302909101805483526001810154938301939093526002808401546001600160a01b0316918301919091526003830154606083015260048301546080830152600583015460ff808216151560a085015292939260c0850192610100909204169081111561131857611318612874565b600281111561132957611329612874565b905250905060008160c00151600281111561134657611346612874565b146113635760405162461bcd60e51b815260040161065a90612d5a565b6000600582602001518154811061137c5761137c612bb9565b906000526020600020906009020160405180610120016040529081600082015481526020016001820180546113b090612bcf565b80601f01602080910402602001604051908101604052809291908181526020018280546113dc90612bcf565b80156114295780601f106113fe57610100808354040283529160200191611429565b820191906000526020600020905b81548152906001019060200180831161140c57829003601f168201915b5050505050815260200160028201805461144290612bcf565b80601f016020809104026020016040519081016040528092919081815260200182805461146e90612bcf565b80156114bb5780601f10611490576101008083540402835291602001916114bb565b820191906000526020600020905b81548152906001019060200180831161149e57829003601f168201915b505050505081526020016003820180546114d490612bcf565b80601f016020809104026020016040519081016040528092919081815260200182805461150090612bcf565b801561154d5780601f106115225761010080835404028352916020019161154d565b820191906000526020600020905b81548152906001019060200180831161153057829003601f168201915b5050509183525050600482015460208201526005820154604082015260068201546060820152600782015460809091019060ff16600181111561159257611592612874565b60018111156115a3576115a3612874565b8152602001600882015481525050905081606001518160a0018181516115c99190612dfe565b905250600160c083015260068054839190859081106115ea576115ea612bb9565b600091825260209182902083516006909202019081559082015160018201556040820151600280830180546001600160a01b039093166001600160a01b031990931692909217909155606083015160038301556080830151600483015560a083015160058301805491151560ff1983168117825560c086015193919261ff001990911661ffff19909116179061010090849081111561168b5761168b612874565b02179055509050508060058360200151815481106116ab576116ab612bb9565b90600052602060002090600902016000820151816000015560208201518160010190816116d89190612c9a565b50604082015160028201906116ed9082612c9a565b50606082015160038201906117029082612c9a565b506080820151600482015560a0820151600582015560c0820151600682015560e082015160078201805460ff19166001838181111561174357611743612874565b02179055506101008201518160080155905050505050565b600454831061177c5760405162461bcd60e51b815260040161065a90612dd6565b60006006848154811061179157611791612bb9565b60009182526020918290206040805160e0810182526006909302909101805483526001810154938301939093526002808401546001600160a01b0316918301919091526003830154606083015260048301546080830152600583015460ff808216151560a085015292939260c0850192610100909204169081111561181857611818612874565b600281111561182957611829612874565b905250905060028160c00151600281111561184657611846612874565b146118635760405162461bcd60e51b815260040161065a90612d5a565b8060a00151156118a85760405162461bcd60e51b815260206004820152601060248201526f185b1c9958591e481c995d9a595dd95960821b604482015260640161065a565b6020818101516000908152600782526040808220815160608101835233815280850188815292810187905281546001808201845592855294909320835160039095020180546001600160a01b0319166001600160a01b0390951694909417845590519192919082019061191b9082612c9a565b50604082015160028201906119309082612c9a565b5050600160a083015250600680548291908690811061195157611951612bb9565b600091825260209182902083516006909202019081559082015160018201556040820151600280830180546001600160a01b039093166001600160a01b031990931692909217909155606083015160038301556080830151600483015560a083015160058301805491151560ff1983168117825560c086015193919261ff001990911661ffff1990911617906101009084908111156119f2576119f2612874565b0217905550505050505050565b60606005805480602002602001604051908101604052809291908181526020016000905b82821015611c7157838290600052602060002090600902016040518061012001604052908160008201548152602001600182018054611a6190612bcf565b80601f0160208091040260200160405190810160405280929190818152602001828054611a8d90612bcf565b8015611ada5780601f10611aaf57610100808354040283529160200191611ada565b820191906000526020600020905b815481529060010190602001808311611abd57829003601f168201915b50505050508152602001600282018054611af390612bcf565b80601f0160208091040260200160405190810160405280929190818152602001828054611b1f90612bcf565b8015611b6c5780601f10611b4157610100808354040283529160200191611b6c565b820191906000526020600020905b815481529060010190602001808311611b4f57829003601f168201915b50505050508152602001600382018054611b8590612bcf565b80601f0160208091040260200160405190810160405280929190818152602001828054611bb190612bcf565b8015611bfe5780601f10611bd357610100808354040283529160200191611bfe565b820191906000526020600020905b815481529060010190602001808311611be157829003601f168201915b5050509183525050600482015460208201526005820154604082015260068201546060820152600782015460809091019060ff166001811115611c4357611c43612874565b6001811115611c5457611c54612874565b815260200160088201548152505081526020019060010190611a23565b50505050905090565b6001546001600160a01b03163314611ca45760405162461bcd60e51b815260040161065a90612d9f565b6000816001811115611cb857611cb8612874565b03611dc957600560405180610120016040528060035481526020018881526020018781526020018681526020018581526020018481526020016000815260200160006001811115611d0b57611d0b612874565b8152426020918201528254600181810185556000948552938290208351600990920201908155908201519192909190820190611d479082612c9a565b5060408201516002820190611d5c9082612c9a565b5060608201516003820190611d719082612c9a565b506080820151600482015560a0820151600582015560c0820151600682015560e082015160078201805460ff191660018381811115611db257611db2612874565b021790555061010082015181600801555050611ed1565b600560405180610120016040528060035481526020018881526020018781526020018681526020018581526020016001815260200160008152602001600180811115611e1757611e17612874565b8152426020918201528254600181810185556000948552938290208351600990920201908155908201519192909190820190611e539082612c9a565b5060408201516002820190611e689082612c9a565b5060608201516003820190611e7d9082612c9a565b506080820151600482015560a0820151600582015560c0820151600682015560e082015160078201805460ff191660018381811115611ebe57611ebe612874565b0217905550610100820151816008015550505b60038054906000611ee183612c36565b9190505550505050505050565b60068181548110611efe57600080fd5b600091825260209091206006909102018054600182015460028301546003840154600485015460059095015493955091936001600160a01b039091169260ff8082169161010090041687565b60606006805480602002602001604051908101604052809291908181526020016000905b82821015611c715760008481526020908190206040805160e08101825260068602909201805483526001810154938301939093526002808401546001600160a01b0316918301919091526003830154606083015260048301546080830152600583015460ff808216151560a085015292939260c08501926101009092041690811115611ffc57611ffc612874565b600281111561200d5761200d612874565b8152505081526020019060010190611f6e565b6000805460405163077c1b9760e31b8152600481018490526001600160a01b0390911690633be0dcb8906024016020604051808303816000875af115801561206c573d6000803e3d6000fd5b505050506040513d601f19601f820116820180604052508101906120909190612e11565b92915050565b60045481106120b75760405162461bcd60e51b815260040161065a90612dd6565b6000600682815481106120cc576120cc612bb9565b60009182526020918290206040805160e0810182526006909302909101805483526001810154938301939093526002808401546001600160a01b0316918301919091526003830154606083015260048301546080830152600583015460ff808216151560a085015292939260c0850192610100909204169081111561215357612153612874565b600281111561216457612164612874565b81525050905080604001516001600160a01b0316336001600160a01b03161480156121a4575060018160c0015160028111156121a2576121a2612874565b145b6121c05760405162461bcd60e51b815260040161065a90612d5a565b608081015160006103e86121d5600384612c1f565b6121df9190612e2a565b905060006121ed8284612dfe565b600260c08601526006805491925085918790811061220d5761220d612bb9565b600091825260209182902083516006909202019081559082015160018201556040820151600280830180546001600160a01b039093166001600160a01b031990931692909217909155606083015160038301556080830151600483015560a083015160058301805491151560ff1983168117825560c086015193919261ff001990911661ffff1990911617906101009084908111156122ae576122ae612874565b021790555090505060058460200151815481106122cd576122cd612bb9565b6000918252602082206006600990920201018054916122eb83612d88565b90915550506001546040516001600160a01b039091169082156108fc029083906000818181858888f1935050505015801561232a573d6000803e3d6000fd5b50600080546040516001600160a01b039091169184156108fc02918591818181858888f19350505050158015612364573d6000803e3d6000fd5b505050505050565b6005818154811061237c57600080fd5b600091825260209091206009909102018054600182018054919350906123a190612bcf565b80601f01602080910402602001604051908101604052809291908181526020018280546123cd90612bcf565b801561241a5780601f106123ef5761010080835404028352916020019161241a565b820191906000526020600020905b8154815290600101906020018083116123fd57829003601f168201915b50505050509080600201805461242f90612bcf565b80601f016020809104026020016040519081016040528092919081815260200182805461245b90612bcf565b80156124a85780601f1061247d576101008083540402835291602001916124a8565b820191906000526020600020905b81548152906001019060200180831161248b57829003601f168201915b5050505050908060030180546124bd90612bcf565b80601f01602080910402602001604051908101604052809291908181526020018280546124e990612bcf565b80156125365780601f1061250b57610100808354040283529160200191612536565b820191906000526020600020905b81548152906001019060200180831161251957829003601f168201915b505050506004830154600584015460068501546007860154600890960154949592949193509160ff169089565b6002805461257090612bcf565b80601f016020809104026020016040519081016040528092919081815260200182805461259c90612bcf565b80156125e95780601f106125be576101008083540402835291602001916125e9565b820191906000526020600020905b8154815290600101906020018083116125cc57829003601f168201915b505050505081565b5080546125fd90612bcf565b6000825580601f1061260d575050565b601f01602090049060005260206000209081019061262b919061262e565b50565b5b80821115612643576000815560010161262f565b5090565b6000806040838503121561265a57600080fd5b50508035926020909101359150565b60006020828403121561267b57600080fd5b5035919050565b6000815180845260005b818110156126a85760208185018101518683018201520161268c565b506000602082860101526020601f19601f83011685010191505092915050565b60006020808301818452808551808352604092508286019150828160051b87010184880160005b8381101561275657888303603f19018552815180516001600160a01b031684528781015160608986018190529061272882870182612682565b915050878201519150848103888601526127428183612682565b9689019694505050908601906001016126ef565b509098975050505050505050565b634e487b7160e01b600052604160045260246000fd5b600082601f83011261278b57600080fd5b813567ffffffffffffffff808211156127a6576127a6612764565b604051601f8301601f19908116603f011681019082821181831017156127ce576127ce612764565b816040528381528660208588010111156127e757600080fd5b836020870160208301376000602085830101528094505050505092915050565b60008060006060848603121561281c57600080fd5b83359250602084013567ffffffffffffffff8082111561283b57600080fd5b6128478783880161277a565b9350604086013591508082111561285d57600080fd5b5061286a8682870161277a565b9150509250925092565b634e487b7160e01b600052602160045260246000fd5b6002811061289a5761289a612874565b9052565b60006020808301818452808551808352604092508286019150828160051b87010184880160005b8381101561275657603f1989840301855281516101208151855288820151818a8701526128f482870182612682565b915050878201518582038987015261290c8282612682565b915050606080830151868303828801526129268382612682565b92505050608080830151818701525060a080830151818701525060c080830151818701525060e08083015161295d8288018261288a565b505061010091820151949091019390935293860193908601906001016128c5565b60008060008060008060c0878903121561299757600080fd5b863567ffffffffffffffff808211156129af57600080fd5b6129bb8a838b0161277a565b975060208901359150808211156129d157600080fd5b6129dd8a838b0161277a565b965060408901359150808211156129f357600080fd5b50612a0089828a0161277a565b945050606087013592506080870135915060a087013560028110612a2357600080fd5b809150509295509295509295565b6003811061289a5761289a612874565b878152602081018790526001600160a01b0386166040820152606081018590526080810184905282151560a082015260e08101612a8160c0830184612a31565b98975050505050505050565b602080825282518282018190526000919060409081850190868401855b82811015612b19578151805185528681015187860152858101516001600160a01b031686860152606080820151908601526080808201519086015260a08082015115159086015260c09081015190612b0481870183612a31565b505060e0939093019290850190600101612aaa565b5091979650505050505050565b60006101208b8352806020840152612b408184018c612682565b90508281036040840152612b54818b612682565b90508281036060840152612b68818a612682565b9150508660808301528560a08301528460c0830152612b8a60e083018561288a565b826101008301529a9950505050505050505050565b602081526000612bb26020830184612682565b9392505050565b634e487b7160e01b600052603260045260246000fd5b600181811c90821680612be357607f821691505b602082108103612c0357634e487b7160e01b600052602260045260246000fd5b50919050565b634e487b7160e01b600052601160045260246000fd5b808202811582820484141761209057612090612c09565b600060018201612c4857612c48612c09565b5060010190565b601f821115612c9557600081815260208120601f850160051c81016020861015612c765750805b601f850160051c820191505b8181101561236457828155600101612c82565b505050565b815167ffffffffffffffff811115612cb457612cb4612764565b612cc881612cc28454612bcf565b84612c4f565b602080601f831160018114612cfd5760008415612ce55750858301515b600019600386901b1c1916600185901b178555612364565b600085815260208120601f198616915b82811015612d2c57888601518255948401946001909101908401612d0d565b5085821015612d4a5787850151600019600388901b60f8161c191681555b5050505050600190811b01905550565b602080825260149082015273696e76616c6964206f726465722073746174757360601b604082015260600190565b600081612d9757612d97612c09565b506000190190565b60208082526018908201527f6f6e6c79206f776e65722063616e2063616c6c20746869730000000000000000604082015260600190565b6020808252600e908201526d1ddc9bdb99c81bdc99195c881a5960921b604082015260600190565b8181038181111561209057612090612c09565b600060208284031215612e2357600080fd5b5051919050565b600082612e4757634e487b7160e01b600052601260045260246000fd5b50049056fea26469706673582212204b0e0e5828d8e022643cc0bcb26a06ca361be7c0de23c98cc20571dc7ac3d1e064736f6c63430008110033",
  "bytecodeSha1": "5cad38ad34bfff19cb6de3115d26d9d4ea03868e",
  "compiler": {
    "evm_version": "istanbul",
    "optimizer": {
      "enabled": true,
      "runs": 200
    },
    "version": "0.8.17+commit.8df45f5f"
  },
  "contractName": "Store",
  "language": "Solidity",
  "natspec": {
    "kind": "dev",
    "methods": {},
    "version": 1
  },
  "opcodes": "PUSH1 0x80 PUSH1 0x40 MSTORE PUSH1 0x4 CALLDATASIZE LT PUSH2 0x109 JUMPI PUSH1 0x0 CALLDATALOAD PUSH1 0xE0 SHR DUP1 PUSH4 0xAA57511D GT PUSH2 0x95 JUMPI DUP1 PUSH4 0xCAD73406 GT PUSH2 0x64 JUMPI DUP1 PUSH4 0xCAD73406 EQ PUSH2 0x2E0 JUMPI DUP1 PUSH4 0xD30E1C9C EQ PUSH2 0x302 JUMPI DUP1 PUSH4 0xD83ED881 EQ PUSH2 0x322 JUMPI DUP1 PUSH4 0xE36FE830 EQ PUSH2 0x342 JUMPI DUP1 PUSH4 0xE9B319A2 EQ PUSH2 0x377 JUMPI PUSH1 0x0 DUP1 REVERT JUMPDEST DUP1 PUSH4 0xAA57511D EQ PUSH2 0x257 JUMPI DUP1 PUSH4 0xBEFD2FAA EQ PUSH2 0x26D JUMPI DUP1 PUSH4 0xC45A0155 EQ PUSH2 0x28D JUMPI DUP1 PUSH4 0xC4AAF762 EQ PUSH2 0x2AD JUMPI PUSH1 0x0 DUP1 REVERT JUMPDEST DUP1 PUSH4 0x62DD4B48 GT PUSH2 0xDC JUMPI DUP1 PUSH4 0x62DD4B48 EQ PUSH2 0x199 JUMPI DUP1 PUSH4 0x67B830AD EQ PUSH2 0x1BD JUMPI DUP1 PUSH4 0x76AB814F EQ PUSH2 0x1DD JUMPI DUP1 PUSH4 0x8DA5CB5B EQ PUSH2 0x1FD JUMPI DUP1 PUSH4 0xA2D94872 EQ PUSH2 0x235 JUMPI PUSH1 0x0 DUP1 REVERT JUMPDEST DUP1 PUSH4 0x2CB4F4B7 EQ PUSH2 0x10E JUMPI DUP1 PUSH4 0x3C2A9191 EQ PUSH2 0x123 JUMPI DUP1 PUSH4 0x514FCAC7 EQ PUSH2 0x159 JUMPI DUP1 PUSH4 0x5EE95CAE EQ PUSH2 0x179 JUMPI JUMPDEST PUSH1 0x0 DUP1 REVERT JUMPDEST PUSH2 0x121 PUSH2 0x11C CALLDATASIZE PUSH1 0x4 PUSH2 0x2647 JUMP JUMPDEST PUSH2 0x399 JUMP JUMPDEST STOP JUMPDEST CALLVALUE DUP1 ISZERO PUSH2 0x12F JUMPI PUSH1 0x0 DUP1 REVERT JUMPDEST POP PUSH2 0x143 PUSH2 0x13E CALLDATASIZE PUSH1 0x4 PUSH2 0x2669 JUMP JUMPDEST PUSH2 0xB5C JUMP JUMPDEST PUSH1 0x40 MLOAD PUSH2 0x150 SWAP2 SWAP1 PUSH2 0x26C8 JUMP JUMPDEST PUSH1 0x40 MLOAD DUP1 SWAP2 SUB SWAP1 RETURN JUMPDEST CALLVALUE DUP1 ISZERO PUSH2 0x165 JUMPI PUSH1 0x0 DUP1 REVERT JUMPDEST POP PUSH2 0x121 PUSH2 0x174 CALLDATASIZE PUSH1 0x4 PUSH2 0x2669 JUMP JUMPDEST PUSH2 0xD08 JUMP JUMPDEST CALLVALUE DUP1 ISZERO PUSH2 0x185 JUMPI PUSH1 0x0 DUP1 REVERT JUMPDEST POP PUSH2 0x121 PUSH2 0x194 CALLDATASIZE PUSH1 0x4 PUSH2 0x2669 JUMP JUMPDEST PUSH2 0xEEC JUMP JUMPDEST CALLVALUE DUP1 ISZERO PUSH2 0x1A5 JUMPI PUSH1 0x0 DUP1 REVERT JUMPDEST POP PUSH2 0x1AF PUSH1 0x4 SLOAD DUP2 JUMP JUMPDEST PUSH1 0x40 MLOAD SWAP1 DUP2 MSTORE PUSH1 0x20 ADD PUSH2 0x150 JUMP JUMPDEST CALLVALUE DUP1 ISZERO PUSH2 0x1C9 JUMPI PUSH1 0x0 DUP1 REVERT JUMPDEST POP PUSH2 0x121 PUSH2 0x1D8 CALLDATASIZE PUSH1 0x4 PUSH2 0x2669 JUMP JUMPDEST PUSH2 0x1231 JUMP JUMPDEST CALLVALUE DUP1 ISZERO PUSH2 0x1E9 JUMPI PUSH1 0x0 DUP1 REVERT JUMPDEST POP PUSH2 0x121 PUSH2 0x1F8 CALLDATASIZE PUSH1 0x4 PUSH2 0x2807 JUMP JUMPDEST PUSH2 0x175B JUMP JUMPDEST CALLVALUE DUP1 ISZERO PUSH2 0x209 JUMPI PUSH1 0x0 DUP1 REVERT JUMPDEST POP PUSH1 0x1 SLOAD PUSH2 0x21D SWAP1 PUSH1 0x1 PUSH1 0x1 PUSH1 0xA0 SHL SUB AND DUP2 JUMP JUMPDEST PUSH1 0x40 MLOAD PUSH1 0x1 PUSH1 0x1 PUSH1 0xA0 SHL SUB SWAP1 SWAP2 AND DUP2 MSTORE PUSH1 0x20 ADD PUSH2 0x150 JUMP JUMPDEST CALLVALUE DUP1 ISZERO PUSH2 0x241 JUMPI PUSH1 0x0 DUP1 REVERT JUMPDEST POP PUSH2 0x24A PUSH2 0x19FF JUMP JUMPDEST PUSH1 0x40 MLOAD PUSH2 0x150 SWAP2 SWAP1 PUSH2 0x289E JUMP JUMPDEST CALLVALUE DUP1 ISZERO PUSH2 0x263 JUMPI PUSH1 0x0 DUP1 REVERT JUMPDEST POP PUSH2 0x1AF PUSH1 0x3 SLOAD DUP2 JUMP JUMPDEST CALLVALUE DUP1 ISZERO PUSH2 0x279 JUMPI PUSH1 0x0 DUP1 REVERT JUMPDEST POP PUSH2 0x121 PUSH2 0x288 CALLDATASIZE PUSH1 0x4 PUSH2 0x297E JUMP JUMPDEST PUSH2 0x1C7A JUMP JUMPDEST CALLVALUE DUP1 ISZERO PUSH2 0x299 JUMPI PUSH1 0x0 DUP1 REVERT JUMPDEST POP PUSH1 0x0 SLOAD PUSH2 0x21D SWAP1 PUSH1 0x1 PUSH1 0x1 PUSH1 0xA0 SHL SUB AND DUP2 JUMP JUMPDEST CALLVALUE DUP1 ISZERO PUSH2 0x2B9 JUMPI PUSH1 0x0 DUP1 REVERT JUMPDEST POP PUSH2 0x2CD PUSH2 0x2C8 CALLDATASIZE PUSH1 0x4 PUSH2 0x2669 JUMP JUMPDEST PUSH2 0x1EEE JUMP JUMPDEST PUSH1 0x40 MLOAD PUSH2 0x150 SWAP8 SWAP7 SWAP6 SWAP5 SWAP4 SWAP3 SWAP2 SWAP1 PUSH2 0x2A41 JUMP JUMPDEST CALLVALUE DUP1 ISZERO PUSH2 0x2EC JUMPI PUSH1 0x0 DUP1 REVERT JUMPDEST POP PUSH2 0x2F5 PUSH2 0x1F4A JUMP JUMPDEST PUSH1 0x40 MLOAD PUSH2 0x150 SWAP2 SWAP1 PUSH2 0x2A8D JUMP JUMPDEST CALLVALUE DUP1 ISZERO PUSH2 0x30E JUMPI PUSH1 0x0 DUP1 REVERT JUMPDEST POP PUSH2 0x1AF PUSH2 0x31D CALLDATASIZE PUSH1 0x4 PUSH2 0x2669 JUMP JUMPDEST PUSH2 0x2020 JUMP JUMPDEST CALLVALUE DUP1 ISZERO PUSH2 0x32E JUMPI PUSH1 0x0 DUP1 REVERT JUMPDEST POP PUSH2 0x121 PUSH2 0x33D CALLDATASIZE PUSH1 0x4 PUSH2 0x2669 JUMP JUMPDEST PUSH2 0x2096 JUMP JUMPDEST CALLVALUE DUP1 ISZERO PUSH2 0x34E JUMPI PUSH1 0x0 DUP1 REVERT JUMPDEST POP PUSH2 0x362 PUSH2 0x35D CALLDATASIZE PUSH1 0x4 PUSH2 0x2669 JUMP JUMPDEST PUSH2 0x236C JUMP JUMPDEST PUSH1 0x40 MLOAD PUSH2 0x150 SWAP10 SWAP9 SWAP8 SWAP7 SWAP6 SWAP5 SWAP4 SWAP3 SWAP2 SWAP1 PUSH2 0x2B26 JUMP JUMPDEST CALLVALUE DUP1 ISZERO PUSH2 0x383 JUMPI PUSH1 0x0 DUP1 REVERT JUMPDEST POP PUSH2 0x38C PUSH2 0x2563 JUMP JUMPDEST PUSH1 0x40 MLOAD PUSH2 0x150 SWAP2 SWAP1 PUSH2 0x2B9F JUMP JUMPDEST PUSH1 0x0 PUSH1 0x5 DUP4 DUP2 SLOAD DUP2 LT PUSH2 0x3AE JUMPI PUSH2 0x3AE PUSH2 0x2BB9 JUMP JUMPDEST SWAP1 PUSH1 0x0 MSTORE PUSH1 0x20 PUSH1 0x0 KECCAK256 SWAP1 PUSH1 0x9 MUL ADD PUSH1 0x40 MLOAD DUP1 PUSH2 0x120 ADD PUSH1 0x40 MSTORE SWAP1 DUP2 PUSH1 0x0 DUP3 ADD SLOAD DUP2 MSTORE PUSH1 0x20 ADD PUSH1 0x1 DUP3 ADD DUP1 SLOAD PUSH2 0x3E2 SWAP1 PUSH2 0x2BCF JUMP JUMPDEST DUP1 PUSH1 0x1F ADD PUSH1 0x20 DUP1 SWAP2 DIV MUL PUSH1 0x20 ADD PUSH1 0x40 MLOAD SWAP1 DUP2 ADD PUSH1 0x40 MSTORE DUP1 SWAP3 SWAP2 SWAP1 DUP2 DUP2 MSTORE PUSH1 0x20 ADD DUP3 DUP1 SLOAD PUSH2 0x40E SWAP1 PUSH2 0x2BCF JUMP JUMPDEST DUP1 ISZERO PUSH2 0x45B JUMPI DUP1 PUSH1 0x1F LT PUSH2 0x430 JUMPI PUSH2 0x100 DUP1 DUP4 SLOAD DIV MUL DUP4 MSTORE SWAP2 PUSH1 0x20 ADD SWAP2 PUSH2 0x45B JUMP JUMPDEST DUP3 ADD SWAP2 SWAP1 PUSH1 0x0 MSTORE PUSH1 0x20 PUSH1 0x0 KECCAK256 SWAP1 JUMPDEST DUP2 SLOAD DUP2 MSTORE SWAP1 PUSH1 0x1 ADD SWAP1 PUSH1 0x20 ADD DUP1 DUP4 GT PUSH2 0x43E JUMPI DUP3 SWAP1 SUB PUSH1 0x1F AND DUP3 ADD SWAP2 JUMPDEST POP POP POP POP POP DUP2 MSTORE PUSH1 0x20 ADD PUSH1 0x2 DUP3 ADD DUP1 SLOAD PUSH2 0x474 SWAP1 PUSH2 0x2BCF JUMP JUMPDEST DUP1 PUSH1 0x1F ADD PUSH1 0x20 DUP1 SWAP2 DIV MUL PUSH1 0x20 ADD PUSH1 0x40 MLOAD SWAP1 DUP2 ADD PUSH1 0x40 MSTORE DUP1 SWAP3 SWAP2 SWAP1 DUP2 DUP2 MSTORE PUSH1 0x20 ADD DUP3 DUP1 SLOAD PUSH2 0x4A0 SWAP1 PUSH2 0x2BCF JUMP JUMPDEST DUP1 ISZERO PUSH2 0x4ED JUMPI DUP1 PUSH1 0x1F LT PUSH2 0x4C2 JUMPI PUSH2 0x100 DUP1 DUP4 SLOAD DIV MUL DUP4 MSTORE SWAP2 PUSH1 0x20 ADD SWAP2 PUSH2 0x4ED JUMP JUMPDEST DUP3 ADD SWAP2 SWAP1 PUSH1 0x0 MSTORE PUSH1 0x20 PUSH1 0x0 KECCAK256 SWAP1 JUMPDEST DUP2 SLOAD DUP2 MSTORE SWAP1 PUSH1 0x1 ADD SWAP1 PUSH1 0x20 ADD DUP1 DUP4 GT PUSH2 0x4D0 JUMPI DUP3 SWAP1 SUB PUSH1 0x1F AND DUP3 ADD SWAP2 JUMPDEST POP POP POP POP POP DUP2 MSTORE PUSH1 0x20 ADD PUSH1 0x3 DUP3 ADD DUP1 SLOAD PUSH2 0x506 SWAP1 PUSH2 0x2BCF JUMP JUMPDEST DUP1 PUSH1 0x1F ADD PUSH1 0x20 DUP1 SWAP2 DIV MUL PUSH1 0x20 ADD PUSH1 0x40 MLOAD SWAP1 DUP2 ADD PUSH1 0x40 MSTORE DUP1 SWAP3 SWAP2 SWAP1 DUP2 DUP2 MSTORE PUSH1 0x20 ADD DUP3 DUP1 SLOAD PUSH2 0x532 SWAP1 PUSH2 0x2BCF JUMP JUMPDEST DUP1 ISZERO PUSH2 0x57F JUMPI DUP1 PUSH1 0x1F LT PUSH2 0x554 JUMPI PUSH2 0x100 DUP1 DUP4 SLOAD DIV MUL DUP4 MSTORE SWAP2 PUSH1 0x20 ADD SWAP2 PUSH2 0x57F JUMP JUMPDEST DUP3 ADD SWAP2 SWAP1 PUSH1 0x0 MSTORE PUSH1 0x20 PUSH1 0x0 KECCAK256 SWAP1 JUMPDEST DUP2 SLOAD DUP2 MSTORE SWAP1 PUSH1 0x1 ADD SWAP1 PUSH1 0x20 ADD DUP1 DUP4 GT PUSH2 0x562 JUMPI DUP3 SWAP1 SUB PUSH1 0x1F AND DUP3 ADD SWAP2 JUMPDEST POP POP POP SWAP2 DUP4 MSTORE POP POP PUSH1 0x4 DUP3 ADD SLOAD PUSH1 0x20 DUP3 ADD MSTORE PUSH1 0x5 DUP3 ADD SLOAD PUSH1 0x40 DUP3 ADD MSTORE PUSH1 0x6 DUP3 ADD SLOAD PUSH1 0x60 DUP3 ADD MSTORE PUSH1 0x7 DUP3 ADD SLOAD PUSH1 0x80 SWAP1 SWAP2 ADD SWAP1 PUSH1 0xFF AND PUSH1 0x1 DUP2 GT ISZERO PUSH2 0x5C4 JUMPI PUSH2 0x5C4 PUSH2 0x2874 JUMP JUMPDEST PUSH1 0x1 DUP2 GT ISZERO PUSH2 0x5D5 JUMPI PUSH2 0x5D5 PUSH2 0x2874 JUMP JUMPDEST DUP2 MSTORE PUSH1 0x20 ADD PUSH1 0x8 DUP3 ADD SLOAD DUP2 MSTORE POP POP SWAP1 POP PUSH1 0x0 PUSH2 0x5F4 DUP3 PUSH1 0x80 ADD MLOAD PUSH2 0x2020 JUMP JUMPDEST SWAP1 POP PUSH1 0x0 DUP3 PUSH1 0xE0 ADD MLOAD PUSH1 0x1 DUP2 GT ISZERO PUSH2 0x60E JUMPI PUSH2 0x60E PUSH2 0x2874 JUMP JUMPDEST SUB PUSH2 0x86B JUMPI DUP2 PUSH1 0xA0 ADD MLOAD DUP4 GT ISZERO PUSH2 0x663 JUMPI PUSH1 0x40 MLOAD PUSH3 0x461BCD PUSH1 0xE5 SHL DUP2 MSTORE PUSH1 0x20 PUSH1 0x4 DUP3 ADD MSTORE PUSH1 0x14 PUSH1 0x24 DUP3 ADD MSTORE PUSH20 0x756E737566666973616E74207175616E74697479 PUSH1 0x60 SHL PUSH1 0x44 DUP3 ADD MSTORE PUSH1 0x64 ADD JUMPDEST PUSH1 0x40 MLOAD DUP1 SWAP2 SUB SWAP1 REVERT JUMPDEST PUSH2 0x66D DUP4 DUP3 PUSH2 0x2C1F JUMP JUMPDEST CALLVALUE EQ PUSH2 0x6B0 JUMPI PUSH1 0x40 MLOAD PUSH3 0x461BCD PUSH1 0xE5 SHL DUP2 MSTORE PUSH1 0x20 PUSH1 0x4 DUP3 ADD MSTORE PUSH1 0x12 PUSH1 0x24 DUP3 ADD MSTORE PUSH18 0x1D5B9CDD59999A5CD85B9D08185B5BDD5B9D PUSH1 0x72 SHL PUSH1 0x44 DUP3 ADD MSTORE PUSH1 0x64 ADD PUSH2 0x65A JUMP JUMPDEST PUSH1 0x0 PUSH1 0x40 MLOAD DUP1 PUSH1 0xE0 ADD PUSH1 0x40 MSTORE DUP1 PUSH1 0x4 SLOAD DUP2 MSTORE PUSH1 0x20 ADD DUP7 DUP2 MSTORE PUSH1 0x20 ADD CALLER PUSH1 0x1 PUSH1 0x1 PUSH1 0xA0 SHL SUB AND DUP2 MSTORE PUSH1 0x20 ADD DUP6 DUP2 MSTORE PUSH1 0x20 ADD DUP6 DUP5 PUSH2 0x6EC SWAP2 SWAP1 PUSH2 0x2C1F JUMP JUMPDEST DUP2 MSTORE PUSH1 0x0 PUSH1 0x20 DUP3 ADD DUP2 SWAP1 MSTORE PUSH1 0x40 SWAP1 SWAP2 ADD MSTORE PUSH1 0x6 DUP1 SLOAD PUSH1 0x1 DUP2 ADD DUP3 SSTORE PUSH1 0x0 DUP3 SWAP1 MSTORE DUP3 MLOAD SWAP2 MUL PUSH32 0xF652222313E28459528D920B65115C16C04F3EFC82AAEDC97BE59F3F377C0D3F DUP2 ADD SWAP2 DUP3 SSTORE PUSH1 0x20 DUP4 ADD MLOAD PUSH32 0xF652222313E28459528D920B65115C16C04F3EFC82AAEDC97BE59F3F377C0D40 DUP3 ADD SSTORE PUSH1 0x40 DUP4 ADD MLOAD PUSH32 0xF652222313E28459528D920B65115C16C04F3EFC82AAEDC97BE59F3F377C0D41 DUP3 ADD DUP1 SLOAD PUSH1 0x1 PUSH1 0x1 PUSH1 0xA0 SHL SUB SWAP1 SWAP3 AND PUSH1 0x1 PUSH1 0x1 PUSH1 0xA0 SHL SUB NOT SWAP1 SWAP3 AND SWAP2 SWAP1 SWAP2 OR SWAP1 SSTORE PUSH1 0x60 DUP4 ADD MLOAD PUSH32 0xF652222313E28459528D920B65115C16C04F3EFC82AAEDC97BE59F3F377C0D42 DUP3 ADD SSTORE PUSH1 0x80 DUP4 ADD MLOAD PUSH32 0xF652222313E28459528D920B65115C16C04F3EFC82AAEDC97BE59F3F377C0D43 DUP3 ADD SSTORE PUSH1 0xA0 DUP4 ADD MLOAD PUSH32 0xF652222313E28459528D920B65115C16C04F3EFC82AAEDC97BE59F3F377C0D44 SWAP1 SWAP2 ADD DUP1 SLOAD SWAP2 ISZERO ISZERO PUSH1 0xFF NOT DUP4 AND DUP2 OR DUP3 SSTORE PUSH1 0xC0 DUP6 ADD MLOAD SWAP5 SWAP6 POP DUP6 SWAP5 SWAP3 PUSH2 0xFF00 NOT SWAP1 SWAP2 AND PUSH2 0xFFFF NOT SWAP1 SWAP2 AND OR PUSH2 0x100 DUP4 PUSH1 0x2 DUP2 GT ISZERO PUSH2 0x85E JUMPI PUSH2 0x85E PUSH2 0x2874 JUMP JUMPDEST MUL OR SWAP1 SSTORE POP POP POP POP PUSH2 0xA6E JUMP JUMPDEST DUP1 CALLVALUE EQ PUSH2 0x8AF JUMPI PUSH1 0x40 MLOAD PUSH3 0x461BCD PUSH1 0xE5 SHL DUP2 MSTORE PUSH1 0x20 PUSH1 0x4 DUP3 ADD MSTORE PUSH1 0x12 PUSH1 0x24 DUP3 ADD MSTORE PUSH18 0x1D5B9CDD59999A5CD85B9D08185B5BDD5B9D PUSH1 0x72 SHL PUSH1 0x44 DUP3 ADD MSTORE PUSH1 0x64 ADD PUSH2 0x65A JUMP JUMPDEST PUSH1 0x0 PUSH1 0x40 MLOAD DUP1 PUSH1 0xE0 ADD PUSH1 0x40 MSTORE DUP1 PUSH1 0x4 SLOAD DUP2 MSTORE PUSH1 0x20 ADD DUP7 DUP2 MSTORE PUSH1 0x20 ADD CALLER PUSH1 0x1 PUSH1 0x1 PUSH1 0xA0 SHL SUB AND DUP2 MSTORE PUSH1 0x20 ADD PUSH1 0x0 DUP2 MSTORE PUSH1 0x20 ADD DUP4 DUP2 MSTORE PUSH1 0x20 ADD PUSH1 0x0 ISZERO ISZERO DUP2 MSTORE PUSH1 0x20 ADD PUSH1 0x0 PUSH1 0x2 DUP2 GT ISZERO PUSH2 0x902 JUMPI PUSH2 0x902 PUSH2 0x2874 JUMP JUMPDEST SWAP1 MSTORE PUSH1 0x6 DUP1 SLOAD PUSH1 0x1 DUP2 ADD DUP3 SSTORE PUSH1 0x0 DUP3 SWAP1 MSTORE DUP3 MLOAD SWAP2 MUL PUSH32 0xF652222313E28459528D920B65115C16C04F3EFC82AAEDC97BE59F3F377C0D3F DUP2 ADD SWAP2 DUP3 SSTORE PUSH1 0x20 DUP4 ADD MLOAD PUSH32 0xF652222313E28459528D920B65115C16C04F3EFC82AAEDC97BE59F3F377C0D40 DUP3 ADD SSTORE PUSH1 0x40 DUP4 ADD MLOAD PUSH32 0xF652222313E28459528D920B65115C16C04F3EFC82AAEDC97BE59F3F377C0D41 DUP3 ADD DUP1 SLOAD PUSH1 0x1 PUSH1 0x1 PUSH1 0xA0 SHL SUB SWAP1 SWAP3 AND PUSH1 0x1 PUSH1 0x1 PUSH1 0xA0 SHL SUB NOT SWAP1 SWAP3 AND SWAP2 SWAP1 SWAP2 OR SWAP1 SSTORE PUSH1 0x60 DUP4 ADD MLOAD PUSH32 0xF652222313E28459528D920B65115C16C04F3EFC82AAEDC97BE59F3F377C0D42 DUP3 ADD SSTORE PUSH1 0x80 DUP4 ADD MLOAD PUSH32 0xF652222313E28459528D920B65115C16C04F3EFC82AAEDC97BE59F3F377C0D43 DUP3 ADD SSTORE PUSH1 0xA0 DUP4 ADD MLOAD PUSH32 0xF652222313E28459528D920B65115C16C04F3EFC82AAEDC97BE59F3F377C0D44 SWAP1 SWAP2 ADD DUP1 SLOAD SWAP2 ISZERO ISZERO PUSH1 0xFF NOT DUP4 AND DUP2 OR DUP3 SSTORE PUSH1 0xC0 DUP6 ADD MLOAD SWAP5 SWAP6 POP DUP6 SWAP5 SWAP3 PUSH2 0xFF00 NOT SWAP1 SWAP2 AND PUSH2 0xFFFF NOT SWAP1 SWAP2 AND OR PUSH2 0x100 DUP4 PUSH1 0x2 DUP2 GT ISZERO PUSH2 0xA65 JUMPI PUSH2 0xA65 PUSH2 0x2874 JUMP JUMPDEST MUL OR SWAP1 SSTORE POP POP POP POP JUMPDEST PUSH1 0xC0 DUP3 ADD DUP1 MLOAD SWAP1 PUSH2 0xA7E DUP3 PUSH2 0x2C36 JUMP JUMPDEST DUP2 MSTORE POP POP DUP2 PUSH1 0x5 DUP6 DUP2 SLOAD DUP2 LT PUSH2 0xA96 JUMPI PUSH2 0xA96 PUSH2 0x2BB9 JUMP JUMPDEST SWAP1 PUSH1 0x0 MSTORE PUSH1 0x20 PUSH1 0x0 KECCAK256 SWAP1 PUSH1 0x9 MUL ADD PUSH1 0x0 DUP3 ADD MLOAD DUP2 PUSH1 0x0 ADD SSTORE PUSH1 0x20 DUP3 ADD MLOAD DUP2 PUSH1 0x1 ADD SWAP1 DUP2 PUSH2 0xAC3 SWAP2 SWAP1 PUSH2 0x2C9A JUMP JUMPDEST POP PUSH1 0x40 DUP3 ADD MLOAD PUSH1 0x2 DUP3 ADD SWAP1 PUSH2 0xAD8 SWAP1 DUP3 PUSH2 0x2C9A JUMP JUMPDEST POP PUSH1 0x60 DUP3 ADD MLOAD PUSH1 0x3 DUP3 ADD SWAP1 PUSH2 0xAED SWAP1 DUP3 PUSH2 0x2C9A JUMP JUMPDEST POP PUSH1 0x80 DUP3 ADD MLOAD PUSH1 0x4 DUP3 ADD SSTORE PUSH1 0xA0 DUP3 ADD MLOAD PUSH1 0x5 DUP3 ADD SSTORE PUSH1 0xC0 DUP3 ADD MLOAD PUSH1 0x6 DUP3 ADD SSTORE PUSH1 0xE0 DUP3 ADD MLOAD PUSH1 0x7 DUP3 ADD DUP1 SLOAD PUSH1 0xFF NOT AND PUSH1 0x1 DUP4 DUP2 DUP2 GT ISZERO PUSH2 0xB2E JUMPI PUSH2 0xB2E PUSH2 0x2874 JUMP JUMPDEST MUL OR SWAP1 SSTORE POP PUSH2 0x100 SWAP2 SWAP1 SWAP2 ADD MLOAD PUSH1 0x8 SWAP1 SWAP2 ADD SSTORE PUSH1 0x4 DUP1 SLOAD SWAP1 PUSH1 0x0 PUSH2 0xB51 DUP4 PUSH2 0x2C36 JUMP JUMPDEST SWAP2 SWAP1 POP SSTORE POP POP POP POP POP JUMP JUMPDEST PUSH1 0x60 PUSH1 0x7 PUSH1 0x0 DUP4 DUP2 MSTORE PUSH1 0x20 ADD SWAP1 DUP2 MSTORE PUSH1 0x20 ADD PUSH1 0x0 KECCAK256 DUP1 SLOAD DUP1 PUSH1 0x20 MUL PUSH1 0x20 ADD PUSH1 0x40 MLOAD SWAP1 DUP2 ADD PUSH1 0x40 MSTORE DUP1 SWAP3 SWAP2 SWAP1 DUP2 DUP2 MSTORE PUSH1 0x20 ADD PUSH1 0x0 SWAP1 JUMPDEST DUP3 DUP3 LT ISZERO PUSH2 0xCFD JUMPI PUSH1 0x0 DUP5 DUP2 MSTORE PUSH1 0x20 SWAP1 DUP2 SWAP1 KECCAK256 PUSH1 0x40 DUP1 MLOAD PUSH1 0x60 DUP2 ADD SWAP1 SWAP2 MSTORE PUSH1 0x3 DUP6 MUL SWAP1 SWAP2 ADD DUP1 SLOAD PUSH1 0x1 PUSH1 0x1 PUSH1 0xA0 SHL SUB AND DUP3 MSTORE PUSH1 0x1 DUP2 ADD DUP1 SLOAD SWAP3 SWAP4 SWAP2 SWAP3 SWAP2 DUP5 ADD SWAP2 PUSH2 0xBDA SWAP1 PUSH2 0x2BCF JUMP JUMPDEST DUP1 PUSH1 0x1F ADD PUSH1 0x20 DUP1 SWAP2 DIV MUL PUSH1 0x20 ADD PUSH1 0x40 MLOAD SWAP1 DUP2 ADD PUSH1 0x40 MSTORE DUP1 SWAP3 SWAP2 SWAP1 DUP2 DUP2 MSTORE PUSH1 0x20 ADD DUP3 DUP1 SLOAD PUSH2 0xC06 SWAP1 PUSH2 0x2BCF JUMP JUMPDEST DUP1 ISZERO PUSH2 0xC53 JUMPI DUP1 PUSH1 0x1F LT PUSH2 0xC28 JUMPI PUSH2 0x100 DUP1 DUP4 SLOAD DIV MUL DUP4 MSTORE SWAP2 PUSH1 0x20 ADD SWAP2 PUSH2 0xC53 JUMP JUMPDEST DUP3 ADD SWAP2 SWAP1 PUSH1 0x0 MSTORE PUSH1 0x20 PUSH1 0x0 KECCAK256 SWAP1 JUMPDEST DUP2 SLOAD DUP2 MSTORE SWAP1 PUSH1 0x1 ADD SWAP1 PUSH1 0x20 ADD DUP1 DUP4 GT PUSH2 0xC36 JUMPI DUP3 SWAP1 SUB PUSH1 0x1F AND DUP3 ADD SWAP2 JUMPDEST POP POP POP POP POP DUP2 MSTORE PUSH1 0x20 ADD PUSH1 0x2 DUP3 ADD DUP1 SLOAD PUSH2 0xC6C SWAP1 PUSH2 0x2BCF JUMP JUMPDEST DUP1 PUSH1 0x1F ADD PUSH1 0x20 DUP1 SWAP2 DIV MUL PUSH1 0x20 ADD PUSH1 0x40 MLOAD SWAP1 DUP2 ADD PUSH1 0x40 MSTORE DUP1 SWAP3 SWAP2 SWAP1 DUP2 DUP2 MSTORE PUSH1 0x20 ADD DUP3 DUP1 SLOAD PUSH2 0xC98 SWAP1 PUSH2 0x2BCF JUMP JUMPDEST DUP1 ISZERO PUSH2 0xCE5 JUMPI DUP1 PUSH1 0x1F LT PUSH2 0xCBA JUMPI PUSH2 0x100 DUP1 DUP4 SLOAD DIV MUL DUP4 MSTORE SWAP2 PUSH1 0x20 ADD SWAP2 PUSH2 0xCE5 JUMP JUMPDEST DUP3 ADD SWAP2 SWAP1 PUSH1 0x0 MSTORE PUSH1 0x20 PUSH1 0x0 KECCAK256 SWAP1 JUMPDEST DUP2 SLOAD DUP2 MSTORE SWAP1 PUSH1 0x1 ADD SWAP1 PUSH1 0x20 ADD DUP1 DUP4 GT PUSH2 0xCC8 JUMPI DUP3 SWAP1 SUB PUSH1 0x1F AND DUP3 ADD SWAP2 JUMPDEST POP POP POP POP POP DUP2 MSTORE POP POP DUP2 MSTORE PUSH1 0x20 ADD SWAP1 PUSH1 0x1 ADD SWAP1 PUSH2 0xB91 JUMP JUMPDEST POP POP POP POP SWAP1 POP SWAP2 SWAP1 POP JUMP JUMPDEST PUSH1 0x0 PUSH1 0x6 DUP3 DUP2 SLOAD DUP2 LT PUSH2 0xD1D JUMPI PUSH2 0xD1D PUSH2 0x2BB9 JUMP JUMPDEST PUSH1 0x0 SWAP2 DUP3 MSTORE PUSH1 0x20 SWAP2 DUP3 SWAP1 KECCAK256 PUSH1 0x40 DUP1 MLOAD PUSH1 0xE0 DUP2 ADD DUP3 MSTORE PUSH1 0x6 SWAP1 SWAP4 MUL SWAP1 SWAP2 ADD DUP1 SLOAD DUP4 MSTORE PUSH1 0x1 DUP2 ADD SLOAD SWAP4 DUP4 ADD SWAP4 SWAP1 SWAP4 MSTORE PUSH1 0x2 DUP1 DUP5 ADD SLOAD PUSH1 0x1 PUSH1 0x1 PUSH1 0xA0 SHL SUB AND SWAP2 DUP4 ADD SWAP2 SWAP1 SWAP2 MSTORE PUSH1 0x3 DUP4 ADD SLOAD PUSH1 0x60 DUP4 ADD MSTORE PUSH1 0x4 DUP4 ADD SLOAD PUSH1 0x80 DUP4 ADD MSTORE PUSH1 0x5 DUP4 ADD SLOAD PUSH1 0xFF DUP1 DUP3 AND ISZERO ISZERO PUSH1 0xA0 DUP6 ADD MSTORE SWAP3 SWAP4 SWAP3 PUSH1 0xC0 DUP6 ADD SWAP3 PUSH2 0x100 SWAP1 SWAP3 DIV AND SWAP1 DUP2 GT ISZERO PUSH2 0xDA4 JUMPI PUSH2 0xDA4 PUSH2 0x2874 JUMP JUMPDEST PUSH1 0x2 DUP2 GT ISZERO PUSH2 0xDB5 JUMPI PUSH2 0xDB5 PUSH2 0x2874 JUMP JUMPDEST DUP2 MSTORE POP POP SWAP1 POP DUP1 PUSH1 0x40 ADD MLOAD PUSH1 0x1 PUSH1 0x1 PUSH1 0xA0 SHL SUB AND CALLER PUSH1 0x1 PUSH1 0x1 PUSH1 0xA0 SHL SUB AND EQ DUP1 ISZERO PUSH2 0xDF5 JUMPI POP PUSH1 0x0 DUP2 PUSH1 0xC0 ADD MLOAD PUSH1 0x2 DUP2 GT ISZERO PUSH2 0xDF3 JUMPI PUSH2 0xDF3 PUSH2 0x2874 JUMP JUMPDEST EQ JUMPDEST PUSH2 0xE11 JUMPI PUSH1 0x40 MLOAD PUSH3 0x461BCD PUSH1 0xE5 SHL DUP2 MSTORE PUSH1 0x4 ADD PUSH2 0x65A SWAP1 PUSH2 0x2D5A JUMP JUMPDEST PUSH1 0x80 DUP2 ADD MLOAD PUSH1 0x40 DUP1 DUP4 ADD MLOAD SWAP1 MLOAD PUSH1 0x1 PUSH1 0x1 PUSH1 0xA0 SHL SUB SWAP1 SWAP2 AND SWAP1 DUP3 ISZERO PUSH2 0x8FC MUL SWAP1 DUP4 SWAP1 PUSH1 0x0 DUP2 DUP2 DUP2 DUP6 DUP9 DUP9 CALL SWAP4 POP POP POP POP ISZERO DUP1 ISZERO PUSH2 0xE52 JUMPI RETURNDATASIZE PUSH1 0x0 DUP1 RETURNDATACOPY RETURNDATASIZE PUSH1 0x0 REVERT JUMPDEST POP PUSH1 0x6 DUP4 DUP2 SLOAD DUP2 LT PUSH2 0xE66 JUMPI PUSH2 0xE66 PUSH2 0x2BB9 JUMP JUMPDEST PUSH1 0x0 SWAP2 DUP3 MSTORE PUSH1 0x20 DUP1 DUP4 KECCAK256 PUSH1 0x6 SWAP1 SWAP3 MUL SWAP1 SWAP2 ADD DUP3 DUP2 SSTORE PUSH1 0x1 DUP2 ADD DUP4 SWAP1 SSTORE PUSH1 0x2 DUP2 ADD DUP1 SLOAD PUSH1 0x1 PUSH1 0x1 PUSH1 0xA0 SHL SUB NOT AND SWAP1 SSTORE PUSH1 0x3 DUP2 ADD DUP4 SWAP1 SSTORE PUSH1 0x4 DUP2 ADD SWAP3 SWAP1 SWAP3 SSTORE PUSH1 0x5 SWAP2 DUP3 ADD DUP1 SLOAD PUSH2 0xFFFF NOT AND SWAP1 SSTORE DUP4 ADD MLOAD DUP2 SLOAD DUP2 LT PUSH2 0xEC4 JUMPI PUSH2 0xEC4 PUSH2 0x2BB9 JUMP JUMPDEST PUSH1 0x0 SWAP2 DUP3 MSTORE PUSH1 0x20 DUP3 KECCAK256 PUSH1 0x6 PUSH1 0x9 SWAP1 SWAP3 MUL ADD ADD DUP1 SLOAD SWAP2 PUSH2 0xEE2 DUP4 PUSH2 0x2D88 JUMP JUMPDEST SWAP2 SWAP1 POP SSTORE POP POP POP POP JUMP JUMPDEST PUSH1 0x1 SLOAD PUSH1 0x1 PUSH1 0x1 PUSH1 0xA0 SHL SUB AND CALLER EQ PUSH2 0xF16 JUMPI PUSH1 0x40 MLOAD PUSH3 0x461BCD PUSH1 0xE5 SHL DUP2 MSTORE PUSH1 0x4 ADD PUSH2 0x65A SWAP1 PUSH2 0x2D9F JUMP JUMPDEST PUSH1 0x3 SLOAD DUP2 GT ISZERO PUSH2 0xF5B JUMPI PUSH1 0x40 MLOAD PUSH3 0x461BCD PUSH1 0xE5 SHL DUP2 MSTORE PUSH1 0x20 PUSH1 0x4 DUP3 ADD MSTORE PUSH1 0x10 PUSH1 0x24 DUP3 ADD MSTORE PUSH16 0x1DDC9BDB99C81C1C9BD91D58DD081A59 PUSH1 0x82 SHL PUSH1 0x44 DUP3 ADD MSTORE PUSH1 0x64 ADD PUSH2 0x65A JUMP JUMPDEST PUSH1 0x0 PUSH1 0x5 DUP3 DUP2 SLOAD DUP2 LT PUSH2 0xF70 JUMPI PUSH2 0xF70 PUSH2 0x2BB9 JUMP JUMPDEST SWAP1 PUSH1 0x0 MSTORE PUSH1 0x20 PUSH1 0x0 KECCAK256 SWAP1 PUSH1 0x9 MUL ADD PUSH1 0x40 MLOAD DUP1 PUSH2 0x120 ADD PUSH1 0x40 MSTORE SWAP1 DUP2 PUSH1 0x0 DUP3 ADD SLOAD DUP2 MSTORE PUSH1 0x20 ADD PUSH1 0x1 DUP3 ADD DUP1 SLOAD PUSH2 0xFA4 SWAP1 PUSH2 0x2BCF JUMP JUMPDEST DUP1 PUSH1 0x1F ADD PUSH1 0x20 DUP1 SWAP2 DIV MUL PUSH1 0x20 ADD PUSH1 0x40 MLOAD SWAP1 DUP2 ADD PUSH1 0x40 MSTORE DUP1 SWAP3 SWAP2 SWAP1 DUP2 DUP2 MSTORE PUSH1 0x20 ADD DUP3 DUP1 SLOAD PUSH2 0xFD0 SWAP1 PUSH2 0x2BCF JUMP JUMPDEST DUP1 ISZERO PUSH2 0x101D JUMPI DUP1 PUSH1 0x1F LT PUSH2 0xFF2 JUMPI PUSH2 0x100 DUP1 DUP4 SLOAD DIV MUL DUP4 MSTORE SWAP2 PUSH1 0x20 ADD SWAP2 PUSH2 0x101D JUMP JUMPDEST DUP3 ADD SWAP2 SWAP1 PUSH1 0x0 MSTORE PUSH1 0x20 PUSH1 0x0 KECCAK256 SWAP1 JUMPDEST DUP2 SLOAD DUP2 MSTORE SWAP1 PUSH1 0x1 ADD SWAP1 PUSH1 0x20 ADD DUP1 DUP4 GT PUSH2 0x1000 JUMPI DUP3 SWAP1 SUB PUSH1 0x1F AND DUP3 ADD SWAP2 JUMPDEST POP POP POP POP POP DUP2 MSTORE PUSH1 0x20 ADD PUSH1 0x2 DUP3 ADD DUP1 SLOAD PUSH2 0x1036 SWAP1 PUSH2 0x2BCF JUMP JUMPDEST DUP1 PUSH1 0x1F ADD PUSH1 0x20 DUP1 SWAP2 DIV MUL PUSH1 0x20 ADD PUSH1 0x40 MLOAD SWAP1 DUP2 ADD PUSH1 0x40 MSTORE DUP1 SWAP3 SWAP2 SWAP1 DUP2 DUP2 MSTORE PUSH1 0x20 ADD DUP3 DUP1 SLOAD PUSH2 0x1062 SWAP1 PUSH2 0x2BCF JUMP JUMPDEST DUP1 ISZERO PUSH2 0x10AF JUMPI DUP1 PUSH1 0x1F LT PUSH2 0x1084 JUMPI PUSH2 0x100 DUP1 DUP4 SLOAD DIV MUL DUP4 MSTORE SWAP2 PUSH1 0x20 ADD SWAP2 PUSH2 0x10AF JUMP JUMPDEST DUP3 ADD SWAP2 SWAP1 PUSH1 0x0 MSTORE PUSH1 0x20 PUSH1 0x0 KECCAK256 SWAP1 JUMPDEST DUP2 SLOAD DUP2 MSTORE SWAP1 PUSH1 0x1 ADD SWAP1 PUSH1 0x20 ADD DUP1 DUP4 GT PUSH2 0x1092 JUMPI DUP3 SWAP1 SUB PUSH1 0x1F AND DUP3 ADD SWAP2 JUMPDEST POP POP POP POP POP DUP2 MSTORE PUSH1 0x20 ADD PUSH1 0x3 DUP3 ADD DUP1 SLOAD PUSH2 0x10C8 SWAP1 PUSH2 0x2BCF JUMP JUMPDEST DUP1 PUSH1 0x1F ADD PUSH1 0x20 DUP1 SWAP2 DIV MUL PUSH1 0x20 ADD PUSH1 0x40 MLOAD SWAP1 DUP2 ADD PUSH1 0x40 MSTORE DUP1 SWAP3 SWAP2 SWAP1 DUP2 DUP2 MSTORE PUSH1 0x20 ADD DUP3 DUP1 SLOAD PUSH2 0x10F4 SWAP1 PUSH2 0x2BCF JUMP JUMPDEST DUP1 ISZERO PUSH2 0x1141 JUMPI DUP1 PUSH1 0x1F LT PUSH2 0x1116 JUMPI PUSH2 0x100 DUP1 DUP4 SLOAD DIV MUL DUP4 MSTORE SWAP2 PUSH1 0x20 ADD SWAP2 PUSH2 0x1141 JUMP JUMPDEST DUP3 ADD SWAP2 SWAP1 PUSH1 0x0 MSTORE PUSH1 0x20 PUSH1 0x0 KECCAK256 SWAP1 JUMPDEST DUP2 SLOAD DUP2 MSTORE SWAP1 PUSH1 0x1 ADD SWAP1 PUSH1 0x20 ADD DUP1 DUP4 GT PUSH2 0x1124 JUMPI DUP3 SWAP1 SUB PUSH1 0x1F AND DUP3 ADD SWAP2 JUMPDEST POP POP POP SWAP2 DUP4 MSTORE POP POP PUSH1 0x4 DUP3 ADD SLOAD PUSH1 0x20 DUP3 ADD MSTORE PUSH1 0x5 DUP3 ADD SLOAD PUSH1 0x40 DUP3 ADD MSTORE PUSH1 0x6 DUP3 ADD SLOAD PUSH1 0x60 DUP3 ADD MSTORE PUSH1 0x7 DUP3 ADD SLOAD PUSH1 0x80 SWAP1 SWAP2 ADD SWAP1 PUSH1 0xFF AND PUSH1 0x1 DUP2 GT ISZERO PUSH2 0x1186 JUMPI PUSH2 0x1186 PUSH2 0x2874 JUMP JUMPDEST PUSH1 0x1 DUP2 GT ISZERO PUSH2 0x1197 JUMPI PUSH2 0x1197 PUSH2 0x2874 JUMP JUMPDEST DUP2 MSTORE PUSH1 0x20 ADD PUSH1 0x8 DUP3 ADD SLOAD DUP2 MSTORE POP POP SWAP1 POP DUP1 PUSH1 0xC0 ADD MLOAD PUSH1 0x0 SUB PUSH2 0x122D JUMPI PUSH1 0x5 DUP3 DUP2 SLOAD DUP2 LT PUSH2 0x11C6 JUMPI PUSH2 0x11C6 PUSH2 0x2BB9 JUMP JUMPDEST PUSH1 0x0 SWAP2 DUP3 MSTORE PUSH1 0x20 DUP3 KECCAK256 PUSH1 0x9 SWAP1 SWAP2 MUL ADD DUP2 DUP2 SSTORE SWAP1 PUSH2 0x11E6 PUSH1 0x1 DUP4 ADD DUP3 PUSH2 0x25F1 JUMP JUMPDEST PUSH2 0x11F4 PUSH1 0x2 DUP4 ADD PUSH1 0x0 PUSH2 0x25F1 JUMP JUMPDEST PUSH2 0x1202 PUSH1 0x3 DUP4 ADD PUSH1 0x0 PUSH2 0x25F1 JUMP JUMPDEST POP PUSH1 0x0 PUSH1 0x4 DUP3 ADD DUP2 SWAP1 SSTORE PUSH1 0x5 DUP3 ADD DUP2 SWAP1 SSTORE PUSH1 0x6 DUP3 ADD DUP2 SWAP1 SSTORE PUSH1 0x7 DUP3 ADD DUP1 SLOAD PUSH1 0xFF NOT AND SWAP1 SSTORE PUSH1 0x8 SWAP1 SWAP2 ADD SSTORE JUMPDEST POP POP JUMP JUMPDEST PUSH1 0x1 SLOAD PUSH1 0x1 PUSH1 0x1 PUSH1 0xA0 SHL SUB AND CALLER EQ PUSH2 0x125B JUMPI PUSH1 0x40 MLOAD PUSH3 0x461BCD PUSH1 0xE5 SHL DUP2 MSTORE PUSH1 0x4 ADD PUSH2 0x65A SWAP1 PUSH2 0x2D9F JUMP JUMPDEST PUSH1 0x4 SLOAD DUP2 LT PUSH2 0x127C JUMPI PUSH1 0x40 MLOAD PUSH3 0x461BCD PUSH1 0xE5 SHL DUP2 MSTORE PUSH1 0x4 ADD PUSH2 0x65A SWAP1 PUSH2 0x2DD6 JUMP JUMPDEST PUSH1 0x0 PUSH1 0x6 DUP3 DUP2 SLOAD DUP2 LT PUSH2 0x1291 JUMPI PUSH2 0x1291 PUSH2 0x2BB9 JUMP JUMPDEST PUSH1 0x0 SWAP2 DUP3 MSTORE PUSH1 0x20 SWAP2 DUP3 SWAP1 KECCAK256 PUSH1 0x40 DUP1 MLOAD PUSH1 0xE0 DUP2 ADD DUP3 MSTORE PUSH1 0x6 SWAP1 SWAP4 MUL SWAP1 SWAP2 ADD DUP1 SLOAD DUP4 MSTORE PUSH1 0x1 DUP2 ADD SLOAD SWAP4 DUP4 ADD SWAP4 SWAP1 SWAP4 MSTORE PUSH1 0x2 DUP1 DUP5 ADD SLOAD PUSH1 0x1 PUSH1 0x1 PUSH1 0xA0 SHL SUB AND SWAP2 DUP4 ADD SWAP2 SWAP1 SWAP2 MSTORE PUSH1 0x3 DUP4 ADD SLOAD PUSH1 0x60 DUP4 ADD MSTORE PUSH1 0x4 DUP4 ADD SLOAD PUSH1 0x80 DUP4 ADD MSTORE PUSH1 0x5 DUP4 ADD SLOAD PUSH1 0xFF DUP1 DUP3 AND ISZERO ISZERO PUSH1 0xA0 DUP6 ADD MSTORE SWAP3 SWAP4 SWAP3 PUSH1 0xC0 DUP6 ADD SWAP3 PUSH2 0x100 SWAP1 SWAP3 DIV AND SWAP1 DUP2 GT ISZERO PUSH2 0x1318 JUMPI PUSH2 0x1318 PUSH2 0x2874 JUMP JUMPDEST PUSH1 0x2 DUP2 GT ISZERO PUSH2 0x1329 JUMPI PUSH2 0x1329 PUSH2 0x2874 JUMP JUMPDEST SWAP1 MSTORE POP SWAP1 POP PUSH1 0x0 DUP2 PUSH1 0xC0 ADD MLOAD PUSH1 0x2 DUP2 GT ISZERO PUSH2 0x1346 JUMPI PUSH2 0x1346 PUSH2 0x2874 JUMP JUMPDEST EQ PUSH2 0x1363 JUMPI PUSH1 0x40 MLOAD PUSH3 0x461BCD PUSH1 0xE5 SHL DUP2 MSTORE PUSH1 0x4 ADD PUSH2 0x65A SWAP1 PUSH2 0x2D5A JUMP JUMPDEST PUSH1 0x0 PUSH1 0x5 DUP3 PUSH1 0x20 ADD MLOAD DUP2 SLOAD DUP2 LT PUSH2 0x137C JUMPI PUSH2 0x137C PUSH2 0x2BB9 JUMP JUMPDEST SWAP1 PUSH1 0x0 MSTORE PUSH1 0x20 PUSH1 0x0 KECCAK256 SWAP1 PUSH1 0x9 MUL ADD PUSH1 0x40 MLOAD DUP1 PUSH2 0x120 ADD PUSH1 0x40 MSTORE SWAP1 DUP2 PUSH1 0x0 DUP3 ADD SLOAD DUP2 MSTORE PUSH1 0x20 ADD PUSH1 0x1 DUP3 ADD DUP1 SLOAD PUSH2 0x13B0 SWAP1 PUSH2 0x2BCF JUMP JUMPDEST DUP1 PUSH1 0x1F ADD PUSH1 0x20 DUP1 SWAP2 DIV MUL PUSH1 0x20 ADD PUSH1 0x40 MLOAD SWAP1 DUP2 ADD PUSH1 0x40 MSTORE DUP1 SWAP3 SWAP2 SWAP1 DUP2 DUP2 MSTORE PUSH1 0x20 ADD DUP3 DUP1 SLOAD PUSH2 0x13DC SWAP1 PUSH2 0x2BCF JUMP JUMPDEST DUP1 ISZERO PUSH2 0x1429 JUMPI DUP1 PUSH1 0x1F LT PUSH2 0x13FE JUMPI PUSH2 0x100 DUP1 DUP4 SLOAD DIV MUL DUP4 MSTORE SWAP2 PUSH1 0x20 ADD SWAP2 PUSH2 0x1429 JUMP JUMPDEST DUP3 ADD SWAP2 SWAP1 PUSH1 0x0 MSTORE PUSH1 0x20 PUSH1 0x0 KECCAK256 SWAP1 JUMPDEST DUP2 SLOAD DUP2 MSTORE SWAP1 PUSH1 0x1 ADD SWAP1 PUSH1 0x20 ADD DUP1 DUP4 GT PUSH2 0x140C JUMPI DUP3 SWAP1 SUB PUSH1 0x1F AND DUP3 ADD SWAP2 JUMPDEST POP POP POP POP POP DUP2 MSTORE PUSH1 0x20 ADD PUSH1 0x2 DUP3 ADD DUP1 SLOAD PUSH2 0x1442 SWAP1 PUSH2 0x2BCF JUMP JUMPDEST DUP1 PUSH1 0x1F ADD PUSH1 0x20 DUP1 SWAP2 DIV MUL PUSH1 0x20 ADD PUSH1 0x40 MLOAD SWAP1 DUP2 ADD PUSH1 0x40 MSTORE DUP1 SWAP3 SWAP2 SWAP1 DUP2 DUP2 MSTORE PUSH1 0x20 ADD DUP3 DUP1 SLOAD PUSH2 0x146E SWAP1 PUSH2 0x2BCF JUMP JUMPDEST DUP1 ISZERO PUSH2 0x14BB JUMPI DUP1 PUSH1 0x1F LT PUSH2 0x1490 JUMPI PUSH2 0x100 DUP1 DUP4 SLOAD DIV MUL DUP4 MSTORE SWAP2 PUSH1 0x20 ADD SWAP2 PUSH2 0x14BB JUMP JUMPDEST DUP3 ADD SWAP2 SWAP1 PUSH1 0x0 MSTORE PUSH1 0x20 PUSH1 0x0 KECCAK256 SWAP1 JUMPDEST DUP2 SLOAD DUP2 MSTORE SWAP1 PUSH1 0x1 ADD SWAP1 PUSH1 0x20 ADD DUP1 DUP4 GT PUSH2 0x149E JUMPI DUP3 SWAP1 SUB PUSH1 0x1F AND DUP3 ADD SWAP2 JUMPDEST POP POP POP POP POP DUP2 MSTORE PUSH1 0x20 ADD PUSH1 0x3 DUP3 ADD DUP1 SLOAD PUSH2 0x14D4 SWAP1 PUSH2 0x2BCF JUMP JUMPDEST DUP1 PUSH1 0x1F ADD PUSH1 0x20 DUP1 SWAP2 DIV MUL PUSH1 0x20 ADD PUSH1 0x40 MLOAD SWAP1 DUP2 ADD PUSH1 0x40 MSTORE DUP1 SWAP3 SWAP2 SWAP1 DUP2 DUP2 MSTORE PUSH1 0x20 ADD DUP3 DUP1 SLOAD PUSH2 0x1500 SWAP1 PUSH2 0x2BCF JUMP JUMPDEST DUP1 ISZERO PUSH2 0x154D JUMPI DUP1 PUSH1 0x1F LT PUSH2 0x1522 JUMPI PUSH2 0x100 DUP1 DUP4 SLOAD DIV MUL DUP4 MSTORE SWAP2 PUSH1 0x20 ADD SWAP2 PUSH2 0x154D JUMP JUMPDEST DUP3 ADD SWAP2 SWAP1 PUSH1 0x0 MSTORE PUSH1 0x20 PUSH1 0x0 KECCAK256 SWAP1 JUMPDEST DUP2 SLOAD DUP2 MSTORE SWAP1 PUSH1 0x1 ADD SWAP1 PUSH1 0x20 ADD DUP1 DUP4 GT PUSH2 0x1530 JUMPI DUP3 SWAP1 SUB PUSH1 0x1F AND DUP3 ADD SWAP2 JUMPDEST POP POP POP SWAP2 DUP4 MSTORE POP POP PUSH1 0x4 DUP3 ADD SLOAD PUSH1 0x20 DUP3 ADD MSTORE PUSH1 0x5 DUP3 ADD SLOAD PUSH1 0x40 DUP3 ADD MSTORE PUSH1 0x6 DUP3 ADD SLOAD PUSH1 0x60 DUP3 ADD MSTORE PUSH1 0x7 DUP3 ADD SLOAD PUSH1 0x80 SWAP1 SWAP2 ADD SWAP1 PUSH1 0xFF AND PUSH1 0x1 DUP2 GT ISZERO PUSH2 0x1592 JUMPI PUSH2 0x1592 PUSH2 0x2874 JUMP JUMPDEST PUSH1 0x1 DUP2 GT ISZERO PUSH2 0x15A3 JUMPI PUSH2 0x15A3 PUSH2 0x2874 JUMP JUMPDEST DUP2 MSTORE PUSH1 0x20 ADD PUSH1 0x8 DUP3 ADD SLOAD DUP2 MSTORE POP POP SWAP1 POP DUP2 PUSH1 0x60 ADD MLOAD DUP2 PUSH1 0xA0 ADD DUP2 DUP2 MLOAD PUSH2 0x15C9 SWAP2 SWAP1 PUSH2 0x2DFE JUMP JUMPDEST SWAP1 MSTORE POP PUSH1 0x1 PUSH1 0xC0 DUP4 ADD MSTORE PUSH1 0x6 DUP1 SLOAD DUP4 SWAP2 SWAP1 DUP6 SWAP1 DUP2 LT PUSH2 0x15EA JUMPI PUSH2 0x15EA PUSH2 0x2BB9 JUMP JUMPDEST PUSH1 0x0 SWAP2 DUP3 MSTORE PUSH1 0x20 SWAP2 DUP3 SWAP1 KECCAK256 DUP4 MLOAD PUSH1 0x6 SWAP1 SWAP3 MUL ADD SWAP1 DUP2 SSTORE SWAP1 DUP3 ADD MLOAD PUSH1 0x1 DUP3 ADD SSTORE PUSH1 0x40 DUP3 ADD MLOAD PUSH1 0x2 DUP1 DUP4 ADD DUP1 SLOAD PUSH1 0x1 PUSH1 0x1 PUSH1 0xA0 SHL SUB SWAP1 SWAP4 AND PUSH1 0x1 PUSH1 0x1 PUSH1 0xA0 SHL SUB NOT SWAP1 SWAP4 AND SWAP3 SWAP1 SWAP3 OR SWAP1 SWAP2 SSTORE PUSH1 0x60 DUP4 ADD MLOAD PUSH1 0x3 DUP4 ADD SSTORE PUSH1 0x80 DUP4 ADD MLOAD PUSH1 0x4 DUP4 ADD SSTORE PUSH1 0xA0 DUP4 ADD MLOAD PUSH1 0x5 DUP4 ADD DUP1 SLOAD SWAP2 ISZERO ISZERO PUSH1 0xFF NOT DUP4 AND DUP2 OR DUP3 SSTORE PUSH1 0xC0 DUP7 ADD MLOAD SWAP4 SWAP2 SWAP3 PUSH2 0xFF00 NOT SWAP1 SWAP2 AND PUSH2 0xFFFF NOT SWAP1 SWAP2 AND OR SWAP1 PUSH2 0x100 SWAP1 DUP5 SWAP1 DUP2 GT ISZERO PUSH2 0x168B JUMPI PUSH2 0x168B PUSH2 0x2874 JUMP JUMPDEST MUL OR SWAP1 SSTORE POP SWAP1 POP POP DUP1 PUSH1 0x5 DUP4 PUSH1 0x20 ADD MLOAD DUP2 SLOAD DUP2 LT PUSH2 0x16AB JUMPI PUSH2 0x16AB PUSH2 0x2BB9 JUMP JUMPDEST SWAP1 PUSH1 0x0 MSTORE PUSH1 0x20 PUSH1 0x0 KECCAK256 SWAP1 PUSH1 0x9 MUL ADD PUSH1 0x0 DUP3 ADD MLOAD DUP2 PUSH1 0x0 ADD SSTORE PUSH1 0x20 DUP3 ADD MLOAD DUP2 PUSH1 0x1 ADD SWAP1 DUP2 PUSH2 0x16D8 SWAP2 SWAP1 PUSH2 0x2C9A JUMP JUMPDEST POP PUSH1 0x40 DUP3 ADD MLOAD PUSH1 0x2 DUP3 ADD SWAP1 PUSH2 0x16ED SWAP1 DUP3 PUSH2 0x2C9A JUMP JUMPDEST POP PUSH1 0x60 DUP3 ADD MLOAD PUSH1 0x3 DUP3 ADD SWAP1 PUSH2 0x1702 SWAP1 DUP3 PUSH2 0x2C9A JUMP JUMPDEST POP PUSH1 0x80 DUP3 ADD MLOAD PUSH1 0x4 DUP3 ADD SSTORE PUSH1 0xA0 DUP3 ADD MLOAD PUSH1 0x5 DUP3 ADD SSTORE PUSH1 0xC0 DUP3 ADD MLOAD PUSH1 0x6 DUP3 ADD SSTORE PUSH1 0xE0 DUP3 ADD MLOAD PUSH1 0x7 DUP3 ADD DUP1 SLOAD PUSH1 0xFF NOT AND PUSH1 0x1 DUP4 DUP2 DUP2 GT ISZERO PUSH2 0x1743 JUMPI PUSH2 0x1743 PUSH2 0x2874 JUMP JUMPDEST MUL OR SWAP1 SSTORE POP PUSH2 0x100 DUP3 ADD MLOAD DUP2 PUSH1 0x8 ADD SSTORE SWAP1 POP POP POP POP POP JUMP JUMPDEST PUSH1 0x4 SLOAD DUP4 LT PUSH2 0x177C JUMPI PUSH1 0x40 MLOAD PUSH3 0x461BCD PUSH1 0xE5 SHL DUP2 MSTORE PUSH1 0x4 ADD PUSH2 0x65A SWAP1 PUSH2 0x2DD6 JUMP JUMPDEST PUSH1 0x0 PUSH1 0x6 DUP5 DUP2 SLOAD DUP2 LT PUSH2 0x1791 JUMPI PUSH2 0x1791 PUSH2 0x2BB9 JUMP JUMPDEST PUSH1 0x0 SWAP2 DUP3 MSTORE PUSH1 0x20 SWAP2 DUP3 SWAP1 KECCAK256 PUSH1 0x40 DUP1 MLOAD PUSH1 0xE0 DUP2 ADD DUP3 MSTORE PUSH1 0x6 SWAP1 SWAP4 MUL SWAP1 SWAP2 ADD DUP1 SLOAD DUP4 MSTORE PUSH1 0x1 DUP2 ADD SLOAD SWAP4 DUP4 ADD SWAP4 SWAP1 SWAP4 MSTORE PUSH1 0x2 DUP1 DUP5 ADD SLOAD PUSH1 0x1 PUSH1 0x1 PUSH1 0xA0 SHL SUB AND SWAP2 DUP4 ADD SWAP2 SWAP1 SWAP2 MSTORE PUSH1 0x3 DUP4 ADD SLOAD PUSH1 0x60 DUP4 ADD MSTORE PUSH1 0x4 DUP4 ADD SLOAD PUSH1 0x80 DUP4 ADD MSTORE PUSH1 0x5 DUP4 ADD SLOAD PUSH1 0xFF DUP1 DUP3 AND ISZERO ISZERO PUSH1 0xA0 DUP6 ADD MSTORE SWAP3 SWAP4 SWAP3 PUSH1 0xC0 DUP6 ADD SWAP3 PUSH2 0x100 SWAP1 SWAP3 DIV AND SWAP1 DUP2 GT ISZERO PUSH2 0x1818 JUMPI PUSH2 0x1818 PUSH2 0x2874 JUMP JUMPDEST PUSH1 0x2 DUP2 GT ISZERO PUSH2 0x1829 JUMPI PUSH2 0x1829 PUSH2 0x2874 JUMP JUMPDEST SWAP1 MSTORE POP SWAP1 POP PUSH1 0x2 DUP2 PUSH1 0xC0 ADD MLOAD PUSH1 0x2 DUP2 GT ISZERO PUSH2 0x1846 JUMPI PUSH2 0x1846 PUSH2 0x2874 JUMP JUMPDEST EQ PUSH2 0x1863 JUMPI PUSH1 0x40 MLOAD PUSH3 0x461BCD PUSH1 0xE5 SHL DUP2 MSTORE PUSH1 0x4 ADD PUSH2 0x65A SWAP1 PUSH2 0x2D5A JUMP JUMPDEST DUP1 PUSH1 0xA0 ADD MLOAD ISZERO PUSH2 0x18A8 JUMPI PUSH1 0x40 MLOAD PUSH3 0x461BCD PUSH1 0xE5 SHL DUP2 MSTORE PUSH1 0x20 PUSH1 0x4 DUP3 ADD MSTORE PUSH1 0x10 PUSH1 0x24 DUP3 ADD MSTORE PUSH16 0x185B1C9958591E481C995D9A595DD959 PUSH1 0x82 SHL PUSH1 0x44 DUP3 ADD MSTORE PUSH1 0x64 ADD PUSH2 0x65A JUMP JUMPDEST PUSH1 0x20 DUP2 DUP2 ADD MLOAD PUSH1 0x0 SWAP1 DUP2 MSTORE PUSH1 0x7 DUP3 MSTORE PUSH1 0x40 DUP1 DUP3 KECCAK256 DUP2 MLOAD PUSH1 0x60 DUP2 ADD DUP4 MSTORE CALLER DUP2 MSTORE DUP1 DUP6 ADD DUP9 DUP2 MSTORE SWAP3 DUP2 ADD DUP8 SWAP1 MSTORE DUP2 SLOAD PUSH1 0x1 DUP1 DUP3 ADD DUP5 SSTORE SWAP3 DUP6 MSTORE SWAP5 SWAP1 SWAP4 KECCAK256 DUP4 MLOAD PUSH1 0x3 SWAP1 SWAP6 MUL ADD DUP1 SLOAD PUSH1 0x1 PUSH1 0x1 PUSH1 0xA0 SHL SUB NOT AND PUSH1 0x1 PUSH1 0x1 PUSH1 0xA0 SHL SUB SWAP1 SWAP6 AND SWAP5 SWAP1 SWAP5 OR DUP5 SSTORE SWAP1 MLOAD SWAP2 SWAP3 SWAP2 SWAP1 DUP3 ADD SWAP1 PUSH2 0x191B SWAP1 DUP3 PUSH2 0x2C9A JUMP JUMPDEST POP PUSH1 0x40 DUP3 ADD MLOAD PUSH1 0x2 DUP3 ADD SWAP1 PUSH2 0x1930 SWAP1 DUP3 PUSH2 0x2C9A JUMP JUMPDEST POP POP PUSH1 0x1 PUSH1 0xA0 DUP4 ADD MSTORE POP PUSH1 0x6 DUP1 SLOAD DUP3 SWAP2 SWAP1 DUP7 SWAP1 DUP2 LT PUSH2 0x1951 JUMPI PUSH2 0x1951 PUSH2 0x2BB9 JUMP JUMPDEST PUSH1 0x0 SWAP2 DUP3 MSTORE PUSH1 0x20 SWAP2 DUP3 SWAP1 KECCAK256 DUP4 MLOAD PUSH1 0x6 SWAP1 SWAP3 MUL ADD SWAP1 DUP2 SSTORE SWAP1 DUP3 ADD MLOAD PUSH1 0x1 DUP3 ADD SSTORE PUSH1 0x40 DUP3 ADD MLOAD PUSH1 0x2 DUP1 DUP4 ADD DUP1 SLOAD PUSH1 0x1 PUSH1 0x1 PUSH1 0xA0 SHL SUB SWAP1 SWAP4 AND PUSH1 0x1 PUSH1 0x1 PUSH1 0xA0 SHL SUB NOT SWAP1 SWAP4 AND SWAP3 SWAP1 SWAP3 OR SWAP1 SWAP2 SSTORE PUSH1 0x60 DUP4 ADD MLOAD PUSH1 0x3 DUP4 ADD SSTORE PUSH1 0x80 DUP4 ADD MLOAD PUSH1 0x4 DUP4 ADD SSTORE PUSH1 0xA0 DUP4 ADD MLOAD PUSH1 0x5 DUP4 ADD DUP1 SLOAD SWAP2 ISZERO ISZERO PUSH1 0xFF NOT DUP4 AND DUP2 OR DUP3 SSTORE PUSH1 0xC0 DUP7 ADD MLOAD SWAP4 SWAP2 SWAP3 PUSH2 0xFF00 NOT SWAP1 SWAP2 AND PUSH2 0xFFFF NOT SWAP1 SWAP2 AND OR SWAP1 PUSH2 0x100 SWAP1 DUP5 SWAP1 DUP2 GT ISZERO PUSH2 0x19F2 JUMPI PUSH2 0x19F2 PUSH2 0x2874 JUMP JUMPDEST MUL OR SWAP1 SSTORE POP POP POP POP POP POP POP JUMP JUMPDEST PUSH1 0x60 PUSH1 0x5 DUP1 SLOAD DUP1 PUSH1 0x20 MUL PUSH1 0x20 ADD PUSH1 0x40 MLOAD SWAP1 DUP2 ADD PUSH1 0x40 MSTORE DUP1 SWAP3 SWAP2 SWAP1 DUP2 DUP2 MSTORE PUSH1 0x20 ADD PUSH1 0x0 SWAP1 JUMPDEST DUP3 DUP3 LT ISZERO PUSH2 0x1C71 JUMPI DUP4 DUP3 SWAP1 PUSH1 0x0 MSTORE PUSH1 0x20 PUSH1 0x0 KECCAK256 SWAP1 PUSH1 0x9 MUL ADD PUSH1 0x40 MLOAD DUP1 PUSH2 0x120 ADD PUSH1 0x40 MSTORE SWAP1 DUP2 PUSH1 0x0 DUP3 ADD SLOAD DUP2 MSTORE PUSH1 0x20 ADD PUSH1 0x1 DUP3 ADD DUP1 SLOAD PUSH2 0x1A61 SWAP1 PUSH2 0x2BCF JUMP JUMPDEST DUP1 PUSH1 0x1F ADD PUSH1 0x20 DUP1 SWAP2 DIV MUL PUSH1 0x20 ADD PUSH1 0x40 MLOAD SWAP1 DUP2 ADD PUSH1 0x40 MSTORE DUP1 SWAP3 SWAP2 SWAP1 DUP2 DUP2 MSTORE PUSH1 0x20 ADD DUP3 DUP1 SLOAD PUSH2 0x1A8D SWAP1 PUSH2 0x2BCF JUMP JUMPDEST DUP1 ISZERO PUSH2 0x1ADA JUMPI DUP1 PUSH1 0x1F LT PUSH2 0x1AAF JUMPI PUSH2 0x100 DUP1 DUP4 SLOAD DIV MUL DUP4 MSTORE SWAP2 PUSH1 0x20 ADD SWAP2 PUSH2 0x1ADA JUMP JUMPDEST DUP3 ADD SWAP2 SWAP1 PUSH1 0x0 MSTORE PUSH1 0x20 PUSH1 0x0 KECCAK256 SWAP1 JUMPDEST DUP2 SLOAD DUP2 MSTORE SWAP1 PUSH1 0x1 ADD SWAP1 PUSH1 0x20 ADD DUP1 DUP4 GT PUSH2 0x1ABD JUMPI DUP3 SWAP1 SUB PUSH1 0x1F AND DUP3 ADD SWAP2 JUMPDEST POP POP POP POP POP DUP2 MSTORE PUSH1 0x20 ADD PUSH1 0x2 DUP3 ADD DUP1 SLOAD PUSH2 0x1AF3 SWAP1 PUSH2 0x2BCF JUMP JUMPDEST DUP1 PUSH1 0x1F ADD PUSH1 0x20 DUP1 SWAP2 DIV MUL PUSH1 0x20 ADD PUSH1 0x40 MLOAD SWAP1 DUP2 ADD PUSH1 0x40 MSTORE DUP1 SWAP3 SWAP2 SWAP1 DUP2 DUP2 MSTORE PUSH1 0x20 ADD DUP3 DUP1 SLOAD PUSH2 0x1B1F SWAP1 PUSH2 0x2BCF JUMP JUMPDEST DUP1 ISZERO PUSH2 0x1B6C JUMPI DUP1 PUSH1 0x1F LT PUSH2 0x1B41 JUMPI PUSH2 0x100 DUP1 DUP4 SLOAD DIV MUL DUP4 MSTORE SWAP2 PUSH1 0x20 ADD SWAP2 PUSH2 0x1B6C JUMP JUMPDEST DUP3 ADD SWAP2 SWAP1 PUSH1 0x0 MSTORE PUSH1 0x20 PUSH1 0x0 KECCAK256 SWAP1 JUMPDEST DUP2 SLOAD DUP2 MSTORE SWAP1 PUSH1 0x1 ADD SWAP1 PUSH1 0x20 ADD DUP1 DUP4 GT PUSH2 0x1B4F JUMPI DUP3 SWAP1 SUB PUSH1 0x1F AND DUP3 ADD SWAP2 JUMPDEST POP POP POP POP POP DUP2 MSTORE PUSH1 0x20 ADD PUSH1 0x3 DUP3 ADD DUP1 SLOAD PUSH2 0x1B85 SWAP1 PUSH2 0x2BCF JUMP JUMPDEST DUP1 PUSH1 0x1F ADD PUSH1 0x20 DUP1 SWAP2 DIV MUL PUSH1 0x20 ADD PUSH1 0x40 MLOAD SWAP1 DUP2 ADD PUSH1 0x40 MSTORE DUP1 SWAP3 SWAP2 SWAP1 DUP2 DUP2 MSTORE PUSH1 0x20 ADD DUP3 DUP1 SLOAD PUSH2 0x1BB1 SWAP1 PUSH2 0x2BCF JUMP JUMPDEST DUP1 ISZERO PUSH2 0x1BFE JUMPI DUP1 PUSH1 0x1F LT PUSH2 0x1BD3 JUMPI PUSH2 0x100 DUP1 DUP4 SLOAD DIV MUL DUP4 MSTORE SWAP2 PUSH1 0x20 ADD SWAP2 PUSH2 0x1BFE JUMP JUMPDEST DUP3 ADD SWAP2 SWAP1 PUSH1 0x0 MSTORE PUSH1 0x20 PUSH1 0x0 KECCAK256 SWAP1 JUMPDEST DUP2 SLOAD DUP2 MSTORE SWAP1 PUSH1 0x1 ADD SWAP1 PUSH1 0x20 ADD DUP1 DUP4 GT PUSH2 0x1BE1 JUMPI DUP3 SWAP1 SUB PUSH1 0x1F AND DUP3 ADD SWAP2 JUMPDEST POP POP POP SWAP2 DUP4 MSTORE POP POP PUSH1 0x4 DUP3 ADD SLOAD PUSH1 0x20 DUP3 ADD MSTORE PUSH1 0x5 DUP3 ADD SLOAD PUSH1 0x40 DUP3 ADD MSTORE PUSH1 0x6 DUP3 ADD SLOAD PUSH1 0x60 DUP3 ADD MSTORE PUSH1 0x7 DUP3 ADD SLOAD PUSH1 0x80 SWAP1 SWAP2 ADD SWAP1 PUSH1 0xFF AND PUSH1 0x1 DUP2 GT ISZERO PUSH2 0x1C43 JUMPI PUSH2 0x1C43 PUSH2 0x2874 JUMP JUMPDEST PUSH1 0x1 DUP2 GT ISZERO PUSH2 0x1C54 JUMPI PUSH2 0x1C54 PUSH2 0x2874 JUMP JUMPDEST DUP2 MSTORE PUSH1 0x20 ADD PUSH1 0x8 DUP3 ADD SLOAD DUP2 MSTORE POP POP DUP2 MSTORE PUSH1 0x20 ADD SWAP1 PUSH1 0x1 ADD SWAP1 PUSH2 0x1A23 JUMP JUMPDEST POP POP POP POP SWAP1 POP SWAP1 JUMP JUMPDEST PUSH1 0x1 SLOAD PUSH1 0x1 PUSH1 0x1 PUSH1 0xA0 SHL SUB AND CALLER EQ PUSH2 0x1CA4 JUMPI PUSH1 0x40 MLOAD PUSH3 0x461BCD PUSH1 0xE5 SHL DUP2 MSTORE PUSH1 0x4 ADD PUSH2 0x65A SWAP1 PUSH2 0x2D9F JUMP JUMPDEST PUSH1 0x0 DUP2 PUSH1 0x1 DUP2 GT ISZERO PUSH2 0x1CB8 JUMPI PUSH2 0x1CB8 PUSH2 0x2874 JUMP JUMPDEST SUB PUSH2 0x1DC9 JUMPI PUSH1 0x5 PUSH1 0x40 MLOAD DUP1 PUSH2 0x120 ADD PUSH1 0x40 MSTORE DUP1 PUSH1 0x3 SLOAD DUP2 MSTORE PUSH1 0x20 ADD DUP9 DUP2 MSTORE PUSH1 0x20 ADD DUP8 DUP2 MSTORE PUSH1 0x20 ADD DUP7 DUP2 MSTORE PUSH1 0x20 ADD DUP6 DUP2 MSTORE PUSH1 0x20 ADD DUP5 DUP2 MSTORE PUSH1 0x20 ADD PUSH1 0x0 DUP2 MSTORE PUSH1 0x20 ADD PUSH1 0x0 PUSH1 0x1 DUP2 GT ISZERO PUSH2 0x1D0B JUMPI PUSH2 0x1D0B PUSH2 0x2874 JUMP JUMPDEST DUP2 MSTORE TIMESTAMP PUSH1 0x20 SWAP2 DUP3 ADD MSTORE DUP3 SLOAD PUSH1 0x1 DUP2 DUP2 ADD DUP6 SSTORE PUSH1 0x0 SWAP5 DUP6 MSTORE SWAP4 DUP3 SWAP1 KECCAK256 DUP4 MLOAD PUSH1 0x9 SWAP1 SWAP3 MUL ADD SWAP1 DUP2 SSTORE SWAP1 DUP3 ADD MLOAD SWAP2 SWAP3 SWAP1 SWAP2 SWAP1 DUP3 ADD SWAP1 PUSH2 0x1D47 SWAP1 DUP3 PUSH2 0x2C9A JUMP JUMPDEST POP PUSH1 0x40 DUP3 ADD MLOAD PUSH1 0x2 DUP3 ADD SWAP1 PUSH2 0x1D5C SWAP1 DUP3 PUSH2 0x2C9A JUMP JUMPDEST POP PUSH1 0x60 DUP3 ADD MLOAD PUSH1 0x3 DUP3 ADD SWAP1 PUSH2 0x1D71 SWAP1 DUP3 PUSH2 0x2C9A JUMP JUMPDEST POP PUSH1 0x80 DUP3 ADD MLOAD PUSH1 0x4 DUP3 ADD SSTORE PUSH1 0xA0 DUP3 ADD MLOAD PUSH1 0x5 DUP3 ADD SSTORE PUSH1 0xC0 DUP3 ADD MLOAD PUSH1 0x6 DUP3 ADD SSTORE PUSH1 0xE0 DUP3 ADD MLOAD PUSH1 0x7 DUP3 ADD DUP1 SLOAD PUSH1 0xFF NOT AND PUSH1 0x1 DUP4 DUP2 DUP2 GT ISZERO PUSH2 0x1DB2 JUMPI PUSH2 0x1DB2 PUSH2 0x2874 JUMP JUMPDEST MUL OR SWAP1 SSTORE POP PUSH2 0x100 DUP3 ADD MLOAD DUP2 PUSH1 0x8 ADD SSTORE POP POP PUSH2 0x1ED1 JUMP JUMPDEST PUSH1 0x5 PUSH1 0x40 MLOAD DUP1 PUSH2 0x120 ADD PUSH1 0x40 MSTORE DUP1 PUSH1 0x3 SLOAD DUP2 MSTORE PUSH1 0x20 ADD DUP9 DUP2 MSTORE PUSH1 0x20 ADD DUP8 DUP2 MSTORE PUSH1 0x20 ADD DUP7 DUP2 MSTORE PUSH1 0x20 ADD DUP6 DUP2 MSTORE PUSH1 0x20 ADD PUSH1 0x1 DUP2 MSTORE PUSH1 0x20 ADD PUSH1 0x0 DUP2 MSTORE PUSH1 0x20 ADD PUSH1 0x1 DUP1 DUP2 GT ISZERO PUSH2 0x1E17 JUMPI PUSH2 0x1E17 PUSH2 0x2874 JUMP JUMPDEST DUP2 MSTORE TIMESTAMP PUSH1 0x20 SWAP2 DUP3 ADD MSTORE DUP3 SLOAD PUSH1 0x1 DUP2 DUP2 ADD DUP6 SSTORE PUSH1 0x0 SWAP5 DUP6 MSTORE SWAP4 DUP3 SWAP1 KECCAK256 DUP4 MLOAD PUSH1 0x9 SWAP1 SWAP3 MUL ADD SWAP1 DUP2 SSTORE SWAP1 DUP3 ADD MLOAD SWAP2 SWAP3 SWAP1 SWAP2 SWAP1 DUP3 ADD SWAP1 PUSH2 0x1E53 SWAP1 DUP3 PUSH2 0x2C9A JUMP JUMPDEST POP PUSH1 0x40 DUP3 ADD MLOAD PUSH1 0x2 DUP3 ADD SWAP1 PUSH2 0x1E68 SWAP1 DUP3 PUSH2 0x2C9A JUMP JUMPDEST POP PUSH1 0x60 DUP3 ADD MLOAD PUSH1 0x3 DUP3 ADD SWAP1 PUSH2 0x1E7D SWAP1 DUP3 PUSH2 0x2C9A JUMP JUMPDEST POP PUSH1 0x80 DUP3 ADD MLOAD PUSH1 0x4 DUP3 ADD SSTORE PUSH1 0xA0 DUP3 ADD MLOAD PUSH1 0x5 DUP3 ADD SSTORE PUSH1 0xC0 DUP3 ADD MLOAD PUSH1 0x6 DUP3 ADD SSTORE PUSH1 0xE0 DUP3 ADD MLOAD PUSH1 0x7 DUP3 ADD DUP1 SLOAD PUSH1 0xFF NOT AND PUSH1 0x1 DUP4 DUP2 DUP2 GT ISZERO PUSH2 0x1EBE JUMPI PUSH2 0x1EBE PUSH2 0x2874 JUMP JUMPDEST MUL OR SWAP1 SSTORE POP PUSH2 0x100 DUP3 ADD MLOAD DUP2 PUSH1 0x8 ADD SSTORE POP POP JUMPDEST PUSH1 0x3 DUP1 SLOAD SWAP1 PUSH1 0x0 PUSH2 0x1EE1 DUP4 PUSH2 0x2C36 JUMP JUMPDEST SWAP2 SWAP1 POP SSTORE POP POP POP POP POP POP POP JUMP JUMPDEST PUSH1 0x6 DUP2 DUP2 SLOAD DUP2 LT PUSH2 0x1EFE JUMPI PUSH1 0x0 DUP1 REVERT JUMPDEST PUSH1 0x0 SWAP2 DUP3 MSTORE PUSH1 0x20 SWAP1 SWAP2 KECCAK256 PUSH1 0x6 SWAP1 SWAP2 MUL ADD DUP1 SLOAD PUSH1 0x1 DUP3 ADD SLOAD PUSH1 0x2 DUP4 ADD SLOAD PUSH1 0x3 DUP5 ADD SLOAD PUSH1 0x4 DUP6 ADD SLOAD PUSH1 0x5 SWAP1 SWAP6 ADD SLOAD SWAP4 SWAP6 POP SWAP2 SWAP4 PUSH1 0x1 PUSH1 0x1 PUSH1 0xA0 SHL SUB SWAP1 SWAP2 AND SWAP3 PUSH1 0xFF DUP1 DUP3 AND SWAP2 PUSH2 0x100 SWAP1 DIV AND DUP8 JUMP JUMPDEST PUSH1 0x60 PUSH1 0x6 DUP1 SLOAD DUP1 PUSH1 0x20 MUL PUSH1 0x20 ADD PUSH1 0x40 MLOAD SWAP1 DUP2 ADD PUSH1 0x40 MSTORE DUP1 SWAP3 SWAP2 SWAP1 DUP2 DUP2 MSTORE PUSH1 0x20 ADD PUSH1 0x0 SWAP1 JUMPDEST DUP3 DUP3 LT ISZERO PUSH2 0x1C71 JUMPI PUSH1 0x0 DUP5 DUP2 MSTORE PUSH1 0x20 SWAP1 DUP2 SWAP1 KECCAK256 PUSH1 0x40 DUP1 MLOAD PUSH1 0xE0 DUP2 ADD DUP3 MSTORE PUSH1 0x6 DUP7 MUL SWAP1 SWAP3 ADD DUP1 SLOAD DUP4 MSTORE PUSH1 0x1 DUP2 ADD SLOAD SWAP4 DUP4 ADD SWAP4 SWAP1 SWAP4 MSTORE PUSH1 0x2 DUP1 DUP5 ADD SLOAD PUSH1 0x1 PUSH1 0x1 PUSH1 0xA0 SHL SUB AND SWAP2 DUP4 ADD SWAP2 SWAP1 SWAP2 MSTORE PUSH1 0x3 DUP4 ADD SLOAD PUSH1 0x60 DUP4 ADD MSTORE PUSH1 0x4 DUP4 ADD SLOAD PUSH1 0x80 DUP4 ADD MSTORE PUSH1 0x5 DUP4 ADD SLOAD PUSH1 0xFF DUP1 DUP3 AND ISZERO ISZERO PUSH1 0xA0 DUP6 ADD MSTORE SWAP3 SWAP4 SWAP3 PUSH1 0xC0 DUP6 ADD SWAP3 PUSH2 0x100 SWAP1 SWAP3 DIV AND SWAP1 DUP2 GT ISZERO PUSH2 0x1FFC JUMPI PUSH2 0x1FFC PUSH2 0x2874 JUMP JUMPDEST PUSH1 0x2 DUP2 GT ISZERO PUSH2 0x200D JUMPI PUSH2 0x200D PUSH2 0x2874 JUMP JUMPDEST DUP2 MSTORE POP POP DUP2 MSTORE PUSH1 0x20 ADD SWAP1 PUSH1 0x1 ADD SWAP1 PUSH2 0x1F6E JUMP JUMPDEST PUSH1 0x0 DUP1 SLOAD PUSH1 0x40 MLOAD PUSH4 0x77C1B97 PUSH1 0xE3 SHL DUP2 MSTORE PUSH1 0x4 DUP2 ADD DUP5 SWAP1 MSTORE PUSH1 0x1 PUSH1 0x1 PUSH1 0xA0 SHL SUB SWAP1 SWAP2 AND SWAP1 PUSH4 0x3BE0DCB8 SWAP1 PUSH1 0x24 ADD PUSH1 0x20 PUSH1 0x40 MLOAD DUP1 DUP4 SUB DUP2 PUSH1 0x0 DUP8 GAS CALL ISZERO DUP1 ISZERO PUSH2 0x206C JUMPI RETURNDATASIZE PUSH1 0x0 DUP1 RETURNDATACOPY RETURNDATASIZE PUSH1 0x0 REVERT JUMPDEST POP POP POP POP PUSH1 0x40 MLOAD RETURNDATASIZE PUSH1 0x1F NOT PUSH1 0x1F DUP3 ADD AND DUP3 ADD DUP1 PUSH1 0x40 MSTORE POP DUP2 ADD SWAP1 PUSH2 0x2090 SWAP2 SWAP1 PUSH2 0x2E11 JUMP JUMPDEST SWAP3 SWAP2 POP POP JUMP JUMPDEST PUSH1 0x4 SLOAD DUP2 LT PUSH2 0x20B7 JUMPI PUSH1 0x40 MLOAD PUSH3 0x461BCD PUSH1 0xE5 SHL DUP2 MSTORE PUSH1 0x4 ADD PUSH2 0x65A SWAP1 PUSH2 0x2DD6 JUMP JUMPDEST PUSH1 0x0 PUSH1 0x6 DUP3 DUP2 SLOAD DUP2 LT PUSH2 0x20CC JUMPI PUSH2 0x20CC PUSH2 0x2BB9 JUMP JUMPDEST PUSH1 0x0 SWAP2 DUP3 MSTORE PUSH1 0x20 SWAP2 DUP3 SWAP1 KECCAK256 PUSH1 0x40 DUP1 MLOAD PUSH1 0xE0 DUP2 ADD DUP3 MSTORE PUSH1 0x6 SWAP1 SWAP4 MUL SWAP1 SWAP2 ADD DUP1 SLOAD DUP4 MSTORE PUSH1 0x1 DUP2 ADD SLOAD SWAP4 DUP4 ADD SWAP4 SWAP1 SWAP4 MSTORE PUSH1 0x2 DUP1 DUP5 ADD SLOAD PUSH1 0x1 PUSH1 0x1 PUSH1 0xA0 SHL SUB AND SWAP2 DUP4 ADD SWAP2 SWAP1 SWAP2 MSTORE PUSH1 0x3 DUP4 ADD SLOAD PUSH1 0x60 DUP4 ADD MSTORE PUSH1 0x4 DUP4 ADD SLOAD PUSH1 0x80 DUP4 ADD MSTORE PUSH1 0x5 DUP4 ADD SLOAD PUSH1 0xFF DUP1 DUP3 AND ISZERO ISZERO PUSH1 0xA0 DUP6 ADD MSTORE SWAP3 SWAP4 SWAP3 PUSH1 0xC0 DUP6 ADD SWAP3 PUSH2 0x100 SWAP1 SWAP3 DIV AND SWAP1 DUP2 GT ISZERO PUSH2 0x2153 JUMPI PUSH2 0x2153 PUSH2 0x2874 JUMP JUMPDEST PUSH1 0x2 DUP2 GT ISZERO PUSH2 0x2164 JUMPI PUSH2 0x2164 PUSH2 0x2874 JUMP JUMPDEST DUP2 MSTORE POP POP SWAP1 POP DUP1 PUSH1 0x40 ADD MLOAD PUSH1 0x1 PUSH1 0x1 PUSH1 0xA0 SHL SUB AND CALLER PUSH1 0x1 PUSH1 0x1 PUSH1 0xA0 SHL SUB AND EQ DUP1 ISZERO PUSH2 0x21A4 JUMPI POP PUSH1 0x1 DUP2 PUSH1 0xC0 ADD MLOAD PUSH1 0x2 DUP2 GT ISZERO PUSH2 0x21A2 JUMPI PUSH2 0x21A2 PUSH2 0x2874 JUMP JUMPDEST EQ JUMPDEST PUSH2 0x21C0 JUMPI PUSH1 0x40 MLOAD PUSH3 0x461BCD PUSH1 0xE5 SHL DUP2 MSTORE PUSH1 0x4 ADD PUSH2 0x65A SWAP1 PUSH2 0x2D5A JUMP JUMPDEST PUSH1 0x80 DUP2 ADD MLOAD PUSH1 0x0 PUSH2 0x3E8 PUSH2 0x21D5 PUSH1 0x3 DUP5 PUSH2 0x2C1F JUMP JUMPDEST PUSH2 0x21DF SWAP2 SWAP1 PUSH2 0x2E2A JUMP JUMPDEST SWAP1 POP PUSH1 0x0 PUSH2 0x21ED DUP3 DUP5 PUSH2 0x2DFE JUMP JUMPDEST PUSH1 0x2 PUSH1 0xC0 DUP7 ADD MSTORE PUSH1 0x6 DUP1 SLOAD SWAP2 SWAP3 POP DUP6 SWAP2 DUP8 SWAP1 DUP2 LT PUSH2 0x220D JUMPI PUSH2 0x220D PUSH2 0x2BB9 JUMP JUMPDEST PUSH1 0x0 SWAP2 DUP3 MSTORE PUSH1 0x20 SWAP2 DUP3 SWAP1 KECCAK256 DUP4 MLOAD PUSH1 0x6 SWAP1 SWAP3 MUL ADD SWAP1 DUP2 SSTORE SWAP1 DUP3 ADD MLOAD PUSH1 0x1 DUP3 ADD SSTORE PUSH1 0x40 DUP3 ADD MLOAD PUSH1 0x2 DUP1 DUP4 ADD DUP1 SLOAD PUSH1 0x1 PUSH1 0x1 PUSH1 0xA0 SHL SUB SWAP1 SWAP4 AND PUSH1 0x1 PUSH1 0x1 PUSH1 0xA0 SHL SUB NOT SWAP1 SWAP4 AND SWAP3 SWAP1 SWAP3 OR SWAP1 SWAP2 SSTORE PUSH1 0x60 DUP4 ADD MLOAD PUSH1 0x3 DUP4 ADD SSTORE PUSH1 0x80 DUP4 ADD MLOAD PUSH1 0x4 DUP4 ADD SSTORE PUSH1 0xA0 DUP4 ADD MLOAD PUSH1 0x5 DUP4 ADD DUP1 SLOAD SWAP2 ISZERO ISZERO PUSH1 0xFF NOT DUP4 AND DUP2 OR DUP3 SSTORE PUSH1 0xC0 DUP7 ADD MLOAD SWAP4 SWAP2 SWAP3 PUSH2 0xFF00 NOT SWAP1 SWAP2 AND PUSH2 0xFFFF NOT SWAP1 SWAP2 AND OR SWAP1 PUSH2 0x100 SWAP1 DUP5 SWAP1 DUP2 GT ISZERO PUSH2 0x22AE JUMPI PUSH2 0x22AE PUSH2 0x2874 JUMP JUMPDEST MUL OR SWAP1 SSTORE POP SWAP1 POP POP PUSH1 0x5 DUP5 PUSH1 0x20 ADD MLOAD DUP2 SLOAD DUP2 LT PUSH2 0x22CD JUMPI PUSH2 0x22CD PUSH2 0x2BB9 JUMP JUMPDEST PUSH1 0x0 SWAP2 DUP3 MSTORE PUSH1 0x20 DUP3 KECCAK256 PUSH1 0x6 PUSH1 0x9 SWAP1 SWAP3 MUL ADD ADD DUP1 SLOAD SWAP2 PUSH2 0x22EB DUP4 PUSH2 0x2D88 JUMP JUMPDEST SWAP1 SWAP2 SSTORE POP POP PUSH1 0x1 SLOAD PUSH1 0x40 MLOAD PUSH1 0x1 PUSH1 0x1 PUSH1 0xA0 SHL SUB SWAP1 SWAP2 AND SWAP1 DUP3 ISZERO PUSH2 0x8FC MUL SWAP1 DUP4 SWAP1 PUSH1 0x0 DUP2 DUP2 DUP2 DUP6 DUP9 DUP9 CALL SWAP4 POP POP POP POP ISZERO DUP1 ISZERO PUSH2 0x232A JUMPI RETURNDATASIZE PUSH1 0x0 DUP1 RETURNDATACOPY RETURNDATASIZE PUSH1 0x0 REVERT JUMPDEST POP PUSH1 0x0 DUP1 SLOAD PUSH1 0x40 MLOAD PUSH1 0x1 PUSH1 0x1 PUSH1 0xA0 SHL SUB SWAP1 SWAP2 AND SWAP2 DUP5 ISZERO PUSH2 0x8FC MUL SWAP2 DUP6 SWAP2 DUP2 DUP2 DUP2 DUP6 DUP9 DUP9 CALL SWAP4 POP POP POP POP ISZERO DUP1 ISZERO PUSH2 0x2364 JUMPI RETURNDATASIZE PUSH1 0x0 DUP1 RETURNDATACOPY RETURNDATASIZE PUSH1 0x0 REVERT JUMPDEST POP POP POP POP POP POP JUMP JUMPDEST PUSH1 0x5 DUP2 DUP2 SLOAD DUP2 LT PUSH2 0x237C JUMPI PUSH1 0x0 DUP1 REVERT JUMPDEST PUSH1 0x0 SWAP2 DUP3 MSTORE PUSH1 0x20 SWAP1 SWAP2 KECCAK256 PUSH1 0x9 SWAP1 SWAP2 MUL ADD DUP1 SLOAD PUSH1 0x1 DUP3 ADD DUP1 SLOAD SWAP2 SWAP4 POP SWAP1 PUSH2 0x23A1 SWAP1 PUSH2 0x2BCF JUMP JUMPDEST DUP1 PUSH1 0x1F ADD PUSH1 0x20 DUP1 SWAP2 DIV MUL PUSH1 0x20 ADD PUSH1 0x40 MLOAD SWAP1 DUP2 ADD PUSH1 0x40 MSTORE DUP1 SWAP3 SWAP2 SWAP1 DUP2 DUP2 MSTORE PUSH1 0x20 ADD DUP3 DUP1 SLOAD PUSH2 0x23CD SWAP1 PUSH2 0x2BCF JUMP JUMPDEST DUP1 ISZERO PUSH2 0x241A JUMPI DUP1 PUSH1 0x1F LT PUSH2 0x23EF JUMPI PUSH2 0x100 DUP1 DUP4 SLOAD DIV MUL DUP4 MSTORE SWAP2 PUSH1 0x20 ADD SWAP2 PUSH2 0x241A JUMP JUMPDEST DUP3 ADD SWAP2 SWAP1 PUSH1 0x0 MSTORE PUSH1 0x20 PUSH1 0x0 KECCAK256 SWAP1 JUMPDEST DUP2 SLOAD DUP2 MSTORE SWAP1 PUSH1 0x1 ADD SWAP1 PUSH1 0x20 ADD DUP1 DUP4 GT PUSH2 0x23FD JUMPI DUP3 SWAP1 SUB PUSH1 0x1F AND DUP3 ADD SWAP2 JUMPDEST POP POP POP POP POP SWAP1 DUP1 PUSH1 0x2 ADD DUP1 SLOAD PUSH2 0x242F SWAP1 PUSH2 0x2BCF JUMP JUMPDEST DUP1 PUSH1 0x1F ADD PUSH1 0x20 DUP1 SWAP2 DIV MUL PUSH1 0x20 ADD PUSH1 0x40 MLOAD SWAP1 DUP2 ADD PUSH1 0x40 MSTORE DUP1 SWAP3 SWAP2 SWAP1 DUP2 DUP2 MSTORE PUSH1 0x20 ADD DUP3 DUP1 SLOAD PUSH2 0x245B SWAP1 PUSH2 0x2BCF JUMP JUMPDEST DUP1 ISZERO PUSH2 0x24A8 JUMPI DUP1 PUSH1 0x1F LT PUSH2 0x247D JUMPI PUSH2 0x100 DUP1 DUP4 SLOAD DIV MUL DUP4 MSTORE SWAP2 PUSH1 0x20 ADD SWAP2 PUSH2 0x24A8 JUMP JUMPDEST DUP3 ADD SWAP2 SWAP1 PUSH1 0x0 MSTORE PUSH1 0x20 PUSH1 0x0 KECCAK256 SWAP1 JUMPDEST DUP2 SLOAD DUP2 MSTORE SWAP1 PUSH1 0x1 ADD SWAP1 PUSH1 0x20 ADD DUP1 DUP4 GT PUSH2 0x248B JUMPI DUP3 SWAP1 SUB PUSH1 0x1F AND DUP3 ADD SWAP2 JUMPDEST POP POP POP POP POP SWAP1 DUP1 PUSH1 0x3 ADD DUP1 SLOAD PUSH2 0x24BD SWAP1 PUSH2 0x2BCF JUMP JUMPDEST DUP1 PUSH1 0x1F ADD PUSH1 0x20 DUP1 SWAP2 DIV MUL PUSH1 0x20 ADD PUSH1 0x40 MLOAD SWAP1 DUP2 ADD PUSH1 0x40 MSTORE DUP1 SWAP3 SWAP2 SWAP1 DUP2 DUP2 MSTORE PUSH1 0x20 ADD DUP3 DUP1 SLOAD PUSH2 0x24E9 SWAP1 PUSH2 0x2BCF JUMP JUMPDEST DUP1 ISZERO PUSH2 0x2536 JUMPI DUP1 PUSH1 0x1F LT PUSH2 0x250B JUMPI PUSH2 0x100 DUP1 DUP4 SLOAD DIV MUL DUP4 MSTORE SWAP2 PUSH1 0x20 ADD SWAP2 PUSH2 0x2536 JUMP JUMPDEST DUP3 ADD SWAP2 SWAP1 PUSH1 0x0 MSTORE PUSH1 0x20 PUSH1 0x0 KECCAK256 SWAP1 JUMPDEST DUP2 SLOAD DUP2 MSTORE SWAP1 PUSH1 0x1 ADD SWAP1 PUSH1 0x20 ADD DUP1 DUP4 GT PUSH2 0x2519 JUMPI DUP3 SWAP1 SUB PUSH1 0x1F AND DUP3 ADD SWAP2 JUMPDEST POP POP POP POP PUSH1 0x4 DUP4 ADD SLOAD PUSH1 0x5 DUP5 ADD SLOAD PUSH1 0x6 DUP6 ADD SLOAD PUSH1 0x7 DUP7 ADD SLOAD PUSH1 0x8 SWAP1 SWAP7 ADD SLOAD SWAP5 SWAP6 SWAP3 SWAP5 SWAP2 SWAP4 POP SWAP2 PUSH1 0xFF AND SWAP1 DUP10 JUMP JUMPDEST PUSH1 0x2 DUP1 SLOAD PUSH2 0x2570 SWAP1 PUSH2 0x2BCF JUMP JUMPDEST DUP1 PUSH1 0x1F ADD PUSH1 0x20 DUP1 SWAP2 DIV MUL PUSH1 0x20 ADD PUSH1 0x40 MLOAD SWAP1 DUP2 ADD PUSH1 0x40 MSTORE DUP1 SWAP3 SWAP2 SWAP1 DUP2 DUP2 MSTORE PUSH1 0x20 ADD DUP3 DUP1 SLOAD PUSH2 0x259C SWAP1 PUSH2 0x2BCF JUMP JUMPDEST DUP1 ISZERO PUSH2 0x25E9 JUMPI DUP1 PUSH1 0x1F LT PUSH2 0x25BE JUMPI PUSH2 0x100 DUP1 DUP4 SLOAD DIV MUL DUP4 MSTORE SWAP2 PUSH1 0x20 ADD SWAP2 PUSH2 0x25E9 JUMP JUMPDEST DUP3 ADD SWAP2 SWAP1 PUSH1 0x0 MSTORE PUSH1 0x20 PUSH1 0x0 KECCAK256 SWAP1 JUMPDEST DUP2 SLOAD DUP2 MSTORE SWAP1 PUSH1 0x1 ADD SWAP1 PUSH1 0x20 ADD DUP1 DUP4 GT PUSH2 0x25CC JUMPI DUP3 SWAP1 SUB PUSH1 0x1F AND DUP3 ADD SWAP2 JUMPDEST POP POP POP POP POP DUP2 JUMP JUMPDEST POP DUP1 SLOAD PUSH2 0x25FD SWAP1 PUSH2 0x2BCF JUMP JUMPDEST PUSH1 0x0 DUP3 SSTORE DUP1 PUSH1 0x1F LT PUSH2 0x260D JUMPI POP POP JUMP JUMPDEST PUSH1 0x1F ADD PUSH1 0x20 SWAP1 DIV SWAP1 PUSH1 0x0 MSTORE PUSH1 0x20 PUSH1 0x0 KECCAK256 SWAP1 DUP2 ADD SWAP1 PUSH2 0x262B SWAP2 SWAP1 PUSH2 0x262E JUMP JUMPDEST POP JUMP JUMPDEST JUMPDEST DUP1 DUP3 GT ISZERO PUSH2 0x2643 JUMPI PUSH1 0x0 DUP2 SSTORE PUSH1 0x1 ADD PUSH2 0x262F JUMP JUMPDEST POP SWAP1 JUMP JUMPDEST PUSH1 0x0 DUP1 PUSH1 0x40 DUP4 DUP6 SUB SLT ISZERO PUSH2 0x265A JUMPI PUSH1 0x0 DUP1 REVERT JUMPDEST POP POP DUP1 CALLDATALOAD SWAP3 PUSH1 0x20 SWAP1 SWAP2 ADD CALLDATALOAD SWAP2 POP JUMP JUMPDEST PUSH1 0x0 PUSH1 0x20 DUP3 DUP5 SUB SLT ISZERO PUSH2 0x267B JUMPI PUSH1 0x0 DUP1 REVERT JUMPDEST POP CALLDATALOAD SWAP2 SWAP1 POP JUMP JUMPDEST PUSH1 0x0 DUP2 MLOAD DUP1 DUP5 MSTORE PUSH1 0x0 JUMPDEST DUP2 DUP2 LT ISZERO PUSH2 0x26A8 JUMPI PUSH1 0x20 DUP2 DUP6 ADD DUP2 ADD MLOAD DUP7 DUP4 ADD DUP3 ADD MSTORE ADD PUSH2 0x268C JUMP JUMPDEST POP PUSH1 0x0 PUSH1 0x20 DUP3 DUP7 ADD ADD MSTORE PUSH1 0x20 PUSH1 0x1F NOT PUSH1 0x1F DUP4 ADD AND DUP6 ADD ADD SWAP2 POP POP SWAP3 SWAP2 POP POP JUMP JUMPDEST PUSH1 0x0 PUSH1 0x20 DUP1 DUP4 ADD DUP2 DUP5 MSTORE DUP1 DUP6 MLOAD DUP1 DUP4 MSTORE PUSH1 0x40 SWAP3 POP DUP3 DUP7 ADD SWAP2 POP DUP3 DUP2 PUSH1 0x5 SHL DUP8 ADD ADD DUP5 DUP9 ADD PUSH1 0x0 JUMPDEST DUP4 DUP2 LT ISZERO PUSH2 0x2756 JUMPI DUP9 DUP4 SUB PUSH1 0x3F NOT ADD DUP6 MSTORE DUP2 MLOAD DUP1 MLOAD PUSH1 0x1 PUSH1 0x1 PUSH1 0xA0 SHL SUB AND DUP5 MSTORE DUP8 DUP2 ADD MLOAD PUSH1 0x60 DUP10 DUP7 ADD DUP2 SWAP1 MSTORE SWAP1 PUSH2 0x2728 DUP3 DUP8 ADD DUP3 PUSH2 0x2682 JUMP JUMPDEST SWAP2 POP POP DUP8 DUP3 ADD MLOAD SWAP2 POP DUP5 DUP2 SUB DUP9 DUP7 ADD MSTORE PUSH2 0x2742 DUP2 DUP4 PUSH2 0x2682 JUMP JUMPDEST SWAP7 DUP10 ADD SWAP7 SWAP5 POP POP POP SWAP1 DUP7 ADD SWAP1 PUSH1 0x1 ADD PUSH2 0x26EF JUMP JUMPDEST POP SWAP1 SWAP9 SWAP8 POP POP POP POP POP POP POP POP JUMP JUMPDEST PUSH4 0x4E487B71 PUSH1 0xE0 SHL PUSH1 0x0 MSTORE PUSH1 0x41 PUSH1 0x4 MSTORE PUSH1 0x24 PUSH1 0x0 REVERT JUMPDEST PUSH1 0x0 DUP3 PUSH1 0x1F DUP4 ADD SLT PUSH2 0x278B JUMPI PUSH1 0x0 DUP1 REVERT JUMPDEST DUP2 CALLDATALOAD PUSH8 0xFFFFFFFFFFFFFFFF DUP1 DUP3 GT ISZERO PUSH2 0x27A6 JUMPI PUSH2 0x27A6 PUSH2 0x2764 JUMP JUMPDEST PUSH1 0x40 MLOAD PUSH1 0x1F DUP4 ADD PUSH1 0x1F NOT SWAP1 DUP2 AND PUSH1 0x3F ADD AND DUP2 ADD SWAP1 DUP3 DUP3 GT DUP2 DUP4 LT OR ISZERO PUSH2 0x27CE JUMPI PUSH2 0x27CE PUSH2 0x2764 JUMP JUMPDEST DUP2 PUSH1 0x40 MSTORE DUP4 DUP2 MSTORE DUP7 PUSH1 0x20 DUP6 DUP9 ADD ADD GT ISZERO PUSH2 0x27E7 JUMPI PUSH1 0x0 DUP1 REVERT JUMPDEST DUP4 PUSH1 0x20 DUP8 ADD PUSH1 0x20 DUP4 ADD CALLDATACOPY PUSH1 0x0 PUSH1 0x20 DUP6 DUP4 ADD ADD MSTORE DUP1 SWAP5 POP POP POP POP POP SWAP3 SWAP2 POP POP JUMP JUMPDEST PUSH1 0x0 DUP1 PUSH1 0x0 PUSH1 0x60 DUP5 DUP7 SUB SLT ISZERO PUSH2 0x281C JUMPI PUSH1 0x0 DUP1 REVERT JUMPDEST DUP4 CALLDATALOAD SWAP3 POP PUSH1 0x20 DUP5 ADD CALLDATALOAD PUSH8 0xFFFFFFFFFFFFFFFF DUP1 DUP3 GT ISZERO PUSH2 0x283B JUMPI PUSH1 0x0 DUP1 REVERT JUMPDEST PUSH2 0x2847 DUP8 DUP4 DUP9 ADD PUSH2 0x277A JUMP JUMPDEST SWAP4 POP PUSH1 0x40 DUP7 ADD CALLDATALOAD SWAP2 POP DUP1 DUP3 GT ISZERO PUSH2 0x285D JUMPI PUSH1 0x0 DUP1 REVERT JUMPDEST POP PUSH2 0x286A DUP7 DUP3 DUP8 ADD PUSH2 0x277A JUMP JUMPDEST SWAP2 POP POP SWAP3 POP SWAP3 POP SWAP3 JUMP JUMPDEST PUSH4 0x4E487B71 PUSH1 0xE0 SHL PUSH1 0x0 MSTORE PUSH1 0x21 PUSH1 0x4 MSTORE PUSH1 0x24 PUSH1 0x0 REVERT JUMPDEST PUSH1 0x2 DUP2 LT PUSH2 0x289A JUMPI PUSH2 0x289A PUSH2 0x2874 JUMP JUMPDEST SWAP1 MSTORE JUMP JUMPDEST PUSH1 0x0 PUSH1 0x20 DUP1 DUP4 ADD DUP2 DUP5 MSTORE DUP1 DUP6 MLOAD DUP1 DUP4 MSTORE PUSH1 0x40 SWAP3 POP DUP3 DUP7 ADD SWAP2 POP DUP3 DUP2 PUSH1 0x5 SHL DUP8 ADD ADD DUP5 DUP9 ADD PUSH1 0x0 JUMPDEST DUP4 DUP2 LT ISZERO PUSH2 0x2756 JUMPI PUSH1 0x3F NOT DUP10 DUP5 SUB ADD DUP6 MSTORE DUP2 MLOAD PUSH2 0x120 DUP2 MLOAD DUP6 MSTORE DUP9 DUP3 ADD MLOAD DUP2 DUP11 DUP8 ADD MSTORE PUSH2 0x28F4 DUP3 DUP8 ADD DUP3 PUSH2 0x2682 JUMP JUMPDEST SWAP2 POP POP DUP8 DUP3 ADD MLOAD DUP6 DUP3 SUB DUP10 DUP8 ADD MSTORE PUSH2 0x290C DUP3 DUP3 PUSH2 0x2682 JUMP JUMPDEST SWAP2 POP POP PUSH1 0x60 DUP1 DUP4 ADD MLOAD DUP7 DUP4 SUB DUP3 DUP9 ADD MSTORE PUSH2 0x2926 DUP4 DUP3 PUSH2 0x2682 JUMP JUMPDEST SWAP3 POP POP POP PUSH1 0x80 DUP1 DUP4 ADD MLOAD DUP2 DUP8 ADD MSTORE POP PUSH1 0xA0 DUP1 DUP4 ADD MLOAD DUP2 DUP8 ADD MSTORE POP PUSH1 0xC0 DUP1 DUP4 ADD MLOAD DUP2 DUP8 ADD MSTORE POP PUSH1 0xE0 DUP1 DUP4 ADD MLOAD PUSH2 0x295D DUP3 DUP9 ADD DUP3 PUSH2 0x288A JUMP JUMPDEST POP POP PUSH2 0x100 SWAP2 DUP3 ADD MLOAD SWAP5 SWAP1 SWAP2 ADD SWAP4 SWAP1 SWAP4 MSTORE SWAP4 DUP7 ADD SWAP4 SWAP1 DUP7 ADD SWAP1 PUSH1 0x1 ADD PUSH2 0x28C5 JUMP JUMPDEST PUSH1 0x0 DUP1 PUSH1 0x0 DUP1 PUSH1 0x0 DUP1 PUSH1 0xC0 DUP8 DUP10 SUB SLT ISZERO PUSH2 0x2997 JUMPI PUSH1 0x0 DUP1 REVERT JUMPDEST DUP7 CALLDATALOAD PUSH8 0xFFFFFFFFFFFFFFFF DUP1 DUP3 GT ISZERO PUSH2 0x29AF JUMPI PUSH1 0x0 DUP1 REVERT JUMPDEST PUSH2 0x29BB DUP11 DUP4 DUP12 ADD PUSH2 0x277A JUMP JUMPDEST SWAP8 POP PUSH1 0x20 DUP10 ADD CALLDATALOAD SWAP2 POP DUP1 DUP3 GT ISZERO PUSH2 0x29D1 JUMPI PUSH1 0x0 DUP1 REVERT JUMPDEST PUSH2 0x29DD DUP11 DUP4 DUP12 ADD PUSH2 0x277A JUMP JUMPDEST SWAP7 POP PUSH1 0x40 DUP10 ADD CALLDATALOAD SWAP2 POP DUP1 DUP3 GT ISZERO PUSH2 0x29F3 JUMPI PUSH1 0x0 DUP1 REVERT JUMPDEST POP PUSH2 0x2A00 DUP10 DUP3 DUP11 ADD PUSH2 0x277A JUMP JUMPDEST SWAP5 POP POP PUSH1 0x60 DUP8 ADD CALLDATALOAD SWAP3 POP PUSH1 0x80 DUP8 ADD CALLDATALOAD SWAP2 POP PUSH1 0xA0 DUP8 ADD CALLDATALOAD PUSH1 0x2 DUP2 LT PUSH2 0x2A23 JUMPI PUSH1 0x0 DUP1 REVERT JUMPDEST DUP1 SWAP2 POP POP SWAP3 SWAP6 POP SWAP3 SWAP6 POP SWAP3 SWAP6 JUMP JUMPDEST PUSH1 0x3 DUP2 LT PUSH2 0x289A JUMPI PUSH2 0x289A PUSH2 0x2874 JUMP JUMPDEST DUP8 DUP2 MSTORE PUSH1 0x20 DUP2 ADD DUP8 SWAP1 MSTORE PUSH1 0x1 PUSH1 0x1 PUSH1 0xA0 SHL SUB DUP7 AND PUSH1 0x40 DUP3 ADD MSTORE PUSH1 0x60 DUP2 ADD DUP6 SWAP1 MSTORE PUSH1 0x80 DUP2 ADD DUP5 SWAP1 MSTORE DUP3 ISZERO ISZERO PUSH1 0xA0 DUP3 ADD MSTORE PUSH1 0xE0 DUP2 ADD PUSH2 0x2A81 PUSH1 0xC0 DUP4 ADD DUP5 PUSH2 0x2A31 JUMP JUMPDEST SWAP9 SWAP8 POP POP POP POP POP POP POP POP JUMP JUMPDEST PUSH1 0x20 DUP1 DUP3 MSTORE DUP3 MLOAD DUP3 DUP3 ADD DUP2 SWAP1 MSTORE PUSH1 0x0 SWAP2 SWAP1 PUSH1 0x40 SWAP1 DUP2 DUP6 ADD SWAP1 DUP7 DUP5 ADD DUP6 JUMPDEST DUP3 DUP2 LT ISZERO PUSH2 0x2B19 JUMPI DUP2 MLOAD DUP1 MLOAD DUP6 MSTORE DUP7 DUP2 ADD MLOAD DUP8 DUP7 ADD MSTORE DUP6 DUP2 ADD MLOAD PUSH1 0x1 PUSH1 0x1 PUSH1 0xA0 SHL SUB AND DUP7 DUP7 ADD MSTORE PUSH1 0x60 DUP1 DUP3 ADD MLOAD SWAP1 DUP7 ADD MSTORE PUSH1 0x80 DUP1 DUP3 ADD MLOAD SWAP1 DUP7 ADD MSTORE PUSH1 0xA0 DUP1 DUP3 ADD MLOAD ISZERO ISZERO SWAP1 DUP7 ADD MSTORE PUSH1 0xC0 SWAP1 DUP2 ADD MLOAD SWAP1 PUSH2 0x2B04 DUP2 DUP8 ADD DUP4 PUSH2 0x2A31 JUMP JUMPDEST POP POP PUSH1 0xE0 SWAP4 SWAP1 SWAP4 ADD SWAP3 SWAP1 DUP6 ADD SWAP1 PUSH1 0x1 ADD PUSH2 0x2AAA JUMP JUMPDEST POP SWAP2 SWAP8 SWAP7 POP POP POP POP POP POP POP JUMP JUMPDEST PUSH1 0x0 PUSH2 0x120 DUP12 DUP4 MSTORE DUP1 PUSH1 0x20 DUP5 ADD MSTORE PUSH2 0x2B40 DUP2 DUP5 ADD DUP13 PUSH2 0x2682 JUMP JUMPDEST SWAP1 POP DUP3 DUP2 SUB PUSH1 0x40 DUP5 ADD MSTORE PUSH2 0x2B54 DUP2 DUP12 PUSH2 0x2682 JUMP JUMPDEST SWAP1 POP DUP3 DUP2 SUB PUSH1 0x60 DUP5 ADD MSTORE PUSH2 0x2B68 DUP2 DUP11 PUSH2 0x2682 JUMP JUMPDEST SWAP2 POP POP DUP7 PUSH1 0x80 DUP4 ADD MSTORE DUP6 PUSH1 0xA0 DUP4 ADD MSTORE DUP5 PUSH1 0xC0 DUP4 ADD MSTORE PUSH2 0x2B8A PUSH1 0xE0 DUP4 ADD DUP6 PUSH2 0x288A JUMP JUMPDEST DUP3 PUSH2 0x100 DUP4 ADD MSTORE SWAP11 SWAP10 POP POP POP POP POP POP POP POP POP POP JUMP JUMPDEST PUSH1 0x20 DUP2 MSTORE PUSH1 0x0 PUSH2 0x2BB2 PUSH1 0x20 DUP4 ADD DUP5 PUSH2 0x2682 JUMP JUMPDEST SWAP4 SWAP3 POP POP POP JUMP JUMPDEST PUSH4 0x4E487B71 PUSH1 0xE0 SHL PUSH1 0x0 MSTORE PUSH1 0x32 PUSH1 0x4 MSTORE PUSH1 0x24 PUSH1 0x0 REVERT JUMPDEST PUSH1 0x1 DUP2 DUP2 SHR SWAP1 DUP3 AND DUP1 PUSH2 0x2BE3 JUMPI PUSH1 0x7F DUP3 AND SWAP2 POP JUMPDEST PUSH1 0x20 DUP3 LT DUP2 SUB PUSH2 0x2C03 JUMPI PUSH4 0x4E487B71 PUSH1 0xE0 SHL PUSH1 0x0 MSTORE PUSH1 0x22 PUSH1 0x4 MSTORE PUSH1 0x24 PUSH1 0x0 REVERT JUMPDEST POP SWAP2 SWAP1 POP JUMP JUMPDEST PUSH4 0x4E487B71 PUSH1 0xE0 SHL PUSH1 0x0 MSTORE PUSH1 0x11 PUSH1 0x4 MSTORE PUSH1 0x24 PUSH1 0x0 REVERT JUMPDEST DUP1 DUP3 MUL DUP2 ISZERO DUP3 DUP3 DIV DUP5 EQ OR PUSH2 0x2090 JUMPI PUSH2 0x2090 PUSH2 0x2C09 JUMP JUMPDEST PUSH1 0x0 PUSH1 0x1 DUP3 ADD PUSH2 0x2C48 JUMPI PUSH2 0x2C48 PUSH2 0x2C09 JUMP JUMPDEST POP PUSH1 0x1 ADD SWAP1 JUMP JUMPDEST PUSH1 0x1F DUP3 GT ISZERO PUSH2 0x2C95 JUMPI PUSH1 0x0 DUP2 DUP2 MSTORE PUSH1 0x20 DUP2 KECCAK256 PUSH1 0x1F DUP6 ADD PUSH1 0x5 SHR DUP2 ADD PUSH1 0x20 DUP7 LT ISZERO PUSH2 0x2C76 JUMPI POP DUP1 JUMPDEST PUSH1 0x1F DUP6 ADD PUSH1 0x5 SHR DUP3 ADD SWAP2 POP JUMPDEST DUP2 DUP2 LT ISZERO PUSH2 0x2364 JUMPI DUP3 DUP2 SSTORE PUSH1 0x1 ADD PUSH2 0x2C82 JUMP JUMPDEST POP POP POP JUMP JUMPDEST DUP2 MLOAD PUSH8 0xFFFFFFFFFFFFFFFF DUP2 GT ISZERO PUSH2 0x2CB4 JUMPI PUSH2 0x2CB4 PUSH2 0x2764 JUMP JUMPDEST PUSH2 0x2CC8 DUP2 PUSH2 0x2CC2 DUP5 SLOAD PUSH2 0x2BCF JUMP JUMPDEST DUP5 PUSH2 0x2C4F JUMP JUMPDEST PUSH1 0x20 DUP1 PUSH1 0x1F DUP4 GT PUSH1 0x1 DUP2 EQ PUSH2 0x2CFD JUMPI PUSH1 0x0 DUP5 ISZERO PUSH2 0x2CE5 JUMPI POP DUP6 DUP4 ADD MLOAD JUMPDEST PUSH1 0x0 NOT PUSH1 0x3 DUP7 SWAP1 SHL SHR NOT AND PUSH1 0x1 DUP6 SWAP1 SHL OR DUP6 SSTORE PUSH2 0x2364 JUMP JUMPDEST PUSH1 0x0 DUP6 DUP2 MSTORE PUSH1 0x20 DUP2 KECCAK256 PUSH1 0x1F NOT DUP7 AND SWAP2 JUMPDEST DUP3 DUP2 LT ISZERO PUSH2 0x2D2C JUMPI DUP9 DUP7 ADD MLOAD DUP3 SSTORE SWAP5 DUP5 ADD SWAP5 PUSH1 0x1 SWAP1 SWAP2 ADD SWAP1 DUP5 ADD PUSH2 0x2D0D JUMP JUMPDEST POP DUP6 DUP3 LT ISZERO PUSH2 0x2D4A JUMPI DUP8 DUP6 ADD MLOAD PUSH1 0x0 NOT PUSH1 0x3 DUP9 SWAP1 SHL PUSH1 0xF8 AND SHR NOT AND DUP2 SSTORE JUMPDEST POP POP POP POP POP PUSH1 0x1 SWAP1 DUP2 SHL ADD SWAP1 SSTORE POP JUMP JUMPDEST PUSH1 0x20 DUP1 DUP3 MSTORE PUSH1 0x14 SWAP1 DUP3 ADD MSTORE PUSH20 0x696E76616C6964206F7264657220737461747573 PUSH1 0x60 SHL PUSH1 0x40 DUP3 ADD MSTORE PUSH1 0x60 ADD SWAP1 JUMP JUMPDEST PUSH1 0x0 DUP2 PUSH2 0x2D97 JUMPI PUSH2 0x2D97 PUSH2 0x2C09 JUMP JUMPDEST POP PUSH1 0x0 NOT ADD SWAP1 JUMP JUMPDEST PUSH1 0x20 DUP1 DUP3 MSTORE PUSH1 0x18 SWAP1 DUP3 ADD MSTORE PUSH32 0x6F6E6C79206F776E65722063616E2063616C6C20746869730000000000000000 PUSH1 0x40 DUP3 ADD MSTORE PUSH1 0x60 ADD SWAP1 JUMP JUMPDEST PUSH1 0x20 DUP1 DUP3 MSTORE PUSH1 0xE SWAP1 DUP3 ADD MSTORE PUSH14 0x1DDC9BDB99C81BDC99195C881A59 PUSH1 0x92 SHL PUSH1 0x40 DUP3 ADD MSTORE PUSH1 0x60 ADD SWAP1 JUMP JUMPDEST DUP2 DUP2 SUB DUP2 DUP2 GT ISZERO PUSH2 0x2090 JUMPI PUSH2 0x2090 PUSH2 0x2C09 JUMP JUMPDEST PUSH1 0x0 PUSH1 0x20 DUP3 DUP5 SUB SLT ISZERO PUSH2 0x2E23 JUMPI PUSH1 0x0 DUP1 REVERT JUMPDEST POP MLOAD SWAP2 SWAP1 POP JUMP JUMPDEST PUSH1 0x0 DUP3 PUSH2 0x2E47 JUMPI PUSH4 0x4E487B71 PUSH1 0xE0 SHL PUSH1 0x0 MSTORE PUSH1 0x12 PUSH1 0x4 MSTORE PUSH1 0x24 PUSH1 0x0 REVERT JUMPDEST POP DIV SWAP1 JUMP INVALID LOG2 PUSH5 0x6970667358 0x22 SLT KECCAK256 0x4B 0xE 0xE PC 0x28 0xD8 0xE0 0x22 PUSH5 0x3CC0BCB26A MOD 0xCA CALLDATASIZE SHL 0xE7 0xC0 0xDE 0x23 0xC9 DUP13 0xC2 SDIV PUSH18 0xDC7AC3D1E064736F6C634300081100330000 ",
  "sha1": "694ba041553474a7bafc36de82c2c6aabbb71ebc",
  "source": "// SPDX-License-Identifier: MIT\n\npragma solidity ^0.8.0;\n\nimport \"./IFactory.sol\";\n\ncontract Store {\n    //--------------------------------------------------------------------\n    // VARIABLES\n\n    address public factory;\n    address payable public owner;\n    string public storeMetaData;\n\n    uint256 public productIds;\n    uint256 public orderIds;\n\n    StoreProduct[] public storeProducts;\n    ProductOrder[] public storeOrders;\n    mapping(uint256 => ProductReview[]) productsReviewMapping;\n    \n    uint256 constant private FEE = 3; // fee = 0.3%\n\n    enum Type {\n        FIXED,\n        UNLIMITED\n    }\n    enum Status {\n        PENDING,\n        SENT,\n        COMPLETED\n    }\n\n    struct StoreProduct {\n        uint256 productId;\n        string name;\n        string description;\n        string image;\n        uint256 priceInUSD;\n        uint256 quantity;\n        uint256 activeOrders;\n        Type productType;\n        uint256 listed_on;\n    }\n\n    struct ProductOrder {\n        uint256 orderId;\n        uint256 productId;\n        address payable buyer;\n        uint256 orderQuantity;\n        uint256 orderTotalBuyPriceInETH;\n        bool hasBeenReviewed;\n        Status orderStatus;\n    }\n\n    struct ProductReview {\n        address buyer;\n        string rating;\n        string review;\n    }\n\n    //--------------------------------------------------------------------\n    // MODIFIERS\n\n    modifier onlyOwner() {\n        require(msg.sender == owner, \"only owner can call this\");\n        _;\n    }\n\n    //--------------------------------------------------------------------\n    // CONSTRUCTOR\n\n    constructor(\n        address _factory,\n        address _owner,\n        string memory _storeMetaData\n    ) {\n        owner = payable(_owner);\n        storeMetaData = _storeMetaData;\n        factory = _factory;\n    }\n\n    //--------------------------------------------------------------------\n    // FUNCTIONS\n\n    function addProduct(\n        string memory _name,\n        string memory _description,\n        string memory _image,\n        uint256 _price,\n        uint256 _quantity,\n        Type _type\n    ) public onlyOwner {\n        if (_type == Type.FIXED) {\n            storeProducts.push(\n                StoreProduct(\n                    productIds,\n                    _name,\n                    _description,\n                    _image,\n                    _price,\n                    _quantity,\n                    0,\n                    Type.FIXED,\n                    block.timestamp\n                )\n            );\n        } else {\n            storeProducts.push(\n                StoreProduct(\n                    productIds,\n                    _name,\n                    _description,\n                    _image,\n                    _price,\n                    1,\n                    0,\n                    Type.UNLIMITED,\n                    block.timestamp\n                )\n            );\n        }\n        productIds++;\n    }\n\n    function createBuyOrder(uint256 _productId, uint256 _quantity)\n        public\n        payable\n    {\n        StoreProduct memory product = storeProducts[_productId];\n\n        uint256 priceInETH = _convertUSDToETH(product.priceInUSD);\n\n        if (product.productType == Type.FIXED) {\n            require(_quantity <= product.quantity, \"unsuffisant quantity\");\n            require(msg.value == priceInETH * _quantity, \"unsuffisant amount\");\n\n            ProductOrder memory order = ProductOrder(\n                orderIds,\n                _productId,\n                payable(msg.sender),\n                _quantity,\n                priceInETH * _quantity,\n                false,\n                Status.PENDING\n            );\n            storeOrders.push(order);\n        } else {\n            require(msg.value == priceInETH, \"unsuffisant amount\");\n\n            ProductOrder memory order = ProductOrder(\n                orderIds,\n                _productId,\n                payable(msg.sender),\n                0,\n                priceInETH,\n                false,\n                Status.PENDING\n            );\n            storeOrders.push(order);\n        }\n\n        product.activeOrders++;\n        storeProducts[_productId] = product;\n\n        orderIds++;\n    }\n\n    function fillOrder(uint256 _orderId) public onlyOwner {\n        require(_orderId < orderIds, \"wrong order id\");\n\n        ProductOrder memory order = storeOrders[_orderId];\n\n        require(order.orderStatus == Status.PENDING, \"invalid order status\");\n\n        StoreProduct memory product = storeProducts[order.productId];\n\n        product.quantity -= order.orderQuantity;\n        order.orderStatus = Status.SENT;\n\n        storeOrders[_orderId] = order;\n        storeProducts[order.productId] = product;\n    }\n\n    function confirmRecieved(uint256 _orderId) public {\n        require(_orderId < orderIds, \"wrong order id\");\n        ProductOrder memory order = storeOrders[_orderId];\n\n        require(\n            msg.sender == order.buyer && order.orderStatus == Status.SENT,\n            \"invalid order status\"\n        );\n\n        uint256 totalAmount = order.orderTotalBuyPriceInETH;\n        uint256 fee = (totalAmount * FEE) / 1000;\n        uint256 priceMinusFee = totalAmount - fee;\n\n        order.orderStatus = Status.COMPLETED;\n        storeOrders[_orderId] = order;\n        storeProducts[order.productId].activeOrders--;\n\n        owner.transfer(priceMinusFee);\n        payable(factory).transfer(fee);\n    }\n\n    function cancelOrder(uint256 _orderId) public {\n        ProductOrder memory order = storeOrders[_orderId];\n\n        require(\n            msg.sender == order.buyer && order.orderStatus == Status.PENDING,\n            \"invalid order status\"\n        );\n\n        uint256 totalAmount = order.orderTotalBuyPriceInETH;\n\n        order.buyer.transfer(totalAmount);\n\n        delete storeOrders[_orderId];\n\n        storeProducts[order.productId].activeOrders--;\n    }\n\n    function leaveReview(\n        uint256 _orderId,\n        string memory _rating,\n        string memory _review\n    ) public {\n        require(_orderId < orderIds, \"wrong order id\");\n        ProductOrder memory order = storeOrders[_orderId];\n        require(order.orderStatus == Status.COMPLETED, \"invalid order status\");\n        require(!order.hasBeenReviewed, \"already reviewed\");\n\n        productsReviewMapping[order.productId].push(\n            ProductReview(msg.sender, _rating, _review)\n        );\n        order.hasBeenReviewed = true;\n        storeOrders[_orderId] = order;\n    }\n\n    function removeProduct(uint256 _productId) public onlyOwner {\n        require(_productId <= productIds, \"wrong product id\");\n\n        StoreProduct memory product = storeProducts[_productId];\n\n        if (product.activeOrders == 0) {\n            delete storeProducts[_productId];\n        }\n    }\n\n    function listStoreProducts() public view returns (StoreProduct[] memory) {\n        return storeProducts;\n    }\n\n    function listStoreOrders() public view returns (ProductOrder[] memory) {\n        return storeOrders;\n    }\n\n    function listProductReviews(uint256 _productId)\n        public\n        view\n        returns (ProductReview[] memory)\n    {\n        return productsReviewMapping[_productId];\n    }\n\n    /*\n\n    function getProductDetails(uint256 _productId)\n        public\n        view\n        returns (StoreProduct memory)\n    {\n        return storeProducts[_productId];\n    }\n\n    */\n\n    function _convertUSDToETH(uint256 amountInUSD) public returns (uint256) {\n        return IFactory(factory).convertUSDToETH(amountInUSD);\n    }\n}\n",
  "sourcePath": "contracts/Store.sol",
  "type": "contract"
}